:100000000C943C060C9459060C9459060C94C03080
:100010000C9459060C9459060C9459060C945906E4
:100020000C9459060C9459060C94002E0C94D82E5E
:100030000C948E170C9459060C9459060C9459067E
:100040000C9459060C9459060C9459060C945906B4
:100050000C9459060C94DC2D0C9459060C945906FA
:100060000C9459060C9459060C9459060C94590694
:100070000C9459060C9459060C9459060C94590684
:100080000C9459060C9459060C9459060C94590674
:100090000C9459060C9459060C9459060C94590664
:1000A0000C9459060C9459060C94590600AF00AEF6
:1000B0000000000000003E5B4F5B3E003E6B4F6B5C
:1000C0003E001C3E7C3E1C00183C7E3C18001C5729
:1000D0007D571C001C5E7F5E1C0000183C18000051
:1000E000FFE7C3E7FF00001824180000FFE7DBE785
:1000F000FF0030483A060E00262979292600407F65
:1001000005050700407F05253F005A3CE73C5A00A3
:100110007F3E1C1C0800081C1C3E7F0014227F220E
:1001200014005F5F005F5F0006097F017F000066CB
:1001300089956A0060606060600094A2FFA29400EC
:1001400008047E04080010207E20100008082A1CE5
:100150000800081C2A0808001E10101010000C1EB1
:100160000C1E0C0030383E383000060E3E0E0600E5
:1001700000000000000000005F0000000007000712
:100180000000147F147F1400242A7F2A12002313F6
:10019000086462003649562050000008070300003A
:1001A000001C224100000041221C00002A1C7F1C70
:1001B0002A0008083E080800008070300000080887
:1001C0000808080000006060000020100804020019
:1001D0003E5149453E0000427F4000007249494976
:1001E00046002141494D33001814127F1000274565
:1001F000454539003C4A4949310041211109070070
:10020000364949493600464949291E000000140074
:1002100000000040340000000008142241001414C3
:1002200014141400004122140800020159090600A8
:100230003E415D594E007C1211127C007F494949B4
:1002400036003E41414122007F4141413E007F490D
:10025000494941007F09090901003E4141517300AC
:100260007F0808087F0000417F4100002040413F97
:1002700001007F08142241007F40404040007F027F
:100280001C027F007F0408107F003E4141413E0078
:100290007F09090906003E4151215E007F091929A5
:1002A000460026494949320003017F0103003F40CF
:1002B00040403F001F2040201F003F4038403F008B
:1002C0006314081463000304780403006159494D62
:1002D0004300007F4141410002040810200000411A
:1002E00041417F00040201020400404040404000C0
:1002F0000003070800002054547840007F2844443D
:100300003800384444442800384444287F00385496
:100310005454180000087E0902001824241C780098
:100320007F080404780000447D4000002040403DE8
:1003300000007F102844000000417F4000007C0442
:10034000780478007C080404780038444444380079
:100350007C1824241800182424187C007C08040429
:10036000080048545454240004043F4424003C40F2
:1003700040207C001C2040201C003C4030403C00C1
:100380004428102844004C9090907C004464544CC5
:1003900044000008364100000000770000000041E2
:1003A000360800000201020402003C2623263C001D
:1003B000000000000000000000000000000000003D
:1003C000C0E0F0F8F81800C0F0FCFEFFFFFFFFFFF0
:1003D000FFFF7E00000000000000000080C0E0E0A1
:1003E000E0E0E0E0E0E0C0800000000080C0E0E08D
:1003F000E0E0E0E0E0E0C080000000E0E0C0C0E05D
:10040000E0E0E00000E0E0C0C0E0E0E0E0E0C0806C
:100410000000000080C0E0E0E0E0E0E0E0E0C0805C
:100420000000000000000000000000000000E0F0FC
:10043000F0F0E0ECEEF7F37020007C7C7C7E007E38
:100440007E7E7F7F7F000080C0E07E5B4F5BFEC0D2
:100450000000C000DCD7DEDEDED7DC00C00000001C
:10046000000000000000000000000000000000008C
:10047000000000000000000000F8FCFEFFE000FFAC
:10048000FFFFFFFFFF80FFFFFFFFFFFFFFFFFF1FDB
:100490000701000000000000000000FFFFFF8100D6
:1004A000000000000081C3C3C30000FFFFFF810004
:1004B000000000000081FFFFFF0000FFFFFF0100C0
:1004C0000000000000FFFFFF010000000001FFFF2F
:1004D000FF0000FFFFFF9D1C1C1C1C1C1C9DDFDF80
:1004E000DF000000000000000000000000000F1FFF
:1004F0003F7F7F7F7F7F3F1E0C001F1F1F3F003FFE
:100500003F3F7F7F7F00307B7F7830202030787FB7
:100510003B0003000F7F0F0F0F7F0F000300000051
:1005200000000000000000000000000000000000CB
:10053000000000000000000000030F1F3F3F3F3F8E
:100540001F1F3F3F7F7F7F3F3F1F3F7F7F7F7F7C1E
:100550007878381C0F000000000000000103070736
:10056000070707070707030100000000010307074B
:100570000707070707070301000000070707000038
:100580000000000000070707000000000000070748
:100590000700000001030707070707070707030114
:1005A000000000000000000000000000000000004B
:1005B000000000000000000000000000000000003B
:1005C000000000000000000000000000000000002B
:1005D000000000000000000000000000000000001B
:1005E000000000000000000000000000000000000B
:1005F00005010902A10185020901A10005091901EE
:1006000029081500250195087501810205010930A9
:1006100009311581257F95027508810609381581F4
:10062000257F950175088106050C0A38021581257C
:100630007F950175088106C0C005010980A101856B
:100640000319012AB700150126B70095017510811D
:1006500000C0050C0901A101850419012AA0021599
:100660000126A002950175108100C005010906A1AF
:10067000018506050719E029E7150025019508758C
:100680000181020507190029EF1500250195F07574
:100690000181020508190129059505750191029549
:1006A0000175039101C005010906A101050719E0C3
:1006B00029E7150025019508750181029501750846
:1006C00081010507190029FF150026FF0095067511
:1006D00008810005081901290515002501950575F2
:1006E000019102950175039101C009023B000201CD
:1006F00000A0FA0904000001030101000921110111
:1007000000012244000705810308000109040100DB
:10071000010300000009211101000122B6000705B4
:10072000820320000112010002000000085346016C
:10073000000100010200010C0343006F0072006E13
:100740000065000000100366006F006F0073007406
:100750000061006E000000040309042223252628FE
:10076000292A2C2D2F3032333536383A3B3D3E4046
:1007700042434547494A4C4E5051535557595A5C8C
:100780005E6062646668696B6D6F71737577797BA3
:100790007D7F81838587898A8C8E90929496989AA2
:1007A0009C9E9FA1A3A5A7A8AAACAEAFB1B3B4B6B7
:1007B000B8B9BBBCBEBFC1C2C3C5C6C7C9CACBCC12
:1007C000CDCED0D1D2D2D3D4D5D6D7D7D8D9D9DAE5
:1007D000DADBDBDBDCDCDCDCDCDDDDDDDDDCDCDC5A
:1007E000DCDCDBDBDBDADAD9D9D8D7D7D6D5D4D382
:1007F000D2D2D1D0CECDCCCBCAC9C7C6C5C3C2C157
:10080000BFBEBCBBB9B8B6B4B3B1AFAEACAAA8A7B3
:10081000A5A3A19F9E9C9A98969492908E8C8A896B
:10082000878583817F7D7B79777573716F6D6B6948
:1008300068666462605E5C5A5957555351504E4C1D
:100840004A4947454342403E3D3B3A3836353332CC
:10085000302F2D2C2A292826252322FFAA7F554018
:100860000001010101010101010102020202020273
:100870000202020303030303030303040404040446
:10088000040405050505050606060606070707070D
:100890000708080808090909090A0A0A0B0B0B0CC2
:1008A0000C0C0D0D0D0E0E0E0F0F0F10101111115F
:1008B00012121313141415151616171718181919E0
:1008C0001A1A1B1B1C1D1D1E1E1F20202122222345
:1008D0002424252626272829292A2B2C2D2D2E2F86
:1008E00030313232333435363738393A3B3C3D3E9D
:1008F0003F404142434445464748494A4C4D4E4F8C
:1009000050515354555658595A5B5D5E5F6162644D
:10091000656668696B6C6D6F7072737577787A7BDA
:100920007D7E8082838587888A8C8E8F9193959631
:10093000989A9C9EA0A2A3A5A7A9ABADAFB1B3B551
:10094000B7BABCBEC0C2C4C6C9CBCDCFD1D4D6D82D
:10095000DBDDDFE2E4E7E9EBEEF0F3F5F8FAFDFFCB
:1009600000DA0281FFD9F1DB20A4A62EAF00A0C0DF
:10097000D30000A1C8D30000AED580A81F408D14BD
:1009800020001E0F0500047F3F1F643214643214E0
:10099000783C1E1E140A05808182838485868788A0
:1009A000898A8B8C8D8E8F9091929394A0A1A2A313
:1009B000A4A5A6A7A8A9AAABACADAEAFB0B1B2B37F
:1009C000B4C0C1C2C3C4C5C6C7C8C9CACBCCCDCECA
:1009D000CFD0D1D2D3D4003A002C206B0078005570
:1009E0006E6465660041646A757374005261697370
:1009F00065004C6F7765720044656661756C7400C4
:100A00004C617965723A2000290014001A00080030
:100A1000150017002B0004001600070009000A004B
:100A2000E0001D001B00060019000500000000008A
:100A30000000E200E1002C412E00130012000C0027
:100A400018001C002A0033000F000E000D000B00E0
:100A50004C00380037003600100011000000000084
:100A60000000E300E100284229003B003C00520066
:100A70003E023E002B004200500051004F00450254
:100A8000E0001D014300440045001C01000000007F
:100A90000000E200E10001002B03270026002500F2
:100AA00024002C032A0033002300220021004D00E3
:100AB0004C00430420001F001E004A0000000000FC
:100AC0000000E200E100284229001E021F0220026D
:100AD000210225022B0031022402340034022302B9
:100AE000E000350035022D002E0222020000000039
:100AF0000000E200E1002C412B01420331002D00F7
:100B00002D023A002A00447E2F002F0226024F04B5
:100B10004C00490030003002270250040000000061
:100B20000000E300E1000100290021782378257806
:100B3000277829782B0022782478267828782A7834
:100B4000E00020780000000000000000000000002D
:100B50000000E200E100010000000000AA00A9007E
:100B6000000000002A003D04AB00AE00AC004F09BD
:100B70004C00000000004F0A500A5009000000001D
:100B80000000E300E1000100202020206162636496
:100B900065666768696A6B6C6D6E6F70717273748D
:100BA00075767778797A313233343536373839306B
:100BB000524542545F2D3D5B5D5C233B27602C2EEC
:100BC0002F20202000000000000000000000000096
:100BD0000000000000000000000000000000000015
:100BE00000000000000000007E0F00D4FFFFFFC7E0
:100BF0000000007800000000000000002A2B280000
:100C000000000000000000000000000000000029BB
:100C1000000000002C1E3420212224342627252EFB
:100C2000362D3738271E1F20212223242526333333
:100C3000362E37381F0405060708090A0B0C0D0E5F
:100C40000F101112131415161718191A1B1C1D2F2B
:100C50003130232D350405060708090A0B0C0D0E4B
:100C60000F101112131415161718191A1B1C1D2F0B
:100C70003130354C3D3E000011241FBECFEFDAE08D
:100C8000DEBFCDBF27E0A2ECB1E001C01D92A231D2
:100C9000B207E1F711E0A0E0B1E0E6E9F8E602C052
:100CA00005900D92A23CB107D9F70E941D270C9424
:100CB000E2330C9400009093CA068093C90608950D
:100CC0009C0186709927069731F428603093CC06F2
:100CD0002093CB060895277FF9CF21E030E002C0B2
:100CE000220F331F8A95E2F78091CB069091CC06B4
:100CF000822B932B0E946006089521E030E002C011
:100D0000220F331F8A95E2F7209530958091CB060C
:100D10009091CC06822393230E9460060895983018
:100D200098F5863088F5E82FF0E086E0989FE00D92
:100D3000F11D11248E2F877041E001C0440F8A9568
:100D4000EAF783E0F695E7958A95E1F7EE0FFF1F46
:100D5000EE0FFF1FEC56F94F20E030E070E05191AC
:100D6000DF011197CB01022E02C0969587950A9458
:100D7000E2F7817081958527842385278C932F5FE7
:100D80003F4F2430310559F70895983078F5863073
:100D900068F5E82FF0E086E0989FE00DF11D112442
:100DA0009E2F977083E0F695E7958A95E1F7EE0F11
:100DB000FF1FEE0FFF1FEC56F94F40E050E080E0C0
:100DC000219130E0092E02C0369527950A94E2F76A
:100DD00021703327042E01C0220F0A94EAF7822BD8
:100DE0004F5F5F4F4430510559F7089580E00895F3
:100DF0008091D2069091D106981301C008958F5F1B
:100E00008770FACF90914A019923E1F09091CE0634
:100E100097FF18C0E82FE695E695E695803FF0F439
:100E2000F0E0EC53FE4F877021E030E0A90102C0F2
:100E3000440F551F8A95E2F7CA0180959281892354
:100E400082830895E6ECF1E09191891303C0DF01FC
:100E500011971C9251E0EC3CF507B1F70895909181
:100E6000CD06809589238093CD06282F27702111E8
:100E70000DC0891759F09091CF0692FF07C0869553
:100E8000869586950E947D061092CD060895982F2E
:100E900090958091C60689238093C6060895783080
:100EA000B8F46630A8F48430B0F4E62FF0E096E0B1
:100EB000799FE00DF11D112490E3899FE00DF11D54
:100EC0001124EE0FFF1FE85FF54F8591949108956F
:100ED00080E090E0089581E0FCCF803E9105D1F163
:100EE000C8F48133910509F47FC048F48932910533
:100EF00009F46FC08A32910509F47DC008958933E1
:100F00009105E1F082389105C9F08533910509F426
:100F10005BC00895843E9105D1F148F4823E91056D
:100F200031F1833E910541F181EE90E00895863ED6
:100F30009105C1F1873E9105E1F108952091CE061A
:100F40002370211165C02091CF0623FF14C089E2D0
:100F500090E008952091CE0620FD43C03091CF0649
:100F600030FF09C024FF4EC080E090E0089520913A
:100F7000CE0622FDF7CF08952091CE0622FD45C072
:100F80003091CF0630FD44C024FFF5CFEDCF209146
:100F9000CF0621FFF0CF8091CE0684FDE5CF87EE0E
:100FA00090E008952091CE0623FFE5CF24FDDCCF0D
:100FB000F6CF2091CE0623FD2EC03091CF0631FF13
:100FC000E3CF84EE90E008952091CE0625FFD3CFA5
:100FD000BECF2091CE0625FD21C02091CF0623FF54
:100FE000CACF89E390E008952091CE0626FFC3CFB3
:100FF0008AE290E008952091CE0626FFBCCF81E3DF
:1010000090E0089583EE90E0089582EE90E00895D8
:1010100080EE90E0089586EE90E0089585E390E0FC
:10102000AACF9091CE0692FF10C041E0282F2471E4
:10103000243009F040E031E0282F2871283009F0F1
:1010400030E0431711F02CE0822793FF10C041E0FD
:10105000282F2471243109F040E031E0282F287135
:10106000283109F030E0431711F02CE0822730914D
:10107000CF0630FF10C051E0282F2171213009F038
:1010800050E041E0282F2871283009F040E0541743
:1010900011F029E0822731FF10C041E0282F217193
:1010A000213109F040E031E0282F2871283109F082
:1010B00030E0431711F029E0822794FD877E0895E0
:1010C0001F93CF93DF930E946D07EC01811522E5FA
:1010D000920708F053C0811540E5940708F0DDC081
:1010E000803E9105F8F48D3C910508F0AEC0883A39
:1010F000910580F4853A910508F099C081309105F9
:1011000021F00497813A910550F4CE01DF91CF91FF
:101110001F910895885A91094B9708F48BC0C0E03D
:10112000D0E0F3CF811550E49507F8F4C11580E2C3
:10113000D80708F0CBC0C83ED10538F3CE019A9548
:1011400081159F4160F78D2F0E941108182FCE0145
:1011500099270E946D07212F30E0322F2227E901C5
:10116000CC27DF71C82BD92BD0CF99270E946D07D0
:10117000CC27DF70C82BD92BD06AC7CF803842E587
:101180009407C8F5803652E5950708F067C0C0346B
:1011900082E5D807B0F08C2F86958695877020E27F
:1011A000829FC0011124C37021E030E0A90102C078
:1011B000440F551FCA95E2F7EA01C82BD92BDC680A
:1011C000A4CFC03252E5D50708F041C08C2F8695D8
:1011D000869520E2829FC0011124C37021E030E097
:1011E000A90102C0440F551FCA95E2F7EA01C82BB6
:1011F000D92BDD688ACF803C52E5950760F48F716A
:10120000C03AD24508F03FC090E0982F8827EC0103
:10121000C46FD06A7ACF805C9245809708F07FCF08
:10122000DC2FCC27CC27DF71C06FD06A6ECFA4979C
:10123000D0646BCFC85AD0E0CC0FDD1FC557DE4F4E
:101240000990D881C02DD46460CFD0655ECFCF71B6
:10125000D0E0DC2FCC27C16FD06A57CF869586951A
:10126000877020E2829FC0011124C37021E030E02A
:10127000A90102C0440F551FCA95E2F7EA01C82B25
:10128000D92BDA6842CF0E941108C82FD0E0DC2F9A
:10129000CC27CC27DF71D06238CF8F710E94110824
:1012A00065E0D695C7956A95E1F7CF70D0E0DC2F61
:1012B000CC27282F30E084FF05C054E0220F331FD5
:1012C0005A95E1F7C22BD32BD0691FCF8D2F8F7189
:1012D0000E941108182FCE0199270E946D07212F17
:1012E00030E0322F222722273F71282B392BE901AA
:1012F000D2CFA0E0B0E0EFE7F9E00C94F8318C0138
:10130000E090CB06F090CC068091C9069091CA0679
:10131000E82AF92ACFE0D0E0CC24C394D12CC6012E
:101320000C2E02C0880F991F0A94E2F78E219F218C
:10133000892B49F4219798F7B12C8B2DCDB7DEB7C7
:10134000E9E00C941432BC2EB8018C2F0E944F0798
:101350000E946008019771F3F0CF0F931F93CF9312
:10136000FC01858100811181882391F0662381F041
:10137000C8010E947909C82F682FC8010E948F06F2
:10138000B8018C2F0E944F07CF911F910F910895A4
:10139000C8010E94C506C82FF3CFCF93DF93D82F83
:1013A000C92F0E9479096D2F7C2F0E944F070E9440
:1013B0006008DF91CF910895FC0184818823A1F01A
:1013C000808191810E94CD09282F92959F7096303F
:1013D00091F060F4925F9F70923030F481E0203F92
:1013E00079F030F4283E30F080E004C09A5FF3CF0B
:1013F000243FD1F7089581E0283E18F0213FF9CF2E
:101400000895089580E00895F894E82FE295EF702C
:10141000F0E041A18F7021E030E0B90102C0660F19
:10142000771F8A95E2F7CB01962F9095942391A38D
:1014300092A1892B82A3789408950895282F35EBE3
:101440002303C001112497FF04C080589109892FFC
:10145000089580589F4FFBCF8091AE0680FD14C049
:1014600081FD14C082FD16C08091AD06882381F0F5
:101470008E3180F420E5829FC00111246EE170E07E
:101480000E944032862F089584E1089588E20895ED
:1014900088E0089580E508958091AE0680FD17C02C
:1014A00081FD17C082FD19C08091AC06882399F098
:1014B000883298F428E0829FC001112468E270E02D
:1014C0000E9440326115710551F0862F089562E047
:1014D000FCCF64E0FACF61E0F8CF68E0F6CF81E0BE
:1014E0000895A0E0B0E0E7E7FAE00C94F731E901F5
:1014F000493708F048E7E42FF0E0E05AF74F611170
:101500000BC0E4919E2F8E2F8983E8839A83CDB7F9
:10151000DEB7EAE00C941332282F30E0062F10E0FB
:10152000F491EF2F86E0829F6001839FD00C1124FD
:10153000EE24EA94F12CC601B7010E94DB31220FA0
:10154000331F45E5469FC001479F900D1124281B7E
:10155000390B822F880F280FC701801B910BF89F32
:10156000A001F99F500D1124952F209F5001219F1C
:10157000B00C1124AB2CBB24D701AA19BB095D0107
:10158000FA9DD001FB9DB00D11248B2F5701A21A9B
:10159000B1089501209F5001219FB00C309FB00CE5
:1015A0001124AB2CBB24EA18FB08FE9D9001FF9D83
:1015B000300D112463307105C9F01CEFC11613E022
:1015C000D10650F46130710509F49ECF6230710587
:1015D00089F08E2FE32F98CF6430710571F066305B
:1015E0007105B9F3E52F9B2F8F2F8ECFEB2F852F12
:1015F0009F2F8ACF852F932F87CF832FE52FF8CF6B
:101600008091BE06823060F4817082608093BE0655
:101610008091C106893718F088E78093C106089544
:101620008635B0F381708465F1CFEBEBF6E0118283
:101630008281846082830895FA01882311F00995DC
:101640000895FB01FCCFA3E0B0E0E9E2FBE00C94DD
:10165000FF319C0180912B0290912C0282179307FD
:10166000A1F030932C0220932B02E0917206F091AE
:101670007306309751F083E089833B832A83068089
:10168000F781E02DCE01019609952396E2E00C94B6
:101690001B32A3E0B0E0EFE4FBE00C94FF319C01CF
:1016A0008091290290912A0282179307A1F030932A
:1016B0002A0220932902E0917206F0917306309776
:1016C00051F084E089833B832A830680F781E02DF3
:1016D000CE01019609952396E2E00C941B329C0101
:1016E00080914A018823C1F08091CE0687FF14C003
:1016F000862F869586958695603FF8F4F901E80F68
:10170000F11D677021E030E001C0220F6A95EAF711
:101710008281822B82830895F90132968FEF90E0C7
:101720004191641751F08F3F19F4411101C0892F85
:101730009F5F9630A9F78F3F09F40895280F311D58
:1017400087FD3A95F90162830895A4E0B0E0EBEAE1
:10175000FBE00C94FF318FB7F89420914A0630914A
:101760004B0640914C0650914D0629833A834B839A
:101770005C838FBF69817A818B819C812496E2E0B2
:101780000C941B3287E797E7909301088093000839
:1017900088E19AE00FB6F894A895809360000FBE98
:1017A00090936000FFCF809128020895FC019B0177
:1017B00080910602909107028617970740F0672BE9
:1017C00029F48091E8008E778093E800C90140E019
:1017D000009741F4411106C08091E80082FF2FC0BC
:1017E00080E0089520916A062223A9F12530A9F10D
:1017F0002091E80023FD2DC02091E80022FDECCFD0
:101800002091E80020FFE4CF3091F3002091F20016
:10181000009719F02830310558F041E028303105A3
:1018200009F040E02091E8002E772093E800D0CF27
:1018300041914093F10001972F5F3F4FE9CF809195
:101840006A06882341F0853041F08091E80083FFEB
:10185000C3CF81E0089582E0089583E008958091E8
:10186000000287FF13C08091E80082FF06C08091CC
:10187000E8008B778093E80004C080916A068111AC
:10188000F2CF089580916A068823D9F38091E80009
:1018900080FFF8CF8091E8008E77ECCF2091E400B4
:1018A0003091E50095E6A9018091EC0081708823D4
:1018B00031F08091E80080FF06C080E0089520911B
:1018C000E80022FD1BC080916A06882391F08530D4
:1018D00091F08091EB0085FD10C02091E4003091E3
:1018E000E5004217530701F391509111DCCF84E0DA
:1018F000089582E0089583E0089581E00895E8ED79
:10190000F0E080818E7F80831092E2001092DA00F6
:101910001092E100A0EEB0E08C9181608C93808108
:101920008F77808319BCA7EDB0E08C918E7F8C936C
:1019300080818F7E80831092FF010895FC01AC01AD
:101940004C5F5F4F8FEF91E32191822728E030E0D9
:1019500087FF0BC0880F89272150310921153105D8
:10196000B9F7E417F50781F70895880FF5CFAAE0D6
:10197000B0E0EDEBFCE00C94F93190910401981388
:1019800005C09091FA01903209F45DC08093040182
:1019900090E29093FA011092F901E82EF12C00E008
:1019A00010E0C801B7012AE030E040E050E00E94BA
:1019B000B13369837A838B839C838981805D08EF4F
:1019C00011E08093F80129833A834B835C8341E0E3
:1019D00050E05A8749878AE0C82ED12CE12CF12C9F
:1019E00069817A818B819C81A70196010E94B13324
:1019F0006D837E838F8398878D81805D2D813E816D
:101A00004F815885232B242B252B49F429813A819A
:101A10004B815C81232B242B252B09F480E2F801D8
:101A200082938F0169817A818B819C81A7019601C4
:101A30000E94B13329833A834B835C8329853A859D
:101A40002130310531F086EF91E02A96E8E00C94E0
:101A5000153252E059871A86C3CF982FE42FE270CF
:101A60009093E900891308C0762F242F50E0E111EC
:101A700011C091E0980FF4CF7091EC002091ED002F
:101A80005091F00021FD06C09F5F973049F7809389
:101A9000E90008953091EB003E7F3093EB003091E8
:101AA000ED003D7F3093ED003091EB0031603093DD
:101AB000EB007093EC002093ED005093F000209128
:101AC000EE0027FDE1CF0895A0E0B0E0EAE6FDE0FA
:101AD0000C94F931C8EDD0E088818F7E8883E7EDE2
:101AE000F0E080818160808384E082BF81E0809328
:101AF000FF0188818E7F888302EE10E0F80110825A
:101B00001092DA0081EEC82ED12CF6011082888165
:101B10008F77888388818068888388818F7D888398
:101B200019BC10926A061092FE011092EC031092FA
:101B3000FD0190EEE92EF12CF70180818B7F8083EF
:101B400088818160888342E060E080E00E942D0D02
:101B5000F60180818E7F8083F8018081816080839F
:101B6000808188608083F70180818E7F8083888177
:101B700080618883CDB7DEB7E8E00C9415328091A0
:101B80006B06811110C08091D80080618093D800CD
:101B90008AE18A95F1F700C08091D90080FF0AC0E0
:101BA00081E080936B0681E090916B06913009F0A3
:101BB00080E0089582E080936B060E947F0C109273
:101BC0006A06F1CFA4E0B0E0E8EEFDE00C94FF314E
:101BD0000E94BF0D882371F00E94A50B69837A8350
:101BE0008B839C8369817A818B819C812496E2E03E
:101BF0000C941B320E94A50B69837A838B839C8390
:101C000080916C0690916D06A0916E06B0916F0662
:101C100029813A814B815C81280F391F4A1F5B1F44
:101C200029833A834B835C83DDCF0E94BF0D8823D9
:101C300059F0E0917206F0917306309729F0019007
:101C4000F081E02D0995089580E0089540911401F8
:101C50008091BE0680FF24C02091130130E0C901AD
:101C6000880F991F820F931F825C9C4F539A6BB110
:101C7000677F7BB17860EFB7F89450E09A01220F4C
:101C8000331F240F351F280F391F28173907E9F490
:101C9000EFBF8FE594E00197F1F700C000000895D1
:101CA0008091150190911601282F30E0F901EE0F77
:101CB000FF1FE20FF31FE25CFC4F891768F61182E9
:101CC000108212828F5F3396F8CFDC014D91CD01E7
:101CD00058E07BB9000000C047FF6BB9440F00001B
:101CE00000C000C000C06BB900C05A9591F7CDCFBD
:101CF000EF92FF921F93CF93DF93EC0110E0EE245D
:101D0000EA94F12C60911701161770F00E94260ECC
:101D10009A818C8190FF25C08F5F8C83DF91CF915A
:101D20001F91FF90EF90089580911501810F9927E1
:101D3000991F9C01220F331F280F391F225C3C4F33
:101D400070E0C7010E944032962F8C814091C106FD
:101D50006091C006199F800D11240E94710A1F5FB7
:101D6000D1CF8150DACFA0E0B0E0E9EBFEE00C94F7
:101D7000F631EC01A09017018C819A8190FD0DC085
:101D8000BB24B39481110DC08FEF8A0DBB24B39493
:101D900080933D0381E08C8304C0BB24BA948823E4
:101DA000B9F3E12CF12CEA14B8F00E94260E9091C0
:101DB0003D03E1E0BE1254C0809117018150992388
:101DC00019F08FEF890F91E080933D039C83CDB78D
:101DD000DEB7EBE00C941232809115018E0D9F2D31
:101DE000911D8C01000F111F080F191F025C1C4F61
:101DF000F80111821082128234E0C32ED12C912C72
:101E000080913D03890D87333CF166E30E943232B5
:101E1000892F082E000C990B8E159F0591F4809147
:101E2000C1068C9DA0018D9D500D1124559547959F
:101E30005595479598016091C0068091BF060E9414
:101E4000710A9B0CF1E0CF1AD108C114D104C1F67C
:101E50008FEFE81AF80AA7CF87FFDBCF8A0DD9CF1B
:101E6000892F90E001966091170170E00E94403246
:101E7000982FAACF0F931F93CF93DF93EC018C8100
:101E8000811109C081E08C8310923C0392E0909311
:101E90000701809306011091150120911601812FF1
:101EA00090E0FC01EE0FFF1FE80FF91FE25CFC4F12
:101EB000821750F100E060911701061758F10E9457
:101EC000260E8091060120913C03280F20933C03AD
:101ED00090910701980F90930701191654F4022E60
:101EE000000C330B409117014150550B2417350757
:101EF00034F0819580930601813009F41C82DF91D2
:101F0000CF911F910F9108951182108212828F5FDD
:101F10003396CECF202F30E070E0C9010E944032CE
:101F2000810F90E040913C03042E000C550BFC0106
:101F3000EE0FFF1FE80FF91F24173507ACF0409193
:101F40000701042E000C550B421753076CF09F013C
:101F5000225C3C4F4091C1066091C0068091BF0653
:101F60000E94710A0F5FA7CFE25CFC4F11821082C2
:101F70001282F8CFAEE0B0E0E0ECFFE00C94FB3171
:101F80008D879E87AD85BE8514961C91212F30E0EC
:101F9000D9010E94D3339B01AC010E949E33698317
:101FA0007A838B839C83E0E2F0E0E11BF109A5E5F5
:101FB000B0E09B01AC010E949E3369877A878B87D2
:101FC0009C879F01DF010E945A329B01AC010E9455
:101FD000A9336D837E838F8398879B01AC018981B0
:101FE0009A81AB81BC81280F391F4A1F5B1F69850D
:101FF0007A858B859C850E94B133022F30E00A32AE
:1020000048F5A901440F551F420F531F5595479599
:10201000142F1095F12C85E5E82EE01A8091170118
:10202000F81630F10E94260EAD85BE8514969C915F
:1020300081E0992319F0903219F48FEF8093050114
:1020400080910501890FED85FE8584832E96E6E05B
:102050000C94173285E590E0821B930BAC01440F82
:10206000551F480F591F57FFD1CF4F5F5F4FCECF3E
:102070008E2DF1FC802F409115014F0D5527551FD6
:102080009A01220F331F240F351F225C3C4F412F32
:102090006091C0060E94710AF394C0CF0F931F9302
:1020A000CF93DF93EC0100E010E040911701842F03
:1020B00090E0081719076CF00E94260E8C8190E0C2
:1020C0000196817099278C83DF91CF911F910F9199
:1020D000089580911501800F912F911D9C01220F71
:1020E000331F280F391F225C3C4F9C816091C00632
:1020F0008091BF06469550E0041715074CF49923CC
:1021000049F04091C1060E94710A0F5F1F4FCDCF69
:102110009923B9F340E0F7CF9091BE0690FF11C02C
:102120009091150150911601292F30E0F901EE0F21
:10213000FF1FE20FF31FE25CFC4F951718F00E949F
:10214000260E08958183608342839F5F3396F5CF87
:10215000A3E0B0E0EEEAF0E10C94FD318C01809157
:102160003B0381110AC09E012F5F3F4F48E76FEF8D
:102170000E94710A8A8180933B03F8016481613077
:1021800049F06230D1F080913B0340E0662331F0AA
:1021900040E015C060913B0340E080E00E948C105D
:1021A000F801848190E0019663E070E00E94403283
:1021B00084832396E4E00C94193240913B0380E041
:1021C00060E0ECCFA3E0B0E0E8EEF0E10C94FF318A
:1021D0009091BE0690FF0AC09E012F5F3F4F0E9464
:1021E000710A4B8169818A810E948C102396E2E0FA
:1021F0000C941B32CF93DF93EC01EC81F0E0E55AB5
:10220000F84F4491EEEBF6E0628181810E94E2108A
:102210008C818F5F8C83DF91CF910895CF93DF9373
:10222000EC01EEEBF6E0438162818C810E94E210CA
:102230008C818F5F8C83DF91CF9108950F931F93D3
:10224000CF93DF93EB018A0190916A06943079F580
:102250008093E9008FEF9091E80095FD07C095ED20
:102260009A95F1F7000081508111F5CF8091E80037
:1022700085FF1DC00E944E0C811114C08091E800A2
:1022800085FD06C08091E8008E778093E800F2CF4C
:1022900088818093F100015011090115110511F099
:1022A0002196ECCF8091E8008E778093E800DF9153
:1022B000CF911F910F910895CF93DF93D82FC92FFE
:1022C00080914A01811113C048E050E06D2F792FB1
:1022D00081E00E941E1180E2ED2FFC2FA8E0B2E009
:1022E00001900D928A95E1F7DF91CF910895809149
:1022F000CE0687FD06C048E081E050E06D2F7C2FC0
:10230000E8CF40E282E0F9CFBC0146E050E082E055
:102310000E941E110895BC0143E050E082E00E943B
:102320001E110895A0E0B0E0E8E9F1E10C94F73166
:10233000F82EE92EB62EA72E8A018091FB01CC241F
:10234000C394D12C8A3018F48AE0C82ED12CC1E075
:10235000D0E06B2D7A2D8F2D9E2DF80109958111DE
:1023600016C02196CC16DD0694F0CC9FC001CD9FFF
:10237000900D900D112420E030E045E34A95F1F7EF
:1023800000002F5F3F4F28173907B9F7E2CFCDB7CD
:10239000DEB7EAE00C9413329091CF0692FB22272D
:1023A00020F9281779F080FB92F99093CF0660917D
:1023B000CE067091CF0684E090E00E94693382E0FF
:1023C0000E942F0708958091C6069091D006892B10
:1023D0008093C4019091C7069923D9F0892B8093EB
:1023E000C40180914A01882309F442C08091CE063D
:1023F00087FF3EC08DE190E026EC31E0F90140819D
:102400002F5F3F4F41119F5F8150C0F79111109294
:10241000C70640E250E064E776E084EC91E00E9479
:102420001133892B21F180E2E4ECF1E0A4E7B6E07E
:1024300001900D928A95E1F7E0917206F091730692
:102440003097A9F080914A01882359F08091CE06F7
:1024500087FF07C08091C4018093C50186E0809307
:10246000C4010280F381E02D84EC91E00995089588
:1024700085E0C1CF882339F09091C606892B8093DF
:10248000C6060E94E3110895882321F00E944707A1
:102490000E94E3110895A0E0B0E0E1E5F2E10C94C0
:1024A000F9318901D42FC52F6B017C010E94000BEB
:1024B000A8016D2F7C2F88E090E00E945D33980189
:1024C0004D2F5C2FB601C70100E20E948432622FBB
:1024D00084E290E00E944B33CDB7DEB7E8E00C9485
:1024E0001532EEEBF6E083E0808311828FEF82837A
:1024F00088E783831482ABEBB6E012968C91129737
:10250000836012968C93758123E030E04FEF58E79B
:1025100060E0868197810E944B1208958091C206E7
:10252000833018F48F5F8093C2062091BE063091ED
:10253000BF064091C0065091C1066091C2067091DD
:10254000C3068091C4069091C5060E944B1208955F
:102550008091C206882319F081508093C206209191
:10256000BE063091BF064091C0065091C1066091F1
:10257000C2067091C3068091C4069091C5060E9460
:102580004B120895A3E0B0E0E8ECF2E10C94F731CF
:10259000F82ED62EE42EB22E9091BE0690FF41C0AA
:1025A0003091BF06381308C08091C006861304C05E
:1025B0008091C106841729F08091BD0682608093C6
:1025C000BD06E92FE695AE2FB0E0A45BBE4F8C911F
:1025D0008093BB069E7F923041F59E012F5F3F4F57
:1025E0004E2D6D2D8F2D0E94710A4B8169818A813C
:1025F0000E948C103F2D3093BF06D092C006E0920F
:10260000C106BB2071F02091BE066091C206709198
:10261000C3064D2D5E2D8091C4069091C5060E9483
:102620004B122396EAE00C941332823019F4E090B6
:10263000C106E0CF8630F9F28930E9F28931D1F66E
:10264000E9518E2F8170A82EE695F0E0E55AF74FFC
:10265000E491C12C0E2F10E060911701C61618F0FE
:102660000E94260EC7CF2C2D30E0C09EC001C19E17
:10267000900D112470E00E94DB318F2DA11013C04A
:10268000860F90911501A901490F511D9A01220F42
:10269000331F240F351F225C3C4F4E2D6D2D0E94A1
:1026A000710AC394D9CF861BECCFEEEBF6E08181A3
:1026B00021E043816281865F0E94C2120895EEEBA1
:1026C000F6E0818121E0438162818A500E94C2123A
:1026D0000895EEEBF6E0628121E1620F08F46FEFFE
:1026E00021E0438181810E94C2120895EEEBF6E061
:1026F000628121E1621B08F460E021E04381818175
:102700000E94C2120895EEEBF6E0438121E1420FF0
:1027100008F44FEF21E0628181810E94C212089586
:10272000EEEBF6E0438121E1421B08F440E021E0BA
:10273000628181810E94C2120895A8E0B0E0E3EABC
:10274000F3E10C94FF3166EE7EEF80E090E00E94B2
:10275000693360E082E090E00E944B3360E083E008
:1027600090E00E944B331092CA061092C90660E0B6
:1027700074E184E090E00E94693360E086E090E0DC
:102780000E944B336FEF87E090E00E944B3340E0B4
:1027900050E0BA0188E090E00E945D3360E084E29E
:1027A00090E00E944B3360E087E190E00E944B3361
:1027B00060E08CE090E00E944B3360E08DE090E0C0
:1027C0000E944B3319821A821B821C821D821E8238
:1027D0001F82188648E050E068E170E0CE01019663
:1027E0000E943B3340E050E0BA0180E290E00E945A
:1027F0005D3340E050E0BA018FE090E00E945D332D
:1028000040E050E0BA0183E190E00E945D332896F9
:10281000E2E00C941B32A8E0B0E0E1E1F4E10C94BA
:10282000FE314091460650914706609148067091EE
:1028300049062FB7F89480914A0690914B06A091D3
:102840004C06B0914D062FBF841B950BA60BB70B02
:1028500011E084369105A105B10578F10E94E20DE1
:10286000DC01CB010296A11DB11D89839A83AB8344
:10287000BC8380913B0190913C01825B994F2091F8
:102880003A01422F50E0253010F044E050E0BE0104
:102890006F5F7F4F0E941E3382E090E00E9466319E
:1028A000182F882351F00E94A50B60934606709361
:1028B00047068093480690934906812F2896E3E0C7
:1028C0000C941A32EF92FF921F93CF93DF9300D0B4
:1028D00000D00F92CDB7DEB77B0180E090E00E9480
:1028E0006631182F81111AC010E080916206909114
:1028F0006306A0916406B0916506F7018083918319
:10290000A283B383812F0F900F900F900F900F90A1
:10291000DF91CF911F91FF90EF90089580912D014D
:10292000482F50E0882311F041E050E060912E01E3
:1029300070912F01625B794FCE0105960E941E3384
:10294000409166065091670660916806709169062D
:102950002FB7F89480914A0690914B06A0914C06AF
:10296000B0914D062FBF841B950BA60BB70B843679
:102970009105A105B10538F48FE496E00E949E0C04
:102980009D818917B9F181E090E00E94663188232A
:1029900009F4AACF80913501482F50E0853010F01E
:1029A00044E050E06091360170913701625B794FED
:1029B000CE0101960E941E338FE496E00E949E0C89
:1029C0009D81891391CF0E94A50B60936606709339
:1029D0006706809368069093690689819A81AB8126
:1029E000BC818093620690936306A0936406B093C3
:1029F00065067BCF80914F0690915006A0915106BD
:102A0000B091520689839A83AB83BC83E6CFCF9281
:102A1000DF92EF92FF92CF93DF93CDB7DEB72B9784
:102A20000FB6F894DEBF0FBECDBF88E0EEEBF6E048
:102A30009E012F5F3F4FD90101900D928A95E1F7DA
:102A40004091BB069091BC068091BD0649879A874C
:102A50008B87C0904206D0904306E0904406F090E9
:102A600045069FB7F89440914A0650914B066091F5
:102A70004C0670914D069FBF4C195D096E097F0988
:102A8000E22F443651056105710510F4882311F1D8
:102A90008091430190914401825B994F20914201C2
:102AA000422F50E02C3010F04BE050E06E2F732F8F
:102AB0000E941E3383E090E00E946631882369F013
:102AC0000E94A50B609342067093430680934406D0
:102AD000909345061092BD0681E02B960FB6F894B0
:102AE000DEBF0FBECDBFDF91CF91FF90EF90DF90A3
:102AF000CF900895A0E0B0E0E0E8F5E10C94F1316A
:102B0000FC016280448081E08483EBE5F7E074900F
:102B1000EAEDF7E0E491C091C106C695C158D0E056
:102B2000CC0FDD1FCD2FDD27812C75E0972EAA2439
:102B3000AA94B12C55245A94E719EE2EF12C8091C9
:102B40001701881638F00E94260ECDB7DEB7E0E1F7
:102B50000C940D32C82CD12C82E0861568F09C9C18
:102B6000F0019D9CF00D1124E35DFD4F8091BF06A7
:102B700080838091C0068183411023C09C9CF0011A
:102B80009D9CF00D1124E35DFD4F13821282809114
:102B900015018C0D9D2D911D9C01220F331F280FB7
:102BA000391F225C3C4F9C9CF0019D9CF00D112430
:102BB000E35DFD4F4281618180810E94710A8394AF
:102BC000BECF9C9C80019D9C100D1124035D1D4F68
:102BD000F80183818823F1F081508383589EC001DE
:102BE0001124648170E00E94DB31FB01FF27E55A6C
:102BF000F84F8491E82FE7195E9EC0011124B701B8
:102C00000E94DB318091C106689FB0011124F80158
:102C10007283BDCF0E94EB32B5010E9440328C1707
:102C20009D070CF0B4CFF2E0F61598F40E94EB3259
:102C3000B5010E944032F80180830E94EB3220915E
:102C4000C0062695622F70E00E944032280FF801DE
:102C500021839C9CF0019D9CF00D1124E35DFD4FB0
:102C600012828091C106893C58F088EC9C9CF0014E
:102C70009D9CF00D1124E35DFD4F8483838387CFFA
:102C80008431A0F784E1F2CFA0E0B0E0EAE4F6E11D
:102C90000C94F9317C016B0164E670E088E70E94D6
:102CA000272FEC0197FD12C000E010E0F701E00FC4
:102CB000F11F849164E670E00E94962FEC010F5F93
:102CC0001F4FC016D10611F097FFF0CF0E941830A9
:102CD00081E0CD2B09F080E0CDB7DEB7E8E00C94C1
:102CE000153280913C06882369F08091390688234B
:102CF00049F062E070E08EEA90E00E944416811193
:102D0000109239060895A4E0B0E0E9E8F6E10C94E9
:102D1000FF3180913C068823F9F00E94A50BDC016D
:102D2000CB01805A9541AF4FBF4F809335069093AA
:102D30003606A0933706B093380680913906811184
:102D40000BC062E070E08CEA90E00E944416882399
:102D500019F081E0809339062496E2E00C941B324E
:102D6000CF93DF93682F81E06A3019F06D3031F432
:102D700080E00E943017DF91CF9108958091070481
:102D80009091080426E0FC01A0EFB1E001900D92C3
:102D90002A95E1F7603E08F458C026E0FC01119244
:102DA0002A95E9F7C0910704D091080446E050E065
:102DB000BE0180EF91E00E9411339E012153344007
:102DC000892B41F1C90145E0969587954A95E1F730
:102DD00041E050E0BA0102C0660F771F8A95E2F722
:102DE000CB016091330670913406862B972BB90185
:102DF0006B5F7F4FE5E076956795EA95E1F702C056
:102E0000440F551F6A95E2F7842B952B9093340657
:102E1000809333062A5F3F4F40910904642F70E08E
:102E2000C9010E94DB31481B463010F4240F311DCC
:102E3000211572E0370710F020E030E02F5C3B4FA7
:102E4000309308042093070496CFF6E06F9FB001FB
:102E5000112460557F4F46E050E00E94FB32A2CF24
:102E6000CF93382FE0910704F0910804E153F44028
:102E700020910904622F70E0CF010E94DB31281BF2
:102E8000822F332361F066E00E942632C82FC150A2
:102E900010F4CF91089580E20E94B016F8CF9F0100
:102EA000280F311D2115324018F080E0E0E0F0E0FD
:102EB0008E0F9F2F911D8F5C9B4F909308048093E2
:102EC0000704E7CF0F931F93CF93DF93EC01FC012F
:102ED00001900020E9F78F0101501109C017D107B7
:102EE00028F0DF91CF911F910F91089589910E9451
:102EF000B016F4CFCF93DF93EC01FE0184918111E2
:102F000003C0DF91CF9108950E94B0162196F5CFAE
:102F10000E947A1781E00E94301708951F921FB611
:102F20001F9211248F939F93AF93BF938091EB03D4
:102F3000811113C080914A0690914B06A0914C06D6
:102F4000B0914D064196A11DB11D80934A06909304
:102F50004B06A0934C06B0934D06BF91AF919F9145
:102F60008F911F901FBE1F9018952FB7F8948091D6
:102F70004A0690914B06A0914C06B0914D062FBF8A
:102F800008950E94BF0D882319F00E94B517089577
:102F90000E94E20DCB0108956091BE06669570E037
:102FA0004BE050E088E091E00E940433892B19F453
:102FB00081E08093BC060E94C11790930204809325
:102FC00001048091BD0684608093BD0608959091B0
:102FD000BE0690FF3EC08823E9F18B32E8F58F777B
:102FE000282F220F8091BE068170282B2093BE06C9
:102FF0008091BD0681608093BD06662381F030918B
:10300000BF064091C0065091C1066091C206709102
:10301000C3068091C4069091C5060E944B12609130
:10302000BE06669570E04BE050E088E091E00E94BB
:103030000433892B99F00E94150B81E080930404DE
:1030400020E04091C1066091C0068091BF060E94B9
:10305000C212089581E0C4CF8AE2C2CF0E94CC1789
:10306000ECCF8091BE0686958F5F8B3208F081E0B1
:1030700061E00E94E71708959091BE0696958FEF44
:10308000890F913009F48AE261E00E94E717089500
:103090009091BE0690FF08C09695981728F0961755
:1030A00018F40E943118089561E00E94E71708950E
:1030B0000E94B5172091B1063091B206232B22232E
:1030C00021F080933F06909340062091B306309103
:1030D000B406232B222321F080933D0690933E06D5
:1030E000E0917206F0917306309749F082E0809388
:1030F000AF060480F581E02D8FEA96E009950895EA
:10310000662309F44BC0E3E3E80FE33150F4F0E049
:10311000EC51FC4C0C9454320E942C0A8195809303
:10312000B2060E94581808950E942C0AF8CF0E94F7
:103130002C0A81958093B106F4CF0E942C0AFACF15
:103140000E944C0A8093B306ECCF0E944C0A8195F2
:10315000F9CF0E944C0A81958093B406E2CF0E9479
:103160004C0AFACF815D990B21E030E001C0220FBB
:103170008A95EAF78091B006822B8093B006D1CF72
:103180008091AE0681608093AE06CBCF8091AE0673
:103190008260F9CF8091AE068460F5CF4091B10690
:1031A0008D3C59F48091B20687FF0DC01092B20693
:1031B000442359F41092AD0608C08E3C81F48091EE
:1031C000B20618169CF3442381F08091B3069091C7
:1031D000B406892B8111A5CF1092AC06A2CF8F3CEB
:1031E00041F447FFF0CF1092B1068091B2068823D8
:1031F000E0CF803D19F41416B4F3E5CF9091B306F7
:10320000893D29F41916FCF61092B306DCCF8A3DED
:1032100019F497FFD8CFF8CF9091B4068B3D29F4DD
:1032200097FFD1CF1092B406CECF8C3D19F419166A
:10323000CCF3C9CF9FE2980F983090F4815D990B41
:1032400021E030E0B90102C0660F771F8A95E2F7EE
:10325000CB0180959091B00689238093B006B3CFBF
:103260008D3D31F48091AE068E7F8093AE06ABCF5C
:103270008E3D21F48091AE068D7FF7CF8F3D09F012
:10328000A2CF8091AE068B7FF0CFCF93C82F88233B
:10329000C1F18CEF8C0F813AB0F580914A018823FF
:1032A00001F18091CE0687FF1CC0EC2FE695E695D4
:1032B000E695F0E0EC53FE4F828190E04C2F477092
:1032C00021E030E002C0220F331F4A95E2F782234B
:1032D0009323892B79F08C2F0E9402070E94E3111F
:1032E00009C0E6ECF1E08191C817A9F321E0EC3CBC
:1032F000F207C9F76C2F84EC91E00E946F0B0E94DB
:10330000E311CF91089580E28C0F883068F4C77084
:1033100081E090E001C0880FCA95EAF7C091C60627
:10332000C82BC093C606EBCF8BE58C0F833038F4E7
:103330002C2F2452330BC9010E94230BE2CFE8E566
:10334000EC0FEB3150F4F0E0EE0FFF1FE557FE4FAE
:10335000808191810E94490BD4CF83E38C0F83310C
:1033600080F661E08C2F0E948018CBCF882381F1FA
:103370009CEF980F913A28F40E9402070E94E311F3
:10338000089590E2980F983050F4877091E001C052
:10339000990F8A95EAF7892F0E944707EFCF9BE59F
:1033A000980F933028F480E090E00E94230B08955A
:1033B00098E5980F9B3128F480E090E00E94490B3B
:1033C000089593E3980F933118F460E00E948018F9
:1033D00008950F931F93CF93C82F00E010E0893317
:1033E00011F400E510E08C2F0E944519011511051C
:1033F00039F48C2F0E94B619CF911F910F91089527
:103400008FE99FE00197F1F700C00000015011091A
:10341000EDCF1092C60680914A01E6ECF1E08823D8
:1034200029F18091CE0687FF21C08EE1DF011D9238
:103430008A95E9F780E090E00E94230B80E090E01D
:103440000E94490B1092D0060E94E31186E0EFEA39
:10345000F6E0DF011D928A95E9F71092AD06109211
:10346000AC061092AE060E945818089586E0DECF92
:103470000E94091A2FEF84E39CE021508040904085
:10348000E1F700C0000088E19AE00FB6F894A89533
:10349000809360000FBE90936000FFCFAAE2B0E07F
:1034A000E4E5FAE10C94FE3180E092E0FC01019643
:1034B0002091F100208322E088309207B9F78091B3
:1034C0000102893009F456C0C8F4823009F4B2C050
:1034D000833009F481C0813071F18091E80083FF6D
:1034E000E6C080910002909101029A3008F0DFC09E
:1034F000E92FF0E0E950FC4C0C9454328A3009F486
:1035000088C08B3051F780910002813231F7809171
:10351000040290910502892B01F78091E800877FD2
:103520008093E8000E942F0C8091020280934A0150
:103530000E94091AD2CF80910002813A71F68091DF
:10354000E800877F8093E800809104029091050253
:10355000892B61F060E080E090E070E00E94D60B83
:103560008091E8008B778093E800B7CF60E288E035
:1035700092E0F3CF80910002813209F0AECF8091CA
:10358000040290910502029708F0A7CF8091E8000D
:10359000877F8093E8008091E80082FF18C09091B7
:1035A000F3008091F200029731F48091F1008130B4
:1035B00011F0863021F48091F100809328028091EF
:1035C000E8008B778093E8000E942F0C86CF8091D3
:1035D0006A068111E0CF81CF80910002813A09F023
:1035E0007CCF8091040290910502892B09F075CF60
:1035F0008091E800877F8093E8008091E80080FF59
:10360000FCCF80914A018093F1008091E8008E7791
:10361000D9CF80910002813209F05FCF8091E8001C
:10362000877F8093E8000E942F0C80910302809393
:10363000FC0153CF80910002813A09F04ECF809176
:10364000E800877F8093E8008091E80080FFFCCF4E
:103650008091FC01D8CF803889F0823841F5809183
:1036600004028F70873018F58093E9008091EB0099
:1036700085FB882780F91092E90006C08091FD0142
:103680009091EC03911182609091E800977F909364
:10369000E8008093F1001092F1008091E8008E77AD
:1036A00023C0811116C080910202813011F18091F6
:1036B000E80083FF0AC08091E800877F8093E800DC
:1036C0008091EB0080628093EB00AA96E3E00C947B
:1036D0001A32823061F780910202882389F01092B9
:1036E000E9008091E800877F8093E8000E942F0C1A
:1036F000DECF81E0933009F080E08093EC03EFCFE0
:10370000809104028F702FEF280F263080F680936F
:10371000E9002091EB0020FFE2CF933031F480915B
:10372000EB0080628093EB00DACF9091EB00906128
:103730009093EB0021E030E0A90102C0440F551F37
:103740008A95E2F74093EA001092EA008091EB003C
:103750008860E8CF8111ABCF109102021F77809172
:10376000E3008078812B8093E3008091E800877FDD
:103770008093E8000E942F0C8091E80080FFFCCF2E
:103780008091E30080688093E30083E0111101C021
:1037900082E080936A068BCF8058823008F087CF12
:1037A00040910202509103024C3D83E0580799F585
:1037B00083E08A838AE289834FB7F894DE01139607
:1037C00020E03EE051E2E32FF0E050935700849177
:1037D00020FF03C082958F703F5F8F708A30C8F0E2
:1037E000895C90E08D939D932F5F243161F74FBFEB
:1037F0008091E800877F8093E8006AE270E0CE0164
:1038000001960E94D60B8091E8008B778093E800A8
:103810004ECF805DE6CF2091040230910502852FC6
:1038200099278330910509F160F48130910509F4FD
:1038300072C0029709F03BCF8BE390E0EAEEF6E02E
:1038400029C08132910509F45AC0829709F02FCF1F
:103850002115310509F469C02130310509F027CF60
:1038600086EB90E0E0EFF5E015C0CA019927413002
:10387000B1F18230910509F43AC0892B09F017CFD4
:10388000E7E5F7E0E4918E2F90E0E7E5F7E00097B9
:1038900009F40DCF2091E800277F2093E8002091C4
:1038A0000602309107028217930708F49C0140E05A
:1038B0002115310509F03EC041113CC08091E8005E
:1038C00082FDA1CF80916A06882309F49CCF8530C0
:1038D00009F499CF8091E80083FFF0CF94CFE5E41D
:1038E000F7E0E4918E2F90E0E5E4F7E0D0CFE7E356
:1038F000F7E0E4918E2F90E0E7E3F7E0C8CF2115E1
:10390000310571F02130310509F0D1CE89E090E028
:10391000E5E1F7E0BFCF82E190E0E5E2F7E0BACF82
:1039200089E090E0ECEFF6E0B5CF84E490E0E6EAE1
:10393000F6E0B0CF80916A06882309F464CF853021
:1039400009F461CF8091E80083FD5DCF8091E800AC
:1039500082FDB4CF8091E80080FFAACF9091F30060
:103960008091F2002115310519F08830910550F051
:1039700041E0089709F040E08091E8008E7780935D
:10398000E80096CF44914093F100319621503109DF
:103990000196E8CF803809F08ACE8091E800877FD1
:1039A0008093E8008091FE018093F10076CE811132
:1039B0007ECE10910202123008F079CE8091E8009C
:1039C000877F8093E8001093FE010E942F0C112343
:1039D00081F084E080936A0642E061EC81E00E941D
:1039E0002D0D42E261EC82E00E942D0D80916A066D
:1039F0005ECE8091E30087FDECCF81E0EBCF9C01B0
:103A00004FB7F89480914A0690914B06A0914C06CE
:103A1000B0914D064FBF821B930B08950F931F93D8
:103A2000CF93DF93C62FD42F122F8823A9F0609352
:103A3000B9060E94B5179093EF018093EE01C7700D
:103A400081E001C0880FCA95EAF70E943A12DF911F
:103A5000CF911F910F9108958091B906681332C0DC
:103A60008091EE019091EF010E94FF1C883C91052E
:103A700048F5CD130CC0812F0E94E919D77081E061
:103A800001C0880FDA95EAF70E944412E0CFC770B0
:103A900001E0802F01C0880FCA95EAF70E94441206
:103AA00080E28D0F883050F48D2F877001C0000F99
:103AB0008A95EAF7802F0E943A12DDCF812F0E946B
:103AC000E919C5CFC77081E001C0880FCA95EAF730
:103AD000DBCFA0E0B0E0EFE6FDE10C94F8317C0133
:103AE000FC018481882309F498C061E0C7010E9429
:103AF000AD09EC01F7018581882309F479C090E2D2
:103B000090934B01D093B806C093B7069E013052F4
:103B10002115304240F5F7019681903128F0FE01E1
:103B2000FF27CD3308F454C01092B906CE01905748
:103B3000839708F42EC1C631FCE7DF0709F0F9C40A
:103B40008091C6068A7A91E0811101C090E090933D
:103B5000BA0669E2811165E384EC91E00E946F0B83
:103B60000E94E3114AC09E0130542115304198F261
:103B70009E013A9521153F4120F4FE01FF27CC33E9
:103B8000D1CF9E01205A32452032310568F2FE0124
:103B9000CD33D105E8F0C434EEE7DE0709F0B2C456
:103BA00004E71CE0F8018491882339F1813009F0A1
:103BB00074C0E8012196FE018491813099F5219627
:103BC000FE0184910E94E9198E010F5F1F4FEACF19
:103BD000E857F44FE491E0934B01F7019181909302
:103BE000B60690819093B506C434FEE7DF07D6CFC2
:103BF000C4342EE7D20709F07BC48091CD068770CC
:103C0000882359F0F7018581882339F08091CF0608
:103C100082FF03C082E00E942F07CDB7DEB7E9E044
:103C20000C941432823039F4E8012296FE0184911A
:103C30000E944519C9CF833039F4E8012296FE016C
:103C400084910E94B619C0CF843009F0BDCFE8013D
:103C50002296FE01849120E030E04AE0FE01319698
:103C60008053990B8A30910568F02115310509F4CC
:103C7000ABCF8FE99FE00197F1F700C00000215022
:103C80003109F3CF429FB001439F700D11249C0175
:103C9000260F371F8491EF01E1CFE82FF0E0EC50C1
:103CA000F44FB490282F26952695269530E0F901FB
:103CB000EC51F44F94918770F901EC52F44FC49099
:103CC000D12C082E02C0D594C7940A94E2F7E1E003
:103CD000CE22DD24F901EC53F44FC491D0E0082E3C
:103CE00002C0D595C7950A94E2F7C170DD27E92F88
:103CF000F0E002C0F595E7958A95E2F7E0FF0BC08A
:103D000081EE0E944519C114D10491F48B2D0E94BB
:103D1000E91981EE1EC0C114D104A1F48B2D0E94BB
:103D2000E919CD2B19F08CE20E94E919E8014CCF7A
:103D300086EE0E9445198B2D0E94E91986EE0E949D
:103D4000B619E7CF86EE0E9445198B2D0E94E9191E
:103D500086EE0E94B619E5CF26E241EE61EE0E94A2
:103D60000E1D4BCF27E245EE65EEF9CF26E241EE80
:103D700060EEF5CF27E245EE64EEF1CF26E241EEAC
:103D800062EEEDCF27E245EE66EEE9CF28E241E0B4
:103D9000EBCF84E090E00E9435339093CF06809380
:103DA000CE06FE01E150F047E232F10520F4EF5F6C
:103DB000FB4C0C9454328091CE0681608093CE06E9
:103DC0006091CE067091CF0684E090E00E94693346
:103DD0000E94091A12CF8091CF0688608093CF0687
:103DE000EFCF8091CE068260E9CF8091CE068460CD
:103DF000E5CF8091CE068860E1CF8091CF068160CB
:103E0000EDCF8091CF068260E9CF8091CE068061B0
:103E1000D5CF8091CE068062D1CF8091CE068064CE
:103E2000CDCF0E94091A8091CE068068C7CF8091BD
:103E3000CE068C60C3CF8091CF068360CFCF8091B8
:103E4000CE068E7FBBCF8091CF06877FC7CF809174
:103E5000CE068D7FB3CF8091CE068B7FAFCF809182
:103E6000CE06877FABCF8091CF068E7FB7CF809174
:103E7000CF068D7FB3CF8091CE068F7E9FCF80916E
:103E8000CE068F7D9BCF8091CE068F7B97CF0E94F1
:103E9000091A8091CE068F7791CF8091CE06837FCD
:103EA0008DCF8091CF068C7F99CF8091CE0682FBFB
:103EB000992790F921E0922790FB82F990FB83F9F2
:103EC0007DCF8091CF06982F909591708E7F892B12
:103ED00090FB81F983CF9091CE06892F8F7B96FF3F
:103EE00080646CCF0E94091A9091CE06892F97FBAF
:103EF00087F9805863CF61E08EE090E00E944B33F9
:103F00005FCF60E0F9CF9091CE06892F8F7E94FF2E
:103F1000806154CF9091CE06892F8E7F90FF816073
:103F20004DCF9091CF06892F877F93FF886056CF22
:103F300085E3DBC28091C6068272FE01E052F8473B
:103F4000E531F10508F008C3ED5DFB4C0C945432EB
:103F50008091BE0680FF1EC0282F2E7F2093BE06B4
:103F60003091BF064091C0065091C1066091C206D3
:103F70007091C3068091C4069091C5060E944B12B1
:103F80000E94150B8091BD0681608093BD060E9442
:103F9000260E33CE81608093BE0661E086950E9436
:103FA000E7172BCE4CE358E161E378E10E941C0B4C
:103FB00024CE41E358E16CE378E1F8CF4FE553E1DB
:103FC00065E573E1F3CF45E553E16FE573E1EECFCE
:103FD00046E753E169E673E1E9CF49E653E166E775
:103FE00073E1E4CF40E953E163E873E1DFCF43E8F5
:103FF00053E160E973E1DACF48EA52E16EE872E139
:10400000D5CF4EE852E168EA72E1D0CF61E081E0BD
:10401000C6CF65E082E00E944818EFCD68E086E0F8
:10402000FACF6EE089E0F7CF64E18FE0F4CF67E18B
:1040300085E1F1CF61E088E1B2CF62E289E1EBCFC7
:1040400061E083E2ACCF6AE285E2E5CFCB35FCE705
:10405000DF0729F1CC35DC4709F07EC28091CF061D
:1040600082FB882780F991E089270E94CC1174C2D5
:104070000E94091A3FEF44E38CE0315040408040F9
:10408000E1F700C000000E94C20B6FEF7FEF80E0FD
:1040900090E00E9469330E94381A81E0E6CF80E008
:1040A000E4CFC8010E94C506C82F65C21C2F1F702F
:1040B000C03110F01295107FDD20B9F0112369F0A6
:1040C00080E28D0F883010F0D11109C08091C606B2
:1040D000812B8093C6060E94E3118D2F40C08091F2
:1040E000D006812B8093D006F6CF8D2F0E94B61973
:1040F0001123E9F180E28D0F883010F0D11104C056
:10410000812F0E94470706C010958091D006812319
:104110008093D0060E94E3112AC01C2F1F70C07F1D
:10412000C03211F01295107FDD2349F0D13009F42F
:104130006BC0DD2009F477C0CC20C9F1CECF8091CF
:10414000CF0682FD30C0DD2069F0112339F0809167
:10415000C606812B8093C6060E94E31180E00E9470
:10416000451905C080E00E94B6191111C9CF00237E
:10417000A9F08091CD0680FD11C0F70115828695CA
:10418000869586950E946D06C7010E94691D8091E3
:10419000CD068695869586950E947D0660E0C701CE
:1041A0000E94AD093ACDDD2099F0C11004C0812FE5
:1041B0000E943A12DCCFF1E0CF12D9CF8091C7062E
:1041C000912F9823191799F2812B8093C706CFCF8F
:1041D000C110CDCF812F0E9444129091C706812F2C
:1041E0008923882329F0812F809589238093C7060E
:1041F0008091C806912F9823992309F4B8CF109580
:1042000018231093C806B3CFDD2029F025E02C1524
:1042100008F4ADCFCCCF34E03C1508F4A8CF812F03
:104220000E944412A4CFCC20D1F3D93349F44FEFEC
:1042300087EE93E0415080409040E1F700C00000DD
:104240008D2F0E94B61993CF8C2F869586958370FB
:10425000882369F0813009F08ACF8D2F9C2F9370CD
:10426000D11002C080E090E00E94490B80CF8D2FDA
:104270009C2F9370D11002C080E090E00E94230B2D
:1042800076CF6D2D8D2F0E94801871CF8C2F83706B
:10429000811142C0D1102FC04D2F429546954770D5
:1042A000440F440F2D2F2F7030E0042E02C0220F38
:1042B000331F0A94E2F780E090E0D4FF09C08FE05A
:1042C00090E002C0880F991F4A95E2F7809590957B
:1042D000C695C695C370C230B1F0C33089F0409125
:1042E000C9065091CA06C13049F0822B932B842312
:1042F00095230E945B060E94150E39CF242B352B87
:10430000822B932BF6CF822B932B2091C9063091D1
:10431000CA0682279327EDCFDD2091F1C0FFEBCFB6
:104320004D2F429546954770440F440F2D2F2F7007
:1043300030E0042E02C0220F331F0A94E2F780E01F
:1043400090E0D4FF09C08FE090E002C0880F991F71
:104350004A95E2F780959095C695C695C370C23090
:10436000C1F0C33099F04091CB065091CC06C130DA
:1043700059F0822B932B842395230E946006BBCF98
:10438000823008F4B8CFCCCF242B352B822B932B43
:10439000F4CF822B932B2091CB063091CC06822731
:1043A0009327EBCFCF70DD2039F08C2F0E946D0664
:1043B0008D2F0E943A129FCF8D2F0E9444128C2F76
:1043C0000E947D0698CFD23FA1F178F4D03FC1F092
:1043D000D13F09F447C0DD2009F46BC0CC2009F4BB
:1043E00065C08D2F0E94451986CFD33F49F1D43F38
:1043F000A9F1D110F3CFC1106AC08C2F8F71E0CF1B
:10440000DD20A1F0E4E0EC1508F475CFCF7181E078
:1044100090E09C0102C0220F331FCA95E2F7809101
:10442000CB069091CC0682279327A7CF35E0C31601
:10443000EBCF8C2F8F71D110C3CF0E946D065BCF55
:1044400080E090E0DD2009F498CFCF7181E090E02A
:1044500002C0880F991FCA95E2F78FCF8091CF06CF
:1044600082FD06C08C2F8F71DD2009F4A9CFE5CF26
:10447000DD2089F0CF718C2F0E946D068091CF06D0
:1044800082FF07C048E0C49FC0011124836080936D
:10449000CD068C2FD2CF81E00E942F0781E08C15B2
:1044A00008F029CF82E00E942F0725CF8C2F8F7133
:1044B000C4CFCC2009F4A1CFD93349F49FEFE7EE64
:1044C000F3E09150E040F040E1F700C000008D2F94
:1044D0000E94B61910CFC631FCE7DF0709F02ACDDC
:1044E0008091BA06811124CD89E20E94020738CB5F
:1044F000FE01E851FC47E730F10568F7E85CFB4C4A
:104500000C945432FE01E851FC47E730F105B0F35A
:104510001092B906CE019057839708F43ACCC63171
:104520002CE7D20709F40CCBCA353CE7D30709F4D2
:10453000B4CDCB354CE7D40708F088CDC1308CE73B
:10454000D80709F4A8CDC3309CE7D90709F49DCD5D
:10455000C115DC4709F48CCDF701858100811181FB
:10456000882309F49ECDC8010E947909C82F682FBD
:10457000C8010E948F06B8018C2F0E944F070E942D
:104580006008D82FC92FF701D580C680C2948FE06C
:10459000C8228091CD0687708823E9F00D2DDD209B
:1045A000D9F0892F807F803451F080E28D0F8830E0
:1045B00090F0C11004C0892F807E803261F080911C
:1045C000CF0682FF08C082E00E942F078091CD06AF
:1045D000877001E0811100E0EC2FE295EF70C03CA4
:1045E00008F0C5CDF0E0E15CFB4C0C9454328091B6
:1045F0001107803178F480911007882359F0E091F9
:10460000D2062091D10630910C0740910B0757E05C
:104610002E1301C008956E2F70E05E9FF0011124EB
:10462000DF01AD52B94F14968C911497882361F134
:1046300011968C911197831327C08C91841324C0F9
:1046400015968C91159781111FC012968D919C9192
:10465000A0910D07B0910E078A1B9B0B883C91051A
:1046600098F4809111078F70806180931107E75251
:10467000F94F80818F70806180838BE097E00E948A
:10468000691D0E94F8060895FB013196E770C0CFBE
:10469000ADE0B0E0EEE4F3E20C94F5318C0186E09D
:1046A000F801DE01189601900D928A95E1F7D80184
:1046B0009C911596DC9015971296AD90BC9013972F
:1046C0001496FC9014978BE0882E87E0982EC0906B
:1046D0000F07C11020C0FF20D9F0DD2009F441C12F
:1046E000C8010E94DC09882309F43BC187E0F80176
:1046F000D40101900D928A95E1F7B1E0FB1206C05A
:1047000080910B0790910C070E94CD090E94F7221F
:10471000FF24F39432C0E090100720910D073091F0
:104720000E07F501E21BF30BEE2009F4FCC0E83C98
:10473000F10508F0DAC0FF2059F330910C0711960B
:104740002C91119780911107803108F093C0FD2CB6
:10475000231318C030910B07391314C0D11084C033
:104760008F708061809311078BE097E00E94691D34
:1047700080911107F8018683F12C8F2D2D96ECE0A6
:104780000C941132D11070C0E091D2068091D10604
:10479000AE2F37E0A81317C037E08E1337C08885D7
:1047A00099850E94CD09292F22952F70903408F405
:1047B00041C02A5F2F70223008F450C0C8010E9407
:1047C000691DFE2CDACF4A2F50E03A9FD001112408
:1047D000AD52B94F11966C911197261307C06C9189
:1047E000961304C015966C91611104C0DA011196FC
:1047F000A770D0CF8BE097E00E94691D87E0EBE0C7
:10480000F7E0DF011D928A95E9F7B6CF4E2F50E011
:104810003E9FF0011124ED52F94F6181261306C02D
:104820006081961303C065816111A6CFFA013196AC
:10483000E770B3CF9F70223038F0992351F0F80120
:104840009681903130F499CF992319F0882309F497
:1048500094CF805E883008F490CFB0CF803F08F4CA
:104860008CCF815F8230F7CF809111078160809378
:10487000110782CF231314C020910B07291310C0F6
:10488000D1100EC016968C93C8010E94691D87E056
:10489000F801ABE0B7E001900D928A95E1F738CFCF
:1048A000C8010E94DC09882309F45BC0DD2009F4FB
:1048B00058C080911107803278F020910B07309119
:1048C0000C073A832983BC82AB82CD821E828F8300
:1048D000CE0101960E94691D87E0F801ABE0B7E0C8
:1048E00001900D928A95E1F711CF809111078031E7
:1048F00008F480CFFF2009F40BCF30910C07F801AA
:1049000021813213CDCF20910B072913C9CFD110AC
:10491000C7CF8683C8010E94691D87E0D4011D921C
:104920008A95E9F7F5CEE83CF105F8F4FF2009F4A3
:10493000EFCEDD20B1F020910C07F8018181281322
:1049400006C080910B07891302C087E0A2CFC8017F
:104950000E94DC098111C0CF809111078160809392
:104960001107C8010E94691DD3CE87E0D4014ACF48
:10497000ABE1B0E0EEEBF4E20C94FE314E8B5F8BDA
:10498000688F798F8A8F9B8F91111092D0061D8A24
:1049900086E0FE017696DE011F9601900D928A95C3
:1049A000E1F78B89882329F061E0CE010F960E9400
:1049B000AD0987E0FE013F96DE01189601900D9249
:1049C0008A95E1F7CE0108960E94482381112BC0F9
:1049D00087E0FE013896DE01119601900D928A95CE
:1049E000E1F72091D1064091D2068C858823D9F039
:1049F00030E0C90101968770992750E08417950728
:104A0000E9F097E0929FD001939FB00D1124AD5231
:104A1000B94FFE01319601900D929A95E1F780937E
:104A2000D1060E94F80617E08091D2069091D10637
:104A3000891312C06B96E3E00C941A320E94091A93
:104A40001092D1061092D20687E0EBE0F7E0DF018A
:104A50001D928A95E9F7E7CF189FC00111248D5266
:104A6000994F0E944823882329F38091D20690E031
:104A70000196877099278093D206D6CFA6E0B0E042
:104A8000E4E4F5E20C94FD310E94B5178C018091AD
:104A90007006909171068017910779F019821A8239
:104AA0000E94B517BC0149815A8180E090E00E94C4
:104AB000B82410937106009370062696E4E00C94D7
:104AC0001932A7E1B0E0E7E6F5E20C94F2311D8679
:104AD0001C86FE013E9686E0DF011D928A95E9F76D
:104AE00087E7E82E81E0F82E8E01045F1F4F9BE7D9
:104AF000C92E91E0D92E3801AA24A394B12C31E813
:104B0000832E31E0932EF70181917F018F3F09F4CD
:104B100041C0F894E82FE295EF70F0E021A18F708A
:104B2000A50102C0440F551F8A95E2F7CA01922FD2
:104B3000982B91A392A18095892382A3789400C099
:104B4000EBE7F1E031E0512C21912F3F09F463C0F4
:104B5000A22FA295AF70A05EB0E08C9190E02F7074
:104B600002C0959587952A95E2F78170811153C00F
:104B7000832F582A330F8E169F0631F7F70131978E
:104B800080818F3F11F00E94040A50EA5A95F1F794
:104B9000D8015C920F5F1F4FCE14DF0409F0B3CF32
:104BA00048E050E0B30180EE93E00E9411330091A1
:104BB000E903892B91F188E0F301A0EEB3E00190C5
:104BC0000D928A95E1F781E08093ED010E94B5177F
:104BD0009093EC018093EB018091EB019091EC01BB
:104BE0000E94FF1C0597E8F010E003511C4F44E0C1
:104BF00050E060EE73E0C8010E941133892B41F050
:104C000084E0E0EEF3E0D80101900D928A95E1F79F
:104C10001092ED0106C080E0ACCF8091ED018111D2
:104C2000DBCF0E94BF0DE091E903882309F475C032
:104C30001A8219821C821B820E2F10E003511C4F16
:104C40008091FB018A3098F542E654E1FE013196ED
:104C50007F01BF01C8010E9492116701882309F4F6
:104C60004AC04BE054E1B701C8010E949211882369
:104C700009F441C047E055E1B701C8010E94921113
:104C80008823C9F11092FB018091E80390E044E091
:104C900050E0B60183519C4F0E94113321E02093D4
:104CA000EA01892BD1F46796EFE00C940E328091E3
:104CB000E8019091E9010E94FF1C843F914020F699
:104CC0008091EA01882379F384E0FE013196DF01C7
:104CD0001D928A95E9F71092EA01E091E803F0E06D
:104CE000E351FC4F89819A81AB81BC8180839183A0
:104CF000A283B383D8CF8091FB018F3F39F40E9408
:104D0000B5179093E9018093E801DACF8F5F809324
:104D1000FB018A3008F4B8CFF2CFF0E0E351FC4F4A
:104D200080819181A281B38180934F069093500638
:104D3000A0935106B09352068FE496E00E949E0C19
:104D400080934E06C0905306D0905406E0905506CE
:104D5000F09056068091E4019091E501A091E60162
:104D6000B091E701C816D906EA06FB06D1F0C09259
:104D7000E401D092E501E092E601F092E7010E94A1
:104D8000BF0D81110EC00E94A50BC61AD70AE80AF2
:104D9000F90AC0926C06D0926D06E0926E06F0920F
:104DA0006F068BE0E7E5F6E0DE01119601900D92CB
:104DB0008A95E1F7809157068695F0905806E09025
:104DC0005906D0905A060091600610916106109223
:104DD0006106112309F467CF10FF0BC02981909160
:104DE000BE0620FF1AC091609093BE0660E00E944C
:104DF000E71711FF06C020E04D2D6E2D8F2D0E946C
:104E0000C21212FF04C00023A9F00E94CC1713FFA6
:104E10004ACF81E08093040446CF9E7F9093BE06E4
:104E20000E94150B8091BD0681608093BD060E9493
:104E3000260EDFCF0E94150BEACFCDB7DEB7609705
:104E40000FB6F894DEBF0FBECDBF85B7806885BFB3
:104E500085B7806885BF84B7877F84BF0FB6F89415
:104E6000A895809160008861809360001092600036
:104E70000FBE80E890E00FB6F894809361009093A5
:104E800061000FBE82E09AE09093C3018093C2015B
:104E90000E947F0C0E94640D8091E20084608093E8
:104EA000E200789480916A06882399F08091E90065
:104EB0001091EC001795112717958F70182B1092F1
:104EC000E9008091E80083FD0E944E1A1F70109344
:104ED000E90082E084BD93E095BD9AEF97BD809391
:104EE0006E0010926C0610926D0610926E06109273
:104EF0006F060E94BF0D80931801809118018111E7
:104F00007CC08BE1809313018BE1809314010E949C
:104F1000BF0D81110E947830809118018091180195
:104F200091E08927880F880F8093E90394E0981B0C
:104F30009093E80384E90E94040A86E60E94040A2A
:104F400087E90E94040A86EC0E94040A0BE711E03C
:104F500051E8E52E51E0F52ED8018D918D018F3F5E
:104F600011F00E94040AE016F106B1F788E0EDEEB8
:104F7000F3E0DF01882E1D928A94E9F7E0EEF3E07A
:104F8000DF011D928A95E9F780E090E00E943533B9
:104F9000863E9E4F11F00E949D1382E090E00E9499
:104FA00027338093F50384E090E00E94353390939B
:104FB000CF068093CE060E946125EFEFF6E721E051
:104FC000E150F0402040E1F700C000000E94612560
:104FD0000E94BF0D11E0E82FE127EE0FEE0FF0E089
:104FE000E351FC4F808181FF0AC06FEF7FEF80E0CB
:104FF00090E00E9469330E94C20B80E083CF83E07F
:1050000090E00E94273390E00E945B060E94BF0D53
:105010008127880F8093310680E8809309040E94DD
:10502000212F6BE070E087E799E00E944416882307
:1050300009F443C08091310665E070E081FDC3C191
:1050400082E799E00E9444168823B9F16DE070E090
:1050500080E699E00E944416882379F10E94A50B0E
:105060006F83788789879A87DC01CB01805A9541C5
:10507000AF4FBF4F8093350690933606A093370607
:10508000B0933806E1E3F4E080E092E0DF019C01B8
:105090001D9221503040E1F7F0930804E09307049B
:1050A0008FEF9FEF909334068093330681E08093D7
:1050B0003C0680933906109232068091EA038111F2
:1050C00092C080E090E00E943533863E9E4F21F0F2
:1050D0000E949D130E94711288E090E00E942F337D
:1050E0006B017C0184E290E00E942733282F30E09E
:1050F00040E050E060E070E080E090E000E20E947C
:105100006932E22FA32EB42EB52FA62FF72F9701C9
:10511000860140E050E0BA01EC29A12AB22AB32B63
:10512000A42BF52B862B972BE093BE06A092BF06EF
:10513000B092C006B093C106A093C206F093C30616
:105140008093C4069093C5068091BD0683608093CA
:10515000BD06E230C8F50E94711288E090E00E941E
:105160002F336B017C0184E290E00E942733282FCB
:1051700030E040E050E060E070E080E090E000E28D
:105180000E9469325901B42FA52FF62FE72F9701FE
:10519000860140E050E0BA01AC28B12AB22BA32B23
:1051A000F42BE52B862B972BA092BE06B092BF0660
:1051B000B093C006A093C106F093C206E093C30665
:1051C0008093C4069093C5060E94000B0E94150BA5
:1051D0008091BE0680FF04C060E086950E94E717BC
:1051E00081E08093EA030E94BF0D811102C00E94FA
:1051F0007B3089E191E09093730680937206CE0133
:1052000001964AE0442E512C612C712C8F87988B8B
:1052100080916A06853049F480916A06853009F4E8
:10522000D5C00E94091A0E94150E0E94612506EF42
:1052300013E03DEEE32E33E0F32ED701F801919118
:105240008D912EEF822E23E0922E8E169F0609F46A
:1052500011C19817A1F30E94BF0D882ED12CD70140
:10526000CD907D01F80191908F019C1441F19C2417
:10527000B12CAA24A394892D8A218823C1F08820E7
:10528000B1F0B982DA820E94B5179C838B83F1E07A
:10529000FD8391E08C2D8A21811101C090E09E83D5
:1052A00049815A816B817C818D810E94B824B3949D
:1052B000AA0C26E0B212DFCFF8013197C082D39456
:1052C00038E0D312CCCF0E94E20D0E94BF0DD090E7
:1052D000BC06D1102AC1D0903C06D110DAC00E9481
:1052E000831686E0EFEAF6E0AF85B88901900D926B
:1052F0008A95E1F7C090B0060091B1061091B20610
:10530000E090B306F090B4061092B1061092B20687
:105310001092B3061092B406812F802B882379F067
:1053200080913F06909140060E94FF1C9C01809155
:10533000AD06811135C32B30310508F037C38F2DF1
:105340008E29882379F080913D0690913E060E9437
:10535000FF1C9C018091AC06811160C32B3031058C
:1053600008F062C38091B006C81216C08091B106E1
:10537000882311F0801310C09091B206992311F088
:1053800019130AC02091B406211106C02091B3065A
:10539000211102C0892B81110E94581886E0EF85E7
:1053A000F889AFEAB6E001900D928A95E1F70E9484
:1053B000150E90914106891709F42ACF8093410672
:1053C0000E94A50B25CF8DE699E03CCE80916A0620
:1053D000843031F10E9471161092EB0348E150E0E5
:1053E00060E40FB6F894A895409360000FBE6093F8
:1053F000600083B7817F846083BF83B7816083BF90
:105400007894889583B78E7F83BF0FB6F894A8955C
:1054100080916000886180936000109260000FBEF0
:105420008091EC03882309F4F7CE0E946125EDEE0C
:10543000F3E085EF93E02191211104C08E179F07BF
:10544000D1F7EACE80E189BD82E189BD09B400FED1
:10545000FDCF8091D8008F7D8093D8008091E000AF
:1054600082608093E0008091E00081FDFCCF0E948B
:10547000091AD2CE9813EFCE0E943E250E94BF0D8E
:10548000D090BC06D11050C080913C06882309F40E
:1054900028CF80913A0690913B060E94FF1CC2974C
:1054A00008F449C30E94B51790933B0680933A06CF
:1054B00081E394E090930804809307040E94BF0D59
:1054C000882309F4A6C180E09AE00E947A1720910F
:1054D000CB063091CC06832F9927009709F402C19F
:1054E0009C0188E0A901B4E056954795BA95E1F78B
:1054F0004115510511F08C5F9A01A9015695479508
:1055000056954795452B09F4EFC08E5FF3E036952D
:105510002795FA95E1F7232B09F4F2C0823009F4BC
:10552000F5C08FED99E0BDC2D12C8091BB06E09112
:10553000BE06E695E81BE0930304823009F062C0E2
:10554000F0E0ED56F64FE4910E2F10E0FAEFEF2E5B
:10555000F0E1FF2E80910404882361F0109204048E
:105560000E94C117909302048093010410920604D4
:10557000109205040E94C1179C0180910104909132
:105580000204A901481B590B4F3F5F4798F5409112
:1055900000044423B1F0109200044091FE035091A6
:1055A000FF03241B350B2F3F3F4758F4405D5A48FB
:1055B0005093FF034093FE032091BD062860209383
:1055C000BD06A0900504B0900604800F911F909333
:1055D00002048093010481E094E0F7010995809131
:1055E000050490910604892B29F4AB2819F081E079
:1055F0008093000480913C0681114BCFDD2009F49B
:1056000070CE6DCE08E210E09AEBE92E9FE0F92E05
:10561000883109F49FCFE0F48F3009F440C058F48A
:10562000863031F1893079F100ED17E0EDE1EE2EB1
:10563000EAE0FE2E8FCF8531B9F7F0E0E957F64F5B
:10564000E4910E2F10E04AE3E42E4FE0F42E82CFD7
:10565000843209F440C0853271F1833229F7E5E8DC
:10566000F9E00591149138EAE32E30E1F32E72CF80
:10567000F0E0E057F64FE4910E2F10E07EE0E72EC9
:1056800071E1F72E67CFE695F0E0E357F64FE4912E
:105690000E2F10E068E7E62E6EE0F62E5BCFE69563
:1056A000F0E0E657F64FE4910E2F10E053EBE52EB5
:1056B0005EE0F52E4FCF8E2F63E00E942632E92F59
:1056C000F0E0EE57F64FE4910E2F10E02AE7E22EBD
:1056D00025E1F22E3FCF04EF11E08EE4E82E80E1C9
:1056E000F82E38CF80E0FECE36952795232B09F48F
:1056F000D3C18F5F833008F014CF82EF99E0D1C11E
:10570000823009F00ECF8CEE99E0CBC185EE99E0A6
:10571000C8C1909322018093210120E220931004BC
:105720004C01A12CB12C8F829886A986BA86109242
:105730000F047FE0E72E74E0F72EC501B401A3014A
:1057400092010E94B1336B877C878D879E87862F5D
:10575000805D8B849C84AD84BE8400E010E0892849
:105760008A288B2861F56EE0E62E64E0F62E8093A1
:105770000E042F83388749875A876F8178858985FA
:105780009A85A30192010E94B1336B877C878D8734
:105790009E87862F805D2B853C854D855E8501E04B
:1057A00010E0232B242B252B51F480E28F8098844A
:1057B000A984BA8489288A288B2809F080E3D70134
:1057C0008E937D016F81788589859A85A3019201E9
:1057D0000E94B1332F83388749875A870F5F1F4F45
:1057E0000530110509F494C1CA01B901A301920160
:1057F0000E94B1336B877C878D879E87862F805D63
:105800008B849C84AD84BE8481149104A104B10472
:10581000CBCF87E999E00E947A178DC18F5F082F5F
:1058200010E04B01082E02C0880C991C0A94E2F784
:10583000A40142235323452B89F39091310690FD17
:1058400043C098013695279536952795922F8295D6
:10585000880F80763FE1380F80932501209328013F
:10586000309326019093290124E630E047E050E090
:1058700063E271E088E70E94C62F892B09F076C1A8
:10588000A80195E0440F551F9A95E1F780913106E4
:1058900080FD22C04F5C5B4F04E610E020E230E068
:1058A00060E488E70E94ED2F892B09F05FC18094A6
:1058B0009094809133069091340688219921909399
:1058C00034068093330652C1880F880F880F37E063
:1058D000380F20E093E0C0CFE1E1F4E080E2DF01A7
:1058E0001D928A95E9F7E5E8F1E0FC87EB8761E82E
:1058F00071E087E0E82EBB24B394EB85FC85A19191
:10590000FC87EB87FB018191BF01840F952F911DCF
:105910009C012F5C3B4F38872F83EA2FF0E0EF5E2E
:10592000FB4F80E090E0CE2CC81AFB2C082E01C063
:10593000FF0C0A94EAF72F80388400E0D1011D9112
:105940001D011F212C2D201B277030E0B12F022EAE
:1059500001C0BB0F0A94EAF73195219531092770F0
:10596000332701C016952A95EAF71B2B2081122BAD
:1059700010830F5F083011F701963196883091053A
:1059800091F6E9E8F1E02B853C85E217F30709F091
:10599000B4CF04E610E020E230E041E154E080CFF3
:1059A0002531310508F4CBCC8F3F19F08F5F809300
:1059B000AD06002359F00E942C0A9FEF10160CF43C
:1059C00091E0899F802D11248093B106112359F015
:1059D0000E942C0A91E011160CF09FEF899F802DF8
:1059E00011248093B2068091B106882309F4A7CCD4
:1059F000D090B206DD2009F4A2CC0E941E0A8111CB
:105A000001C081E08093B1068D2D0E941E0A88237B
:105A100019F08093B20693CC81E0FBCF213531059C
:105A200008F4A0CC8F3F19F08F5F8093AC06EE2076
:105A300059F00E944C0A9FEF1E140CF491E0899FCC
:105A4000802D11248093B306FF2059F00E944C0A48
:105A500091E01F140CF09FEF899F802D11248093FB
:105A6000B4068091B306882309F47CCCF090B40688
:105A7000FF2009F477CC0E941E0A811101C081E049
:105A80008093B3068F2D0E941E0A882319F08093FD
:105A9000B40668CC81E0FBCF833008F042CD88EFBC
:105AA00099E00E9488178091B6060E94B70C9C016D
:105AB000C9012F5F3F4FDC014C914032C9F30E9476
:105AC00062178DED99E00E947A178091B5060E94C9
:105AD000B70C9C01C9012F5F3F4FFC014081403250
