:100000000C943C060C9459060C9459060C94582FE9
:100010000C9459060C9459060C9459060C945906E4
:100020000C9459060C9459060C94B7160C94D61AD5
:100030000C946E270C9459060C9459060C9459068E
:100040000C9459060C9459060C9459060C945906B4
:100050000C9459060C9490170C9459060C9459065C
:100060000C9459060C9459060C9459060C94590694
:100070000C9459060C9459060C9459060C94590684
:100080000C9459060C9459060C9459060C94590674
:100090000C9459060C9459060C9459060C94590664
:1000A0000C9459060C9459060C94590620202020D3
:1000B0006162636465666768696A6B6C6D6E6F70B8
:1000C0007172737475767778797A31323334353664
:1000D00037383930524542545F2D3D5B5D5C233BE0
:1000E00027602C2E2F2020200000000000000000A0
:1000F0000000000000000000000000000000000000
:100100000000000000000000000000007E0F00D48E
:10011000FFFFFFC7000000780000000000000000A3
:100120002A2B280000000000000000000000000052
:1001300000000029000000002C1E3420212224345D
:100140002627252E362D3738271E1F20212223242F
:1001500025263333362E37381F0405060708090ACB
:100160000B0C0D0E0F101112131415161718191A67
:100170001B1C1D2F3130232D350405060708090AE5
:100180000B0C0D0E0F101112131415161718191A47
:100190001B1C1D2F3130354C3D3E00290014001A28
:1001A000000800150017002B0004001600070009C6
:1001B000000A00E0001D001B0006001900050000F9
:1001C0000000000000E200E1002C412E00130012AC
:1001D000000C0018001C002A0033000F000E000D58
:1001E000000B004C003800370036001000110000F2
:1001F0000000000000E300E100284229003B003C31
:100200000052003E023E002B004200500051004FC1
:10021000004502E0001D014300440045001C0100B0
:100220000000000000E200E1000100000042033194
:10023000002D002D022C032A00447E2F002F0226C1
:10024000024F044C0000003000300227025004002E
:100250000000000000E300E100284329001E021F07
:10026000022002210225022B002402310234003434
:10027000022302E000350035022D002E022202008A
:100280000000000000E200E1002C430000270026EF
:1002900000250024003A002A00000023002200214B
:1002A000004D004C00490020001F001E004A0000C5
:1002B0000000000000E300E1000100290021782394
:1002C000782578277829782B0022782478267828B2
:1002D000782A78E00020780000000000000000008C
:1002E0000000000000E200E100010000000000AAA0
:1002F00000A900000000002A000000AB00AE00AC26
:10030000004F094C000000000000000000500900F0
:100310000000000000E300E100010000DA0281FFBC
:10032000D9F1DB20A4A62EAF00A0C0D30000A1C845
:10033000D30000AED580A81F408D1420001E0F05ED
:1003400000047F3F1F643214643214783C1E1E1474
:100350000A05556E6465660041646A7573740052DF
:1003600061697365004C6F776572004465666175FD
:100370006C74004C617965723A20003A002C206B55
:10038000007800808182838485868788898A8B8C27
:100390008D8E8F9091929394A0A1A2A3A4A5A6A7BD
:1003A000A8A9AAABACADAEAFB0B1B2B3B4C0C1C234
:1003B000C3C4C5C6C7C8C9CACBCCCDCECFD0D1D295
:1003C000D3D4000001010101010101010102020277
:1003D00002020202020203030303030303030404F1
:1003E00004040404040505050505060606060607BB
:1003F0000707070708080808090909090A0A0A0B74
:100400000B0B0C0C0C0D0D0D0E0E0E0F0F0F101014
:10041000111111121213131414151516161717189B
:100420001819191A1A1B1B1C1D1D1E1E1F20202106
:100430002222232424252626272829292A2B2C2D4D
:100440002D2E2F30313232333435363738393A3B6E
:100450003C3D3E3F404142434445464748494A4C63
:100460004D4E4F50515354555658595A5B5D5E5F2F
:10047000616264656668696B6C6D6F7072737577C5
:10048000787A7B7D7E8082838587888A8C8E8F9127
:10049000939596989A9C9EA0A2A3A5A7A9ABADAF51
:1004A000B1B3B5B7BABCBEC0C2C4C6C9CBCDCFD13B
:1004B000D4D6D8DBDDDFE2E4E7E9EBEEF0F3F5F8E4
:1004C000FAFDFFFFAA7F55402223252628292A2C42
:1004D0002D2F3032333536383A3B3D3E404243458E
:1004E00047494A4C4E5051535557595A5C5E6062C9
:1004F000646668696B6D6F71737577797B7D7F81D9
:10050000838587898A8C8E90929496989A9C9E9FD8
:10051000A1A3A5A7A8AAACAEAFB1B3B4B6B8B9BBF6
:10052000BCBEBFC1C2C3C5C6C7C9CACBCCCDCED065
:10053000D1D2D2D3D4D5D6D7D7D8D9D9DADADBDB52
:10054000DBDCDCDCDCDCDDDDDDDDDCDCDCDCDCDBE9
:10055000DBDBDADAD9D9D8D7D7D6D5D4D3D2D2D132
:10056000D0CECDCCCBCAC9C7C6C5C3C2C1BFBEBC25
:10057000BBB9B8B6B4B3B1AFAEACAAA8A7A5A3A196
:100580009F9E9C9A98969492908E8C8A8987858358
:10059000817F7D7B79777573716F6D6B6968666438
:1005A00062605E5C5A5957555351504E4C4A494708
:1005B000454342403E3D3B3A3836353332302F2DAD
:1005C0002C2A29282625232200AF00AE0501090286
:1005D000A10185020901A1000509190129081500D9
:1005E0002501950875018102050109300931158140
:1005F000257F95027508810609381581257F9501AB
:1006000075088106050C0A38021581257F9501754C
:10061000088106C0C005010980A101850319012ACE
:10062000B700150126B700950175108100C0050CB3
:100630000901A101850419012AA002150126A002C1
:10064000950175108100C005010906A10185060507
:100650000719E029E71500250195087501810205B4
:1006600007190029EF1500250195F0750181020594
:1006700008190129059505750191029501750391E8
:1006800001C005010906A101050719E029E71500C8
:1006900025019508750181029501750881010507FD
:1006A000190029FF150026FF009506750881000531
:1006B0000819012905150025019505750191029577
:1006C0000175039101C009023B00020100A0FA0973
:1006D000040000010301010009211101000122446D
:1006E000000705810308000109040100010300005F
:1006F0000009211101000122B60007058203200034
:10070000011201000200000008534601000100012F
:100710000200010C0343006F0072006E00650000D0
:1007200000100366006F006F007300740061006EBC
:10073000000000040309040000000000003E5B4FBD
:100740005B3E003E6B4F6B3E001C3E7C3E1C001827
:100750003C7E3C18001C577D571C001C5E7F5E1CB5
:100760000000183C180000FFE7C3E7FF0000182452
:10077000180000FFE7DBE7FF0030483A060E0026CE
:100780002979292600407F05050700407F05253F80
:10079000005A3CE73C5A007F3E1C1C0800081C1C09
:1007A0003E7F0014227F2214005F5F005F5F00061F
:1007B000097F017F00006689956A00606060606063
:1007C0000094A2FFA2940008047E04080010207E7A
:1007D00020100008082A1C0800081C2A0808001E0F
:1007E00010101010000C1E0C1E0C0030383E38305B
:1007F00000060E3E0E060000000000000000005F34
:10080000000000000700070000147F147F1400247C
:100810002A7F2A12002313086462003649562050AA
:1008200000000807030000001C22410000004122D4
:100830001C00002A1C7F1C2A0008083E0808000033
:1008400080703000000808080808000000606000A0
:10085000002010080402003E5149453E0000427F3E
:100860004000007249494946002141494D33001872
:1008700014127F10002745454539003C4A4949314B
:1008800000412111090700364949493600464949C6
:10089000291E000000140000000040340000000089
:1008A00008142241001414141414000041221408E6
:1008B000000201590906003E415D594E007C1211AB
:1008C000127C007F49494936003E41414122007F68
:1008D0004141413E007F49494941007F09090901E1
:1008E000003E41415173007F0808087F0000417FAE
:1008F0004100002040413F01007F08142241007F59
:1009000040404040007F021C027F007F0408107FAF
:10091000003E4141413E007F09090906003E415128
:10092000215E007F09192946002649494932000302
:10093000017F0103003F4040403F001F2040201F37
:10094000003F4038403F00631408146300030478FC
:100950000403006159494D4300007F4141410002B9
:100960000408102000004141417F000402010204FC
:10097000004040404040000003070800002054545D
:100980007840007F284444380038444444280038E4
:100990004444287F0038545454180000087E09024B
:1009A000001824241C78007F080404780000447D8B
:1009B0004000002040403D00007F1028440000001F
:1009C000417F4000007C04780478007C08040478AF
:1009D000003844444438007C182424180018242487
:1009E000187C007C08040408004854545424000473
:1009F000043F4424003C4040207C001C2040201C3C
:100A0000003C4030403C004428102844004C90906A
:100A1000907C004464544C440000083641000000BF
:100A200000770000000041360800000201020402C5
:100A3000003C2623263C00000000000000000000CF
:100A400000000000000000C0E0F0F8F81800C0F05E
:100A5000FCFEFFFFFFFFFFFFFF7E00000000000025
:100A600000000080C0E0E0E0E0E0E0E0E0C0800006
:100A700000000080C0E0E0E0E0E0E0E0E0C08000F6
:100A80000000E0E0C0C0E0E0E0E00000E0E0C0C066
:100A9000E0E0E0E0E0C0800000000080C0E0E0E0D6
:100AA000E0E0E0E0E0C080000000000000000000A6
:100AB0000000000000E0F0F0F0E0ECEEF7F3702052
:100AC000007C7C7C7E007E7E7E7F7F7F000080C0FD
:100AD000E07E5B4F5BFEC00000C000DCD7DEDEDEE8
:100AE000D7DC00C000000000000000000000000093
:100AF00000000000000000000000000000000000F6
:100B0000F8FCFEFFE000FFFFFFFFFFFF80FFFFFF9D
:100B1000FFFFFFFFFFFF1F070100000000000000B4
:100B20000000FFFFFF8100000000000081C3C3C37D
:100B30000000FFFFFF8100000000000081FFFFFFB9
:100B40000000FFFFFF01000000000000FFFFFF01A9
:100B50000000000001FFFFFF0000FFFFFF9D1C1CC5
:100B60001C1C1C1C9DDFDFDF0000000000000000DB
:100B700000000000000F1F3F7F7F7F7F7F3F1E0C24
:100B8000001F1F1F3F003F3F3F7F7F7F00307B7F65
:100B90007830202030787F3B0003000F7F0F0F0F4D
:100BA0007F0F0003000000000000000000000000B4
:100BB0000000000000000000000000000000000035
:100BC000030F1F3F3F3F3F1F1F3F3F7F7F7F3F3F41
:100BD0001F3F7F7F7F7F7C7878381C0F00000000EC
:100BE00000000001030707070707070707030100C5
:100BF00000000001030707070707070707030100B5
:100C000000000707070000000000000007070700BA
:100C100000000000000707070000000103070707A6
:100C2000070707070703010000000000000000009D
:100C300000000000000000000000000000000000B4
:100C400000000000000000000000000000000000A4
:100C50000000000000000000000000000000000094
:100C60000000000000000000000000000000000084
:100C7000000000000000000011241FBECFEFDAE0EA
:100C8000DEBFCDBF27E0A4ECB1E001C01D92AF30C4
:100C9000B207E1F711E0A0E0B1E0E2EAF5E602C058
:100CA00005900D92A43CB107D9F70E9495270C94AA
:100CB0007B320C940000482F209100059091C704CE
:100CC00057E0291302C080E0089530E0529FF00100
:100CD000539FF00D1124E853FB4F8181681306C028
:100CE0008081481303C085818111EECF2F5F3F4F74
:100CF0002770E7CFFC01AC014C5F5F4F8FEF91E3B2
:100D00002191822728E030E087FF09C0880F8927DA
:100D100021503109C9F7E417F50791F70895880FB5
:100D2000F7CFE8EDF0E080818E7F80831092E200C3
:100D30001092DA001092E100A0EEB0E08C91816098
:100D40008C9380818F77808319BCA7EDB0E08C9164
:100D50008E7F8C9380818F7E80831092980408957B
:100D60002091E4003091E50095E6A9012091EC0086
:100D7000822F817020FF06C08091E80080FF06C0AE
:100D800080E008952091E80022FD1AC08091BD0402
:100D9000882389F0853089F08091EB0085FD0FC0B4
:100DA0002091E4003091E50042175307F9F2915089
:100DB000E1F684E0089582E0089583E0089581E0FB
:100DC00008958091BF0487FF13C08091E80082FFDF
:100DD00006C08091E8008B778093E80004C0809182
:100DE000BD048111F2CF08958091BD048823D9F309
:100DF0008091E80080FFF8CF8091E8008E77ECCFFB
:100E0000982F9093E900242F762F50E0891731F026
:100E10007091EC002091ED005091F00021FD07C091
:100E20009F5F973071F78093E90081E008953091DA
:100E3000EB003E7F3093EB003091ED003D7F30932F
:100E4000ED003091EB0031603093EB007093EC00DB
:100E50002093ED005093F0002091EE0027FDE0CFAD
:100E600080E00895B0E0A0E0E8E3F7E00C94923071
:100E7000C8EDD0E088818F7E8883E7EDF0E0808147
:100E80008160808384E082BF81E0809398048881C0
:100E90008E7F888302EE10E0F80110821092DA0053
:100EA00081EEC82ED12CF601108288818F7788833D
:100EB00088818068888388818F7D888319BC10929F
:100EC000BD041092BE041092BC041092BB0490EEBC
:100ED000E92EF12CF70180818B7F808388818160EE
:100EE000888342E060E080E00E940007F601808194
:100EF0008E7F8083F801808181608083808188601B
:100F00008083F70180818E7F8083888180618883E0
:100F1000CDB7DEB7E8E00C94AE30FC018091C5049B
:100F20009091C60486179707A0F06115710529F402
:100F30009091E8009E779093E80090E0611571052C
:100F400051F4911108C08091E80082FF34C080E024
:100F50000895BC01F2CF8091BD048823C1F1853092
:100F6000C1F18091E80083FD30C08091E80082FDEE
:100F7000EACF8091E80080FFE1CF8091F3002091DB
:100F8000F200382F6115710519F02830310558F03D
:100F900091E02830310509F090E02091E8002E77AB
:100FA0002093E800CBCF81918093F10061507109CB
:100FB0002F5F3F4FE7CF8091BD04882341F08530FC
:100FC00041F08091E80083FFBECF81E0089582E088
:100FD000089583E0089580919A04089587E797E73C
:100FE000909301088093000888E19AE00FB6F89486
:100FF000A895809360000FBE90936000FFCF2FB73D
:10100000F89460919204709193048091940490916B
:1010100095042FBF089520914A012223C9F0209101
:10102000960427FF15C0E62FE695E695E695EE3186
:10103000D8F4E80FF92FF11D677021E030E001C00E
:10104000220F6A95EAF7209582812823228308954A
:10105000FC01329608962191621303C0DF011197BB
:101060001C92E817F907B9F7089520914A01222345
:10107000C1F02091960427FF14C0E62FE695E6956F
:10108000E695EE31F8F4E80FF92FF11D677021E0D5
:1010900030E001C0220F6A95EAF78281822B8283B9
:1010A0000895FC0132962FEF30E04191641751F022
:1010B0002F3F19F4411101C0232F3F5F3630A9F7AC
:1010C0002F3F09F40895820F911D27FD9A95FC0189
:1010D00062830895A3E0B0E0E0E7F8E00C94983074
:1010E00020918F043091900428173907A1F0909334
:1010F000900480938F04E0918D04F0918E043097DA
:1011000051F024E029839B838A830680F781E02DB8
:10111000CE01019609952396E2E00C94B430A3E049
:10112000B0E0E5E9F8E00C94983020918B04309120
:101130008C0428173907A1F090938C0480938B04BA
:10114000E0918D04F0918E04309751F023E02983D3
:101150009B838A830680F781E02DCE010196099555
:101160002396E2E00C94B430FA01811101C0FB0136
:10117000099508950895E7ECF2E011828281846078
:101180008283089580917D04982F9E7F61F4817001
:10119000826080937D0480918004893718F088E70D
:1011A0008093800408958635B0F381708465F1CF13
:1011B000AF92BF92DF92EF92FF920F931F93CF9364
:1011C000DF93182F062FE901493708F048E7E42F8D
:1011D000F0E0ED53FC4F011110C0E4915E2F4E2F53
:1011E0004983E8835A83DF91CF911F910F91FF903C
:1011F000EF90DF90BF90AF900895202F30E04491A2
:10120000D42EE42EF12C56E0159FC0011124EFEFEF
:10121000F0E0BF010E947430812F90E0880F991F89
:1012200055E5569FD001579FB00D11248A1B9B0B8B
:10123000982F990F890F5F01A21AB30AAE9CD001B3
:10124000AF9CB00DBE9CB00D11245B2F089F800198
:101250001124012F11275F01A01AB10AAE9C800151
:10126000AF9C100DBE9C100D11245F01A81AB1088F
:10127000A29EC001A39E900DB29E900D1124892FB5
:101280009927E81BF90BEE9DC001EF9D900DFE9D87
:10129000900D1124E92F62307105A1F050F4611511
:1012A000710509F49DCF6130710581F0EB2F512F4D
:1012B00097CF6430710569F080F06630710509F4EC
:1012C0008FCFF4CFE42F4B2F592F8ACFE42F412F0C
:1012D00087CFEB2F542F492F83CF4B2F5D2DE12F3D
:1012E0007FCF8091B60280FD16C081FD16C082FDC1
:1012F00016C08091B5028823A1F0883280F428E0DE
:10130000829FC001112468E270E00E94D930862FCC
:10131000672B39F0089582E0089584E0089588E00D
:10132000089581E008958091B60280FD14C081FD8A
:1013300014C082FD16C08091B402882381F08E31E2
:1013400080F420E5829FC00111246EE170E00E94CC
:10135000D930862F089584E1089588E2089588E0C1
:10136000089580E50895282F35EB2303C00111244B
:1013700097FF04C080589109892F089580589F4F86
:10138000FBCF80E00895F894E82FE295EF70F0E04D
:1013900031A1282F2F7081E090E001C0880F2A959D
:1013A000EAF7982F9095932391A392A1892B82A37A
:1013B000789408959091960492FF10C041E0282FF0
:1013C0002471243009F040E031E0282F28712830C2
:1013D00009F030E0431711F02CE0822793FF10C092
:1013E00041E0282F2471243109F040E031E0282F1A
:1013F0002871283109F030E0431711F02CE08227E2
:101400003091970430FF10C051E0282F2171213016
:1014100009F050E041E0282F2871283009F040E021
:10142000541711F029E0822731FF10C041E0282F26
:101430002171213109F040E031E0282F2871283155
:1014400009F030E0431711F029E0822794FD877EF0
:10145000089582389105B9F1B0F48133910509F40A
:101460007DC048F48932910509F46DC08A32910536
:1014700009F47BC008958533910509F45FC0893371
:10148000910509F10895833E9105D9F138F4803E24
:10149000910529F1823E910579F10895863E9105E5
:1014A000D9F1873E910509F43EC0843E910541F58E
:1014B0002091970421FF24C08091960484FD19C0D7
:1014C00087EE90E0089520919604237009F05AC0A9
:1014D0002091970423FF14C089E290E008952091A1
:1014E000960420FD38C03091970430FF09C024FFD6
:1014F00043C090E080E008952091960422FDF7CF4C
:1015000008952091960422FD3AC03091970430FD51
:1015100039C024FFF5CFEDCF2091960423FFF0CF03
:1015200024FDE7CFCDCF2091960423FD2EC030912E
:10153000970431FFEECF84EE90E008952091960459
:1015400025FFDECFC9CF2091960425FD21C0209133
:10155000970423FFD5CF89E390E0D2CF2091960462
:1015600026FFCECF8AE290E008952091960426FFD0
:10157000C7CF81E390E0089583EE90E0089582EE76
:1015800090E0089580EE90E0089586EE90E0089552
:1015900085E390E00895972F7830B8F46630A8F48A
:1015A0008430B0F470E026E0929F600D711D11242C
:1015B000FB0190E3899FE00DF11D1124EE0FFF1F49
:1015C000E556FE4F85919491089580E090E008954E
:1015D00081E0FCCF1F93CF93DF930E94290AEC0197
:1015E000C11580E5D807F0F5C11580E4D80708F0EB
:1015F0009CC0C03ED10520F5CD3CD10508F082C08D
:10160000C83AD10578F4C53AD10508F073C0C130A5
:10161000D10519F1209709F1C430D105F0F4D0E0DB
:10162000C0E01BC0C33CD105D0F7C85AD0E0CC0FF6
:10163000DD1FC25BDE4F0990D881C02DD4640DC080
:10164000C11580E2D80708F0D1C0C11581E0D807E4
:1016500008F05AC0C83ED10510F7CE01DF91CF91F6
:101660001F910895C03682E5D80718F5C03482E589
:10167000D80708F06BC0C03282E5D80708F05FC019
:10168000C11582E5D80708F497C02C2F269526951A
:1016900080E2289F900111248C2F8370C1E0D0E05C
:1016A00002C0CC0FDD1F8A95E2F7C22BD32BDD6879
:1016B000D4CFC03A82E5D80760F4C03882E5D807B5
:1016C00008F459C0CF71D0E0DC2FCC27C46FD06AAA
:1016D000C4CFC03C82E5D80708F462C0C03E82E5B2
:1016E000D80708F09CCFDC2FCC27CC27DF71C06F48
:1016F000D06AB3CFC55AD0E0C55BDE4FC881D0E019
:10170000D064ABCFD065A9CF8D2F0E94DA09182FF6
:10171000CE0199270E94290AC12FD0E0DC2FCC27C7
:10172000CC27DF71C82BD92B98CFCE0199270E94E7
:10173000290ACC27DF70C82BD92BD06A8ECFCF7166
:10174000D0E0DC2FCC27C16FD06A87CF2C2F269515
:101750002695277080E2289F900111248C2F83709A
:10176000C1E0D0E002C0CC0FDD1F8A95E2F7C22BAA
:10177000D32BDC6872CF2C2F26952695277080E21C
:10178000289F900111248C2F8370C1E0D0E002C00B
:10179000CC0FDD1F8A95E2F7C22BD32BDA685DCF21
:1017A0008C2F8F710E94DA09C82FD0E0DC2FCC2754
:1017B000CC27DF71D06251CF8C2F8F710E94DA0954
:1017C00055E0D695C7955A95E1F7CF70D0E0DC2F5C
:1017D000CC27282F30E084FF05C044E0220F331FC0
:1017E0004A95E1F7C22BD32BD06937CF8D2F8F715C
:1017F0000E94DA09182FCE0199270E94290AC12FC9
:10180000D0E0DC2FCC27CC27DF71C82BD92BD2CF4F
:10181000809590912A02982390932A0208958091AE
:1018200000059091C704981301C008958F5F8770D9
:10183000FACFB0E0A0E0EFE1FCE00C9491307C0145
:10184000009182021091830280912B0290912C02D0
:10185000082B192BCFE0D0E0CC24C394D12CBC2E84
:10186000C6010C2E02C0880F991F0A94E2F780234C
:101870009123892B49F4219790F7B12C8B2DCDB76B
:10188000DEB7E9E00C94AD30B7018C2F0E94CB0A93
:101890000E94EA0A019779F3F1CFCF93DF93EC012D
:1018A0000E94190CBE010E94CB0A0E94EA0ADF9135
:1018B000CF910895983078F5863068F5E82FF0E0FC
:1018C00086E0989FE00DF11D11249E2F977083E014
:1018D000F695E7958A95E1F7EE0FFF1FEE0FFF1FD4
:1018E000E851FE4F50E040E080E0219130E0092EC9
:1018F00002C0369527950A94E2F721703327042E0B
:1019000001C0220F0A94EAF7822B4F5F5F4F4430E9
:10191000510559F7089580E00895983098F586307C
:1019200088F5E82FF0E086E0989FE00DF11D112486
:101930008E2F877041E001C0440F8A95EAF783E05B
:10194000F695E7958A95E1F7EE0FFF1FEE0FFF1F63
:10195000E851FE4F30E020E070E05191DF01119737
:10196000CB01022E02C0969587950A94E2F781700A
:1019700081958527842385278C932F5F3F4F2430C3
:10198000310559F708959093830280938202089558
:1019900021E030E002C0220F331F8A95E2F7209544
:1019A00030958091820290918302822393230E943A
:1019B000C30C0895909107028095892380930702B4
:1019C000282F277069F4891759F09091970492FF96
:1019D00007C08695869586950E94C80C10920702CE
:1019E000089521E030E002C0220F331F8A95E2F70C
:1019F0008091820290918302822B932B0E94C30CD0
:101A0000089590932C0280932B020895FC01248169
:101A10002223C1F0808191810E944D0C92959F708C
:101A2000963091F058F4925F9F70923058F4803F56
:101A300019F030F4883E30F481E008959A5FF4CFD5
:101A4000843FD1F380E00895883EB0F3813FD1F721
:101A5000F3CFA6E0B0E0EFE2FDE00C9497304983CD
:101A60005A8349815A819923A1F0222391F0CA0116
:101A70000E94190C182F682F89819A810E948D0C61
:101A800069817A81812F0E94CB0A2696E3E00C942B
:101A9000B330CA010E945A0C182FF2CFCF93DF93B4
:101AA000682F81E06A3019F06D3031F480E00E94D7
:101AB000DC0DDF91CF91089580910D0790910E0775
:101AC00026E0FC01A7E0B7E001900D922A95E1F72E
:101AD000603E08F458C026E0FC0111922A95E9F70F
:101AE000C0910D07D0910E0746E050E0BE0187E09F
:101AF00097E00E94AA319E0127503540892B41F181
:101B0000C90145E0969587954A95E1F741E050E097
:101B1000BA0102C0660F771F8A95E2F7CB01609188
:101B2000050570910605862B972BB9016B5F7F4FDA
:101B3000E5E076956795EA95E1F702C0440F551FF9
:101B40006A95E2F7842B952B909306058093050503
:101B50002A5F3F4F40910405642F70E0C9010E9445
:101B60007430481B463010F4240F311D211572E0EB
:101B7000370710F030E020E0295F3A4F30930E072E
:101B800020930D0796CFF6E06F9FB0011124695C9A
:101B9000784F46E050E00E949431A2CFCF93DF937C
:101BA000EC01FE018491811103C0DF91CF91089572
:101BB0000E944E0D2196F5CFCF93382FE0910D075F
:101BC000F0910E07E750F54020910405622F70E078
:101BD000CF010E947430281B822F332361F066E00E
:101BE0000E94BF30C82FC15010F4CF91089580E2F9
:101BF0000E944E0DF8CF9F01280F311D2115324054
:101C000018F080E0F0E0E0E08E0F9F2F911D895FDB
:101C10009A4F90930E0780930D07E7CF0E94CE0D49
:101C200081E00E94DC0D089580912A0290912902A2
:101C3000892B8093C601909128029923A1F0892BCA
:101C40008093C60180914A018823E1F18091960436
:101C500087FF38C08EE1E8ECF1E090E08150A0F51C
:101C600091111092280240E250E068E072E086ECA8
:101C700091E00E94AA31892B21F180E2E6ECF1E0AB
:101C8000A8E0B2E001900D928A95E1F7E0918D0411
:101C9000F0918E043097A9F080914A01882359F081
:101CA0008091960487FF07C08091C6018093C70189
:101CB00086E08093C6010280F381E02D86EC91E0FE
:101CC0000995089586E0C7CF2191222339F29F5FBD
:101CD000C5CF882321F00E94080C0E94140E08959D
:101CE000882339F090912A02982B90932A020E941F
:101CF000140E08950F931F93CF93DF938B01EA0186
:101D00009091BD04943061F58093E9008FEF90913C
:101D1000E800815095FD06C095ED9A95F1F7000019
:101D20008111F5CF8091E80085FF1AC00E94B006AE
:101D3000811111C08091E80085FD06C08091E80006
:101D40008E778093E800F2CFF80181918F01809324
:101D5000F100219779F78091E8008E778093E80071
:101D6000DF91CF911F910F91089543E050E0BC01A6
:101D700082E00E947A0E089546E050E0BC0182E0C5
:101D80000E947A0E0895CF93DF93EC0180914A016F
:101D9000811111C048E050E0BE0181E00E947A0E3E
:101DA00080E2FE01ABE9B4E001900D928A95E1F783
:101DB000DF91CF9108958091960487FF05C040E29E
:101DC00082E050E0BE01EACF48E081E0FACF6091C6
:101DD000460180917D0480FF20C08091450143E051
:101DE000849FC001112483539D4F539A2BB1277FA9
:101DF0003BB138605FB7F894FC01649FE00DF11DC2
:101E00001124BF0168177907D1F45FBF8FE594E013
:101E10000197F1F700C0000008958091470190916B
:101E2000480123E0829FF0011124E353FD4F8917FD
:101E3000A0F61182108212828F5F3396F8CFFC01D8
:101E40004191CF01E8E03BB9000000C047FF2BB94A
:101E5000440F000000C000C000C02BB900C0EA95CC
:101E600091F7D0CF0F931F93CF93DF93EC0110E046
:101E700000E0909149019017110609F06CF40E945E
:101E8000E70E8C8190E00196817099278C83DF9119
:101E9000CF911F910F91089520914701A801420F02
:101EA000511D9A01220F331F240F351F23533D4F1D
:101EB0004C8160917F0480917E0496959017110665
:101EC00051F04CF0442349F0409180040E94D8081E
:101ED0000F5F1F4FCECF4423B9F340E0F7CFB0E000
:101EE000A0E0E5E7FFE00C948E30EC014C81042F7C
:101EF00010E09801D8010E946C329B01AC010E9455
:101F000037324B015C01E0E2F0E0E01BF10BA5E5AC
:101F1000B0E0AC019B010E9437326B017C019F0154
:101F2000DF010E94F3309B01AC010E9442329B0111
:101F3000AC01280D391D4A1D5B1DC701B6010E9469
:101F40004A32F22E822F90E039E23F1520F143E031
:101F5000249F9001112435952795122F109500E0AC
:101F600085E5E82EEF1880914901081718F10E94C5
:101F7000E70E9C8181E0992319F0903219F48FEFDC
:101F80008093440180914401890F8C83CDB7DEB7E3
:101F9000ECE00C94AA3025E530E0B901681B790B20
:101FA0009B01220F331F260F371F37FFD4CF2F5F20
:101FB0003F4FD1CF8E2D01FD8F2D20914701622FF4
:101FC000600F7727771F9B01220F331F260F371FC4
:101FD00023533D4F412F60917F040E94D8080F5F2B
:101FE000C2CFEF92FF920F931F93CF93DF93EC0139
:101FF0008C81811109C081E08C831092CB0292E028
:102000009093430180934201809147019091480150
:1020100023E0829FF0011124E353FD4F891758F10B
:1020200010E003E060914901161758F10E94E70E95
:10203000809142012091CB02280F2093CB029091F6
:102040004301980F90934301191654F4022E000C8B
:10205000330B409149014150550B2417350734F09B
:10206000819580934201813009F41C82CDB7DEB79F
:10207000E6E00C94B0301182108212828F5F3396AA
:10208000CDCFE12EF12C70E0C7010E94D930209114
:102090004701820F482F50E02091CB02022E000C06
:1020A000330BE216F306BCF020914301022E000C24
:1020B000330B2E153F057CF0809F90011124235394
:1020C0003D4F4091800460917F0480917E040E9486
:1020D000D8081F5FA7CFFA01EE0FFF1FE40FF51F0F
:1020E000E353FD4F118210821282F3CFB0E0A0E0E3
:1020F000ECE7F0E10C948E30EC018A81BB24BA94B9
:1021000080FD02C0BB24B394A09049018C81811151
:1021100009C081E0B81220C08FEF8A0D8093CA02F7
:1021200081E08C83F12CE12C46E3942EEA14B8F084
:102130000E94E70E8091CA0291E0B91257C0811146
:1021400050C08091490181508093CA021C82CDB752
:10215000DEB7ECE00C94AA301092CA02E1CF0091F5
:1021600047010E0D1F2D111DC801880F991F080F63
:10217000191F03531D4FF80111821082128234E09F
:10218000C32ED12C812C8091CA02880D87332CF16B
:10219000692D0E94CB30892F082E000C990B8E15CB
:1021A0009F0591F4809180048C9DA0018D9D500D20
:1021B00011245595479555954795980160917F0451
:1021C00080917E040E94D8088B0CF1E0CF1AD108D0
:1021D000D1F68FEFE81AF80AA9CF87FFDDCF8A0D75
:1021E000DBCF81508093CA02BC82B1CF90E00196D0
:1021F0006091490170E00E94D9308093CA028C83BB
:10220000A6CFEF92FF921F93CF93DF93EC0110E0E4
:10221000EE24EA94F12C60914901161770F00E94A7
:10222000E70E9A818C8190FF27C08F5F8C83DF91AE
:10223000CF911F91FF90EF90089520914701422F79
:10224000410F5527551FCA019A01220F331F280F2E
:10225000391F23533D4F70E0C7010E94D930962F9C
:102260008C814091800460917F04199F800D11241E
:102270000E94D8081F5FCFCF8150D8CF90917D04A6
:1022800090FF0EC0909147012091480133E0939F49
:10229000F0011124E353FD4F921718F00E94E70E4E
:1022A00008958183608342839F5F3396F5CFA3E0D7
:1022B000B0E0EDE5F1E10C9496308C018091CC0218
:1022C00081110AC09E012F5F3F4F48E76FEF0E94C8
:1022D000D8088A818093CC02F8016481613069F06A
:1022E0008091CC0240E0662361F040E0623011F45E
:1022F0004091CC0280E060E004C06091CC0240E0FC
:1023000080E00E943E11F801848190E0019663E034
:1023100070E00E94D93084832396E4E00C94B230BC
:10232000A3E0B0E0E6E9F1E10C94983090917D04EF
:1023300090FF0AC09E012F5F3F4F0E94D8084B813B
:1023400069818A810E943E112396E2E00C94B430A8
:10235000CF93DF93EC01EDE7F4E0438162818C8160
:102360000E9490118C818F5F8C83DF91CF910895B3
:10237000CF93DF93EC01EC81F0E0E853FB4F449105
:10238000EDE7F4E0628181810E9490118C818F5F82
:102390008C83DF91CF910895B0E0A0E0E2EDF1E110
:1023A0000C9490307C015B016A0180915E0201E037
:1023B00010E08A3010F40AE010E0C1E0D0E0B5018E
:1023C000C701F6010995811104C021960C171D075C
:1023D0002CF4CDB7DEB7EAE00C94AC30CC9F900182
:1023E000CD9F300D300D112490E080E045E34A95FB
:1023F000F1F70000019682179307C1F7E0CF8091B3
:102400003902811110C08091D80080618093D8007A
:102410008AE18A95F1F700C08091D90080FF0AC057
:1024200081E08093390281E090913902913009F086
:1024300080E0089582E0809339020E949106109214
:10244000BD04F1CF0E94FF11882359F0E0918D0463
:10245000F0918E04309729F00190F081E02D0995DC
:10246000089580E008950F931F930E94FF11882321
:1024700029F00E94FF071F910F9108950E94FF0706
:1024800000915F021091600220916102309162021E
:10249000600F711F821F931FEECFB0E0A0E0E3E555
:1024A000F2E10C9492306C017B0164E670E088E705
:1024B0000E94D22D8C01E601EC0CFD1C17FD0BC017
:1024C000FE01849164E670E00E943E2E8C0121960C
:1024D000CE15DF0599F70E94B42E81E00115110594
:1024E00009F080E0CDB7DEB7E8E00C94AE30809123
:1024F000890490918A04911103C091E0892708957D
:10250000882369F062E070E08AEC95E00E944D1249
:10251000811103C0809189040895109289048091EB
:102520008904EBCFCF93C091890480918A048823DA
:10253000D1F00E94FF07605A75418F4F9F4F609303
:102540008504709386048093870490938804C11156
:1025500008C062E070E088EC95E00E944D128111A5
:1025600005C0C09189048C2FCF91089581E080939C
:102570008904F7CFB0E0A0E0E0ECF2E10C948A30FF
:10258000FC016280448081E08483E8ECF4E0749094
:10259000E7E4F5E0E491C0918004C695C158D0E02D
:1025A000CC0FDD1FCD2FDD27812C75E0972EAA24BF
:1025B000AA94B12C55245A94E719EE2EF12C80914F
:1025C0004901881638F00E94E70ECDB7DEB7E0E18A
:1025D0000C94A630C82CD12C82E0861568F09C9C07
:1025E000F0019D9CF00D1124E159FC4F80917E0477
:1025F000808380917F048183411023C09C9CF001E3
:102600009D9CF00D1124E159FC4F13821282209100
:102610004701C601820F911D9C01220F331F280F15
:10262000391F23533D4F9C9CF0019D9CF00D1124BC
:10263000E159FC4F4281618180810E94D8088394D6
:10264000BECF9C9C80019D9C100D112401591C4FF4
:10265000F80183818823F1F081508383859DC00137
:102660001124648170E00E947430FB01FF27E8535D
:10267000FB4F8491E82FE719E59DC0011124B701B4
:102680000E94743080918004689FB0011124F80189
:102690007283BDCF0E948431B5010E94D9308C175E
:1026A0009D070CF0B4CFF2E0F61598F40E94843147
:1026B000B5010E94D930F80180830E9484312091B5
:1026C0007F042695622F70E00E94D930280FF80110
:1026D00021839C9CF0019D9CF00D1124E159FC4F3D
:1026E000128280918004893C58F088EC9C9CF00117
:1026F0009D9CF00D1124E159FC4F8483838387CF87
:102700008431A0F784E1F2CFB0E0A0E0EAE8F3E1A1
:102710000C948E3049015A016B017C010E94C20861
:102720008401A4016A2D7B2D88E090E00E94F6319F
:1027300094014A2D5B2DB601C70100E20E941D31B4
:10274000622F84E290E00E94E431CDB7DEB7ECE086
:102750000C94AA30A3E0B0E0E0EBF3E10C949130EC
:10276000082FE62EF42EC22E90917D0490FF40C0DB
:1027700020917E04281308C080917F04861304C032
:1027800080918004841729F08091C902826080932F
:10279000C902E92FE695AE2FB0E0A856BE4F8C9146
:1027A0008093C7029E7F923039F59E012F5F3F4F85
:1027B0004F2D6E2D802F0E94D8084B8169818A8110
:1027C0000E943E1100937E04E0927F04F092800408
:1027D000CC2071F020917D0460918104709182047D
:1027E000302FA70180918304909184040E94841368
:1027F0002396E9E00C94AD30823019F4F090800417
:10280000E1CF8630A1F1893091F18931D9F6E951D2
:102810006E2F6170B62EE695F0E0ED53FB4F1491EC
:10282000D12C60914901D61618F00E94E70ECACF4C
:10283000D19EC001112470E00E947430802FB1102D
:1028400014C0860F20914701622F6D0D7727771FE7
:102850009B01220F331F260F371F23533D4F4F2D50
:102860006E2D0E94D808D394DCCF861BEBCF022FAD
:10287000A9CFEDE7F4E0438121E1421B08F440E0F9
:1028800021E0628181810E94AA130895EDE7F4E0BE
:10289000438121E1420F08F44FEF21E06281818101
:1028A0000E94AA130895EDE7F4E0628121E1621B22
:1028B00008F460E021E0438181810E94AA13089519
:1028C000EDE7F4E0628121E1620F08F46FEF21E0AF
:1028D000438181810E94AA130895EDE7F4E081818C
:1028E00021E0438162818A500E94AA130895EDE796
:1028F000F4E0818121E043816281865F0E94AA1316
:10290000089580918104882319F081508093810477
:1029100020917D0430917E0440917F045091800489
:102920006091810470918204809183049091840469
:102930000E948413089580918104833018F48F5F7E
:102940008093810420917D0430917E0440917F0426
:10295000509180046091810470918204809183047D
:10296000909184040E9484130895EDE7F4E083E0DD
:10297000808311828FEF828388E783831482A7ECA0
:10298000B2E012968C911297836012968C937581A7
:1029900023E030E04FEF58E760E0868197810E94A6
:1029A000841308959091970492FB222720F9281709
:1029B00079F080FB92F9909397046091960470915E
:1029C000970484E090E00E94023282E00E94DA0CD8
:1029D0000895A4E0B0E0EFEEF4E10C94973040915C
:1029E00042025091430260914402709145022FB718
:1029F000F8948091920490919304A0919404B091E2
:102A000095042FBF841B950BA60BB70B11E08436E2
:102A10009105A105B10570F10E9433126E5F7F4FE1
:102A20008F4F9F4F69837A838B839C83809115019D
:102A3000909116018A5B9D4F4091140150E0453002
:102A4000510510F044E050E0BE016F5F7F4F0E94DF
:102A5000B73182E090E00E94FE2F182F882351F0BA
:102A60000E94FF07609342027093430280934402E6
:102A700090934502812F2496E3E00C94B330ABE0B1
:102A8000B0E0E5E4F5E10C94983088E0EDE7F4E09F
:102A9000DE01119601900D928A95E1F78091C702AF
:102AA0009091C802A091C90289879A87AB872B852C
:102AB00040915A0250915B0260915C0270915D02FC
:102AC0003FB7F8948091920490919304A09194045C
:102AD000B09195043FBF841B950BA60BB70B8436B2
:102AE0009105A105B10510F4222319F180911D0172
:102AF00090911E018A5B9D4F40911C0150E04C302B
:102B0000510510F04BE050E0BE016F5F7F4F0E9417
:102B1000B73183E090E00E94FE2F882369F00E9485
:102B2000FF0760935A0270935B0280935C0290935C
:102B30005D021092C90281E02B96E2E00C94B43061
:102B4000EF92FF921F93CF93DF9300D000D00F92AC
:102B5000CDB7DEB77B0190E080E00E94FE2F182FFA
:102B6000882309F487C04091070150E041155105C1
:102B700011F041E050E060910801709109016A5B39
:102B80007D4FCE0105960E94B73140913E02509193
:102B90003F0260914002709141022FB7F8948091FA
:102BA000920490919304A0919404B09195042FBF46
:102BB000841B950BA60BB70B84369105A105B105B7
:102BC00040F487E492E00E947A069D81891709F417
:102BD00051C081E090E00E94FE2F81111AC010E0E8
:102BE00080913A0290913B02A0913C02B0913D024B
:102BF000F70180839183A283B383812F0F900F907D
:102C00000F900F900F90DF91CF911F91FF90EF9059
:102C1000089540910F0150E04530510510F044E017
:102C200050E060911001709111016A5B7D4FCE01FF
:102C300001960E94B73187E492E00E947A069D8156
:102C40008913CDCF0E94FF0760933E0270933F022D
:102C5000809340029093410289819A81AB81BC812B
:102C600080933A0290933B02A0933C02B0933D02C2
:102C700011E0B6CF8091470290914802A09149029D
:102C8000B0914A0289839A83AB83BC831111E4CF4C
:102C9000A7CFA8E0B0E0EFE4F6E10C94983066EE40
:102CA0007EEF90E080E00E94023260E082E090E0FF
:102CB0000E94E43160E083E090E00E94E4311092F1
:102CC0002C0210922B0260E074E184E090E00E94FC
:102CD000023260E086E090E00E94E4316FEF87E02E
:102CE00090E00E94E43140E050E0BA0188E090E0DA
:102CF0000E94F63160E084E290E00E94E43160E0FE
:102D000087E190E00E94E43160E08CE090E00E9476
:102D1000E43160E08DE090E00E94E43119821A8293
:102D20001B821C821D821E821F82188648E050E092
:102D300068E170E0CE0101960E94D43140E050E09D
:102D4000BA0180E290E00E94F63140E050E0BA0122
:102D50008FE090E00E94F63140E050E0BA0183E15C
:102D600090E00E94F6312896E2E00C94B4301F9275
:102D70000F920FB60F9211242F933F934F935F93AF
:102D80006F937F938F939F93AF93BF93EF93FF9333
:102D90008091E10082FF09C08091E20082FF05C0BE
:102DA0008091E1008B7F8093E1008091DA0080FFC9
:102DB00024C08091D80080FF20C08091DA008E7FEF
:102DC0008093DA008091D90080FF9DC080E189BDA9
:102DD00082E189BD09B400FEFDCF81E08093BD048E
:102DE00080919804811109C00E9491060E943207C7
:102DF0008091E20084608093E2008091E10080FF96
:102E000017C08091E20080FF13C08091E2008E7FA6
:102E10008093E2008091E20080618093E2008091E3
:102E2000D80080628093D80019BC85E08093BD04EF
:102E30008091E10084FF2BC08091E20084FF27C0D5
:102E400080E189BD82E189BD89B5982F917080FFAD
:102E5000FBCF8091D8008F7D8093D8008091E100D6
:102E60008F7E8093E1008091E2008F7E8093E2006C
:102E70008091E20081608093E2008091BE0488230B
:102E800009F447C084E08093BD048091BD04809123
:102E9000E10083FF27C08091E20083FF23C080917F
:102EA000E100877F8093E10082E08093BD0410926F
:102EB000BE048091E1008E7F8093E1008091E2006A
:102EC0008E7F8093E2008091E20080618093E20037
:102ED00042E060E080E00E9400078091F00088609E
:102EE0008093F000FF91EF91BF91AF919F918F91EF
:102EF0007F916F915F914F913F912F910F900FBEF6
:102F00000F901F90189519BC1092BD041092980450
:102F100074CF8091E30087FD93E09093BD04B5CF1B
:102F200078941F921FB61F9211248F939F93AF9393
:102F3000BF938091920490919304A0919404B091D6
:102F400095040196A11DB11D809392049093930462
:102F5000A0939404B0939504BF91AF919F918F91EA
:102F60001F901FBE1F9018959C014FB7F894809139
:102F7000920490919304A0919404B09195044FBF52
:102F8000821B930B08952FB7F8948091920490912F
:102F90009304A0919404B09195042FBF08950E94CA
:102FA000C3179C019091BD028091BE02982B21F025
:102FB0003093BA022093B9029091BF028091C0026F
:102FC000982B21F03093B8022093B702E0918D0442
:102FD000F0918E04309749F082E08093BB02048028
:102FE000F581E02D8BEB92E00995089510922A026D
:102FF00080914A01E8ECF1E0882329F18091960460
:1030000087FF21C08EE1DF011D928A95E9F790E0EC
:1030100080E00E948F0890E080E00E946A08109291
:1030200029020E94140E86E0EBEBF2E0DF011D9214
:103030008A95E9F71092B4021092B5021092B60286
:103040000E94CF17089586E0DECFAAE2B0E0EBE25F
:10305000F8E10C9497308FEB94E02091F100FC01A3
:103060002193CF01F4E0873C9F07B9F78091C0041A
:10307000833009F470C0B8F4813009F447C082305D
:1030800009F4B1C08091E80083FF7EC28091BF0443
:103090009091C0049A3008F077C2E92FF0E0E3582D
:1030A000FD4C0C94ED308A3009F48CC08B3009F45F
:1030B0006FC0893039F78091BF04813219F7809150
:1030C000C3049091C4040297E8F68091E800877FDA
:1030D0008093E8008091E80082FF38C09091F3006F
:1030E0008091F200029731F48091F100813011F06B
:1030F000863021F48091F10080939A048091E80059
:103100008B778093E8000E94E106BCCF8091BF04DA
:10311000813A09F0B7CF8091E800877F8093E8007B
:103120008091C3049091C404892B61F460E28BE91F
:1031300094E070E00E948D078091E8008B77809387
:10314000E800A0CF60E090E080E0F3CF8091BD0484
:103150008111C0CF97CF8091BF04813A09F092CFFF
:103160008091C3049091C404892B09F08BCF809186
:10317000E800877F8093E8008091E80080FFFCCF23
:1031800080914A018093F1008091E8008E77B9CF59
:103190008091BF04813209F075CF8091C304909172
:1031A000C404892B09F06ECF8091E800877F80935B
:1031B000E8000E94E1068091C10480934A010E94C8
:1031C000F61760CF8091BF04813209F05BCF809108
:1031D000E800877F8093E8000E94E1068091C204A6
:1031E000809399044FCF8091BF04813A09F04ACF70
:1031F0008091E800877F8093E8008091E80080FF5D
:10320000FCCF80919904BECF803899F0823809F0C4
:10321000BBC18091C3048F70873008F0B5C1809323
:10322000E9008091EB0085FB882780F91092E90086
:1032300006C08091BB049091BC0491118260909172
:10324000E800977F9093E8008093F1001092F100DE
:103250008091E8008E7794C1882309F482C182307E
:1032600009F092C18091C104811185C18091C3048C
:103270008F702FEF280F263008F086C18093E90069
:103280002091EB0020FF77C1933031F48091EB0067
:1032900080628093EB006FC19091EB0090619093FE
:1032A000EB0021E030E001C0220F8A95EAF720937D
:1032B000EA001092EA008091EB008860EACF811169
:1032C00063C11091C1041F778091E3008078812B46
:1032D0008093E3008091E800877F8093E8000E945C
:1032E000E1068091E80080FFFCCF8091E3008068D8
:1032F0008093E30082E0111183E08093BD0444C118
:103300008058823008F040C18091C1049091C2047D
:103310008C3D23E09207A1F583E08A838AE28983CA
:103320004FB7F894DE01139620E03EE051E2E32F20
:10333000F0E050935700E49120FF03C0E295EF7056
:103340003F5FEF708E2F90E0EA30C0F0C7968D930C
:103350009D932F5F243159F74FBF8091E800877FFD
:103360008093E8006AE270E0CE0101960E948D072A
:103370008091E8008B778093E80006C1C096E7CF84
:103380004091C3045091C404292F332723303105C1
:1033900009F444C078F52130310509F46FC08BE39E
:1033A00090E0E6ECF6E02230310509F0EDC0209126
:1033B000E800277F2093E8002091C5043091C604DF
:1033C0008217930708F49C0140E02115310509F0AC
:1033D00064C0411162C08091E80082FDC9CF809134
:1033E000BD04882329F2853019F28091E80083FF1B
:1033F000F2CFBECF21323105A9F12232310509F0D9
:10340000C3C04115510509F443C04130510509F0CD
:10341000BBC086EB90E0ECECF5E0C9CF992781309A
:103420009105C1F0009759F0029709F0ADC0E3E1B2
:10343000F7E0E4918E2F90E0E3E1F7E007C0E3E3EB
:10344000F7E0E4918E2F90E0E3E3F7E0009709F4D2
:103450009BC0ADCFE1E2F7E0E4918E2F90E0E1E296
:10346000F7E0F4CF4115510571F04130510509F0F5
:103470008BC089E090E0E1EFF6E099CF82E190E047
:10348000E1E0F7E094CF89E090E0E8EDF6E08FCF5F
:1034900084E490E0E2E8F6E08ACF8091BD048823DE
:1034A00009F466CF853009F463CF8091E80083FD8D
:1034B0005FCF8091E80082FD8ECF8091E80080FF91
:1034C00084CF9091F3008091F2002115310519F01D
:1034D0008830910550F041E0089709F040E0809174
:1034E000E8008E778093E80070CF44914093F1001C
:1034F0003196215031090196E8CF803809F044C057
:103500008091E800877F8093E8008091BE048093DB
:10351000F1009ECE811138C01091C1041230A0F587
:103520008091E800877F8093E8001093BE040E949A
:10353000E106112311F084E005C08091E30087FDCE
:10354000FACF81E08093BD0442E061EC81E00E940B
:10355000000742E261EC82E00E9400078091BD0416
:1035600013C08091C104813079F481E0933009F077
:1035700080E08093BC041092E9008091E800877F8E
:103580008093E8000E94E1068091E80083FF0AC072
:103590008091E800877F8093E8008091EB00806253
:1035A0008093EB00AA96E3E00C94B3301F920F9245
:1035B0000FB60F9211242F933F934F935F936F9306
:1035C0007F938F939F93AF93BF93CF93DF93EF93AB
:1035D000FF93D091E900DF708091EC00C82FC1709B
:1035E00080FDC0E81092E9008091F000877F809311
:1035F000F00078940E9425181092E9008091F00064
:1036000088608093F000CD2BCF70C093E900FF91CC
:10361000EF91DF91CF91BF91AF919F918F917F916A
:103620006F915F914F913F912F910F900FBE0F902F
:103630001F9018950E94F6172FEF84E39CE021500D
:1036400080409040E1F700C0000088E19AE00FB6AA
:10365000F894A895809360000FBE90936000FFCF10
:10366000662309F45DC08D3C41F40E949309819565
:103670008093BE020E94CF1708958E3C19F40E94D9
:103680009309F6CF8F3C31F40E9493098195809382
:10369000BD02F0CF803D19F40E949309F8CF893D17
:1036A00029F40E9471098093BF02E4CF8A3D21F47E
:1036B0000E9471098195F7CF8B3D31F40E94710909
:1036C00081958093C002D6CF8C3D19F40E94710978
:1036D000F8CF9FE2980F983070F4815D990B21E04C
:1036E00030E001C0220F8A95EAF78091BC02822B5C
:1036F0008093BC02BFCF8D3D31F48091B6028160D2
:103700008093B602B7CF8E3D21F48091B6028260DD
:10371000F7CF8F3D09F0AECF8091B6028460F0CF35
:103720004091BD028D3C59F48091BE0287FF0DC0CF
:103730001092BE0241110BC01092B40208C08E3C20
:1037400081F48091BE0218169CF3442381F080918D
:10375000BF029091C002892B09F08CCF1092B50264
:1037600089CF8F3C49F447FFF0CF1092BD02809182
:10377000BE028111ECCFE0CF803D19F41416ACF3FA
:10378000E4CF9091BF02893D29F41916F4F6109206
:10379000BF02DBCF8A3D19F497FFD7CFF8CF9091C6
:1037A000C0028B3D29F497FFD0CF1092C002CDCF3D
:1037B0008C3D19F41916CCF3C8CF9FE2980F9830BE
:1037C00090F4815D990B21E030E0B90102C0660FF1
:1037D000771F8A95E2F7CB0180959091BC028923EF
:1037E0008093BC02B2CF8D3D31F48091B6028E7FC2
:1037F0008093B602AACF8E3D21F48091B6028D7FD0
:10380000F7CF8F3D09F0A1CF8091B6028B7FF0CF2B
:10381000882399F19CEF980F913A40F4682F86EC39
:1038200091E00E940B080E94140E089590E2980FF8
:10383000983050F4877091E001C0990F8A95EAF7AB
:10384000892F0E94080CEFCF9BE5980F933028F446
:1038500090E080E00E948F08089598E5980F9B31D2
:1038600028F490E080E00E946A08089593E3980F9E
:10387000933118F460E00E94301B0895CF93C82F55
:103880008823D9F18CEF8C0F813AC8F580914A01D9
:10389000882311F18091960487FF1EC0EC2FE695D6
:1038A000E695E695F0E0EA53FE4F828190E04C2FDA
:1038B000477021E030E002C0220F331F4A95E2F743
:1038C00082239323892B91F06C2F86EC91E00E9448
:1038D0000B080E94140E0AC0E8ECF1E08EEC91E0B7
:1038E0002191C21789F38E179F07D1F76C2F86ECB1
:1038F00091E00E9435080E94140ECF91089580E255
:103900008C0F883068F4C77021E030E001C0220FCE
:10391000CA95EAF780912A02822B80932A02EBCF84
:10392000EBE5EC0FE33040F4F0E0E55BFE4F808127
:1039300090E00E948F08E1CFE8E5EC0FEB3150F406
:10394000F0E0EE0FFF1FE25BFE4F808191810E944D
:103950006A08D3CF83E38C0F833178F661E08C2F34
:103960000E94301BCACF1F93CF93DF93182FD0E054
:10397000C0E0893311F4C0E5D0E0812F0E943E1CE5
:10398000209739F4812F0E94081CDF91CF911F915D
:1039900008958FE99FE00197F1F700C0000021979B
:1039A000EFCF0F931F93CF93DF93C62FD42F022F08
:1039B000FC0185818823A9F0609303050E94C31749
:1039C0009093020580930105C77081E001C0880FC4
:1039D000CA95EAF70E94700EDF91CF911F910F9167
:1039E000089580910305681332C08091010590917C
:1039F00002050E94B417883C910548F510E21D0F9E
:103A0000CD17B9F080E28C0F883040F4C77081E0A8
:103A100001C0880FCA95EAF70E94690E183048F471
:103A200081E09D2F977001C0880F9A95EAF70E9458
:103A3000700E802F0E94B31C183070F6D77081E092
:103A400001C0880FDA95EAF70E94690EC5CFC770EA
:103A500081E001C0880FCA95EAF7F6CF0E94FF11F6
:103A6000882319F00E94C31708950E943312CB01D6
:103A7000089560917D04669570E04BE050E087E327
:103A800091E00E949D31892B19F481E08093C80256
:103A90000E942E1D9093C2028093C1028091C902A0
:103AA00084608093C902089590917D0490FF39C08D
:103AB0009170811137C0926090937D048091C9020A
:103AC00081608093C902662391F020917D0430913A
:103AD0007E0440917F045091800460918104709134
:103AE000820480918304909184040E9484136091E5
:103AF0007D04669570E04BE050E087E391E00E9422
:103B00009D31892BB1F00E94BB0881E08093C402F3
:103B100020E04091800460917F0480917E040E94A7
:103B2000AA1308958B3210F09465C6CF880F982B96
:103B3000C3CF0E94391DE9CF80917D0486958150C5
:103B400009F48AE261E00E94541D089580917D0489
:103B500086958F5F8B3208F081E061E00E94541DF2
:103B6000089590917D0490FF08C09695981728F0CD
:103B7000961718F40E94A61D089561E00E94541D36
:103B80000895B0E0A0E0E7ECFDE10C948C308C01EE
:103B9000FC018481882309F43CC121E040815181EA
:103BA0006281738195810E94290DEC01F801858164
:103BB000882309F457C0818180938E02808180938D
:103BC0008D0280E280932F01D0938C02C0938B02F0
:103BD000CE0190528115904238F4F8018681807FA1
:103BE00009F445C0FE010AC0CE01905481159041F0
:103BF00060F5F8018681807FFE0109F0FF27ED3333
:103C0000F10528F4E455FF4FE491E0932F01C4340B
:103C1000FEE7DF0709F0DDC048E9E42E41E0F42EBD
:103C20005AE0652EF7012491222309F1213009F091
:103C300079C0319684918130C9F5F2E0EF0EF11C24
:103C4000F70184910E94B31C3AC0CE019A95811568
:103C50009F4108F4C7CFCE01805A92458097B8F2B1
:103C6000FE01CDCFC4342EE7D20709F0B2C0F8016F
:103C70008581882309F4CBC410920305CE019057A7
:103C8000839708F0AEC484E090E00E94CE31909318
:103C9000970480939604FE01E150F047E232F1056B
:103CA00008F0D3C0E957FD4C0C94ED30823059F444
:103CB000F2E0EF0EF11CF70184910E943E1C2FEF01
:103CC000E21AF20AAFCF833041F4F2E0EF0EF11CBA
:103CD000F70184910E94081CF2CF843009F077C06C
:103CE000F2E0EF0EF11CF701249190E080E0F70183
:103CF00031962053330B2A30310548F00197F8F202
:103D0000EFE9FFE03197F1F700C00000F7CF689EC0
:103D1000A001699E500D1124C901840F951F2491A3
:103D20007F01E5CFE22FF0E0E85EFE4F7490822F36
:103D300086958695869590E0FC01E85FFE4FA490FD
:103D40002770B12C022E02C0B594A7940A94E2F712
:103D500031E0A322BB24FC01E850FF4F8490912C5A
:103D6000022E02C0959487940A94E2F7E1E08E2235
:103D70009924FC01E851FF4FC490D12C02C0D59486
:103D8000C7942A95E2F7F1E0CF22DD24A114B10413
:103D900019F081EE0E943E1C8114910419F086EE08
:103DA0000E943E1C872D0E94B31C8114910419F0BF
:103DB00086EE0E94081CA114B10419F081EE0E9445
:103DC000081CC114D10409F47ACF8CE23BCF7F01E7
:103DD00076CFFE01E851FC47E730F10508F047CF08
:103DE000E755FD4C0C94ED3026E241EE61EEC80142
:103DF0000E94D11C80910702877059F0F8018581DB
:103E0000882339F08091970482FF03C082E00E94EA
:103E1000DA0CCDB7DEB7EEE00C94A83027E245EE21
:103E200065EEE5CF26E241EE60EEE1CF27E245EE1A
:103E300064EEDDCF26E241EE62EED9CF27E245EE19
:103E400066EED5CF28E241E0EBCF80919604816009
:103E50008093960495C0809197048860809397041E
:103E60008FC0809196048260F3CF80919604846025
:103E7000EFCF809196048860EBCF809197048160AA
:103E8000EDCF809197048260E9CF809196048061A4
:103E9000DFCF809196048062DBCF809196048064AE
:103EA000D7CF0E94F617809196048068D1CF809179
:103EB00096048C60CDCF809197048360CFCF8091A2
:103EC00096048E7FC5CF80919704877FC7CF80915E
:103ED00096048D7FBDCF809196048B7FB9CF809162
:103EE0009604877FB5CF809197048E7FB7CF80915E
:103EF00097048D7FB3CF809196048F7EA9CF809158
:103F000096048F7DA5CF809196048F7BA1CF0E94D0
:103F1000F617809196048F779BCF80919604837FCC
:103F200097CF809197048C7F99CF8091960482FBE4
:103F3000992790F921E0922790FB82F990FB83F971
:103F400087CF80919704982F909591708E7F892BC1
:103F500090FB81F983CF90919604892F8F7B96FFF8
:103F6000806476CF0E94F61790919604892F97FB74
:103F700087F980586DCF61E08EE090E00E94E431D7
:103F8000609196047091970484E090E00E94023260
:103F90000E94F6172FCF60E0EFCF90919604892F03
:103FA0008F7E94FF806154CF90919604892F8E7FED
:103FB00090FF81604DCF90919704892F877F93FF69
:103FC00088604CCF8091E60169E2811165E386EC5F
:103FD00091E00E940B0818C380917D0480FF1EC0F1
:103FE000282F2E7F20937D0430917E0440917F0402
:103FF00050918004609181047091820480918304C7
:10400000909184040E9484130E94BB088091C9028D
:1040100081608093C9020E94E70EECCE816080939C
:104020007D0461E086950E94541DE4CE4CE95DE17B
:1040300066EA7DE10E94B408DDCE46EA5DE16CE906
:104040007DE1F8CF4DE654E167E774E1F3CF47E750
:1040500054E16DE674E1EECF43E554E160E674E1CE
:10406000E9CF40E654E163E574E1E4CF49E354E18C
:1040700066E474E1DFCF46E454E169E374E1DACF4A
:1040800041E854E16BE974E1D5CF4BE954E161E8D3
:1040900074E1D0CF61E081E0C6CF65E082E00E94AC
:1040A000B11DA8CE68E086E0FACF6EE089E0F7CFD8
:1040B00064E18FE0F4CF67E185E1F1CF61E088E171
:1040C000B2CF62E289E1EBCF61E083E2ACCF6AE29A
:1040D00085E2E5CF0E94F617FFEF24E33CE0F150C4
:1040E00020403040E1F700C000000E94EE076FEF73
:1040F0007FEF90E080E00E9402320E941A1B8091C4
:10410000970482FB882780F991E089270E94D214C6
:10411000F8018581C081D181882309F44AC0CE018C
:104120000E94190CF82E682FCE010E948D0CBE0142
:104130008F2D0E94CB0A0E94EA0AD82FC92FA82EE1
:10414000F801C580B680B2943FE0B32280910702A7
:104150008770F1F0EC2CCC20E1F0892F807F803447
:1041600051F080E28D0F883098F0B11004C0892F93
:10417000807E803269F08091970482FF09C082E0DE
:104180000E94DA0C809107028770EE24E39481117B
:10419000E12CDC2ED2942FE0D222FBE0FD1508F4B6
:1041A0006DC0ED2DF0E0E055FD4C0C94ED3080E05D
:1041B000ADCFCE010E945A0CF82EB9CF2C2F2F7004
:1041C000F22EC07F19F0F29490EFF922CC20B9F0D2
:1041D000FF2069F080E28D0F883010F0A11009C037
:1041E00080912A02F82AF0922A020E94140E8D2F42
:1041F00043C080912902F82AF0922902F6CF8D2F30
:104200000E94081CFF20D1F1D05ED83010F0A11020
:1042100004C08F2D0E94080C06C0F09480912902E2
:10422000F822F09229020E94140E28C03C2F3F7001
:10423000F32EC07FC03219F0F29480EFF822AA204A
:1042400059F081E0A81609F479C0CC2009F485C0A2
:10425000BB2009F447C0CBCF8091970482FD3EC0BC
:10426000CC20B1F1FF2039F080912A02F82AF09297
:104270002A020E94140E80E00E943E1C2D2D285020
:10428000330B2430310510F40E942212EE20A9F0E5
:104290008091070280FD11C0F801158286958695F0
:1042A00086950E94F10CC8010E94C11D80910702F1
:1042B0008695869586950E94C80C20E0F80140817D
:1042C000518162817381848195810E94290DA1CDE4
:1042D00080E00E94081CFF2089F29BCFCC20A1F037
:1042E000B11004C08F2D0E94700EC8CF91E0B9129A
:1042F000C5CF809128029F2D9823F91609F4BECFCF
:10430000F82AF0922802BACFB110B8CF8F2D0E94B0
:10431000690E909128028F2D892329F08F2D809589
:104320008923809328028091E7019F2D982309F427
:10433000A5CFF094F822F092E701A0CFCC2029F08D
:10434000E5E0EB1508F49ACFCDCFF4E0FB1508F4C7
:1043500095CF8F2D0E94690E91CFBB20D1F329E319
:10436000A21209C03FEF87EE93E0315080409040A9
:10437000E1F700C000008D2F0E94081C7FCF8C2F1A
:1043800086958695837069F0813009F077CF8D2FFF
:104390009C2F9370C11002C080E090E00E946A08D8
:1043A0006DCF8D2F9C2F9370C11002C080E090E0E4
:1043B0000E948F0863CF6C2D8D2F0E94301B5ECF23
:1043C0008C2F837009F03FC0C11058CF4D2F4295FC
:1043D00046954770440F440F2D2F2F7030E0042E68
:1043E00002C0220F331F0A94E2F790E080E0D4FF6E
:1043F00009C08FE090E002C0880F991F4A95E2F74C
:1044000080959095C695C695C370C23099F078F4A2
:1044100040912B0250912C02C13039F0822B932B0A
:10442000842395230E94010D29CF242B352B822B29
:10443000932BF8CF822B932B20912B0230912C02BF
:1044400082279327EFCF8695CC2011F08C2F817097
:10445000882309F413CF4D2F429546954770440F9A
:10446000440F2D2F2F7030E0042E02C0220F331F77
:104470000A94E2F790E080E0D4FF09C08FE090E07A
:1044800002C0880F991F4A95E2F780959095C695CE
:10449000C695C370C23099F078F440918202509171
:1044A0008302C13039F0822B932B842395230E9401
:1044B000C30CE4CE242B352B822B932BF8CF822BED
:1044C000932B209182023091830282279327EFCF92
:1044D000CF70CC2029F08C2F0E94F10C8D2F03CFB0
:1044E0008D2F0E94690E8C2F0E94C80CC7CE8D2F75
:1044F000E2EFAE1699F1EA1570F0F0EFAF16D1F0D9
:1045000021EFA21691F0CC2009F45BC0B1106FCE60
:104510008C2F8F7127C033EFA31639F194EFA912B6
:10452000F2CF8091970482FD2EC08C2F8F71CC200A
:10453000D9F218C0CC2069F0E4E0EB1508F49ECE67
:10454000CF7181E090E002C0880F991FCA95E2F711
:10455000B8CFF5E0FB1508F491CEF2CF8C2F8F7118
:10456000C110C2CF0E94F10C89CE90E080E0CC2037
:1045700009F49DCFCF7181E090E002C0880F991FB0
:10458000CA95E2F794CFCC2089F0CF718C2F0E948E
:10459000F10C8091970482FF07C028E0C29FC00100
:1045A00011248360809307028C2FDCCF81E00E946E
:1045B000DA0C31E03B1508F061CE82E00E94DA0CA3
:1045C0005DCEBB2059F0893309F0D5CE8FEF97EE41
:1045D000E3E081509040E040E1F7CBCE8C2F8F712B
:1045E00083CFC6312CE7D20729F580912A028A7A37
:1045F00091E009F490E09093E60169E2811165E3AE
:1046000086EC91E00E9435080E94140EF3CBC6316F
:104610003CE7D30709F4D6CC80912A028272FE01CE
:10462000E052F847E531F10508F072CDE454FD4C55
:104630000C94ED30C3308CE7D80709F458CD50F412
:10464000C115ECE7DE0709F445CDC130DC4709F4BC
:1046500054CD5ECDCB352CE7D20709F4A8CDCC35AF
:104660003CE7D30709F44BCDCA35DC4709F050CD00
:1046700081E04CCDCF93DF9380910602807F09F0DB
:104680004DC080910502882309F448C0E0910005DF
:104690005091C704C0910102D091000260910202C2
:1046A0007091030247E05E17C9F18E2F90E0E49FFE
:1046B000F0011124E853FB4F2481222391F1489FFC
:1046C000F001499FF00D1124DF01A853BB4F119653
:1046D0002C9111972C1325C02C912D1322C01596C7
:1046E0002C91159721111DC012962D913C91261BDE
:1046F000370B283C3105A8F4809106028F70806149
:1047000080930602E253FB4F80818F70806180832B
:1047100080E092E00E94C11D0E940F0CDF91CF91BA
:104720000895FC013196E770BECFA4E1B0E0EBE95B
:10473000F3E20C948E308C0186E0F801DE011F96C6
:1047400001900D928A95E1F7F8018481E58090E06F
:10475000A92E92E0B92E90910402911128C08823CD
:1047600019F1EE20F1F0C8010E94060DF82E882301
:10477000C1F087E0F801D50101900D928A95E1F72B
:1047800080910402813031F4809100029091010205
:104790000E944D0C0E943A238F2D6496ECE00C94FD
:1047A000AA30C8010E94C11DFF24F394F5CFD08028
:1047B000C18082809380F0900502209102023091A6
:1047C0000302A401421B530BFF2009F4D9C0483C4B
:1047D000510508F092C08823F9F29091010280916E
:1047E0000602282F207F09F056C0C91214C09091EC
:1047F0000002D91210C0E11048C08F708061809310
:10480000060280E092E00E94C11D80910602F8013C
:104810008683F12CC1CFE11038C06C2D8D2D0E9404
:104820005B066C2D8D2D0E945B06E82E8111F1CF69
:10483000DF86C88A8F8598890E944D0C292F229582
:104840002F70243058F49F70223088F0992399F00B
:10485000F8019681907F79F4FE2C9ECF2A5F2F700D
:10486000223068F0C8010E94C11DEF2CF5CF9923BA
:1048700011F0882389F3805E883070F3F3CF803F96
:1048800058F3815F833070F7E7CF80910602816033
:1048900080930602BECFC91207C090910002D912C0
:1048A00003C0EE2009F48DC0C8010E94060D8823C4
:1048B00009F477CFEE2009F474CF8091060280329C
:1048C00088F02091000230910102398728879B8669
:1048D0008A86909104029C871D868E87CE01089659
:1048E0000E94C11D87E0F801A0E0B2E001900D92A6
:1048F0008A95E1F70E943A2357CF90910602292F1B
:10490000207F51F480E092E00E94C11D87E0F50114
:1049100011928A95E9F77DCF882309F43DCF8091E4
:1049200001028C1110C080910002D8120CC0E1105D
:104930000AC09683C8010E94C11D87E0F50111924B
:104940008A95E9F729CFC8010E94060D882309F44A
:1049500028CFEE2009F425CF80910602803210F294
:1049600020910002309101023A8329839C828B823C
:10497000909104029D831E828F83CE010196B0CF59
:10498000483C5105D0F6882309F40ECFFE2CEE20CA
:1049900009F407CF809101028C1120C080910002A0
:1049A000D8121CC08091060280FD0FC0982F907F06
:1049B00061F08683903F31F0982F907F905F8F70E9
:1049C000892B8683C8010E94C11D87E0F801A0E001
:1049D000B2E001900D928A95E1F7DECEC8010E9407
:1049E000060D81117FCF80910602816080930602BF
:1049F000C8010E94C11DD0CEABE1B0E0E2E0F5E21B
:104A00000C9496304E8B5F8B688F798F8A8F9B8F3B
:104A1000192F9111109229021D8A86E0FE017696C7
:104A2000DE011F9601900D928A95E1F70A8D002311
:104A300041F021E04F85588969897A89C8010E942F
:104A4000290D0B8B1C8B87E0FE013F96DE0118962B
:104A500001900D928A95E1F7CE0108960E94952368
:104A600081110CC087E0FE013896DE01119601909D
:104A70000D928A95E1F78C8581110BC017E080912A
:104A800000059091C704891331C06B96E4E00C9443
:104A9000B2302091C70430E0C90101968770992790
:104AA000409100054817190699F097E0929FD001B0
:104AB000939FB00D1124A853BB4FFE013196019076
:104AC0000D929A95E1F78093C7040E940F0CD6CF00
:104AD0000E94F6171092C7041092000587E0E0E0EC
:104AE000F2E0DF011D928A95E9F7C8CF819FC001EE
:104AF000112488539B4F0E949523882331F2809183
:104B0000000590E001968770992780930005B7CF44
:104B1000A3E1B0E0EEE8F5E20C948D308E01045F85
:104B20001F4F88E0D8011D928A95E9F786E8C82EC4
:104B300081E0D82EF12CE12CAA24A394B12C20E9F9
:104B4000822E21E0922EF60181916F018F3F09F4B0
:104B500042C0F894E82FE295EF70F0E021A18F7049
:104B6000A50102C0440F551F8A95E2F7CA01922F92
:104B7000982B91A392A18095892382A3789400C059
:104B8000EAE8F1E0712C31E021912F3F09F46BC08C
:104B9000A22FA295AF70B0E090968C9190E02F700C
:104BA00002C0959587952A95E2F780FD5CC0832F1A
:104BB000782A330F8E169F0639F7F60131978081D8
:104BC0008F3F11F00E94C30950EA5A95F1F7F8019E
:104BD000EE0DFF1D70828FEFE81AF80AA4E0EA16C6
:104BE000F10409F0B0CF48E050E0B80183E692E06C
:104BF0000E94AA31009741F028E0F801A3E6B2E054
:104C000001900D922A95E1F700916C02892B69F1D0
:104C100081E0809331020E94C31790933002809309
:104C20002F0280912F02909130020E94B4170597B5
:104C300000F110E002591D4F44E050E063E672E0DD
:104C4000C8010E94AA31F12C892B51F084E0E3E6DF
:104C5000F2E0D80101900D928A95E1F7FF24F394D8
:104C60001092310207C080E0A3CF80913102811100
:104C7000D8CFF12C0E94FF11E82EE0916C0288231E
:104C800009F47DC019821A821B821C820E2F10E04B
:104C900002591D4F80915E028A30D8F540EA55E1F5
:104CA000BE016F5F7F4FC8010E94CC11882309F4B9
:104CB00055C049EE54E1BE016F5F7F4FC8010E94AD
:104CC000CC11882309F44AC04FE355E1BE016F5F60
:104CD0007F4FC8010E94CC11882309F43FC0109275
:104CE0005E0280916B0290E044E050E0BE016F5F95
:104CF0007F4F82599D4F0E94AA3121E020933802B4
:104D0000892BF1F4E12C8E2D8F296396EDE00C9424
:104D1000A93080913202909133020E94B417843FEF
:104D2000914008F0BBCF80913802882359F384E08A
:104D3000FE013196DF011D928A95E9F71092380243
:104D4000E0916B02F0E0E259FD4F89819A81AB81DD
:104D5000BC8180839183A283B383D5CF80915E028F
:104D60008F3F31F08F5F80935E028A3008F4B9CFB5
:104D70000E94C3179093330280933202D4CFF0E0A5
:104D8000E259FD4F84E0A7E4B2E001900D928A95CC
:104D9000E1F787E492E00E947A06809346028090D1
:104DA0004B0290904C02A0904D02B0904E02809128
:104DB000340290913502A0913602B09137028816E4
:104DC0009906AA06BB06D1F0809234029092350271
:104DD000A0923602B09237020E94FF1181110EC0DC
:104DE0000E94FF07861A970AA80AB90A80925F02F2
:104DF00090926002A0926102B09262028BE0EFE4B6
:104E0000F2E0DE01119601900D928A95E1F7809112
:104E10004F028695D0905002C0905102B09052023D
:104E2000009158021091590210925902112309F46D
:104E30006ACF10FF0BC0298190917D0420FF1AC01A
:104E4000916090937D0460E00E94541D11FF06C0A4
:104E500020E04B2D6C2D8D2D0E94AA1312FF04C053
:104E60000023A9F00E94391D13FF4DCF81E08093EC
:104E7000C40249CF9E7F90937D040E94BB0880911D
:104E8000C90281608093C9020E94E70EDFCF0E94B1
:104E9000BB08EACFA6E0B0E0E0E5F7E20C9496307C
:104EA0000E94C3178C0180912D0290912E028017D1
:104EB000910781F019821A820E94C317682F4981D5
:104EC0005A81792F80E090E00E94FC2410932E02FA
:104ED00000932D022696E4E00C94B2301F921FB688
:104EE0001F9211248F939F93AF93BF93809191044E
:104EF000811113C08091920490919304A091940425
:104F0000B09195044196A11DB11D80939204909398
:104F10009304A0939404B0939504BF91AF919F9193
:104F20008F911F901FBE1F901895CDB7DEB7609769
:104F30000FB6F894DEBF0FBECDBF85B7806885BFC2
:104F400085B7806885BF84B7877F84BF0FB6F89424
:104F5000A895809160008861809360001092600045
:104F60000FBE80E890E00FB6F894809361009093B4
:104F700061000FBE81EC99E09093C5018093C4015C
:104F80000E9491060E9432078091E2008460809323
:104F9000E20078948091BD048823A1F01091E9008B
:104FA0001F709091EC00892F817090FD80E8182B84
:104FB0001092E9008091E80083FD0E9425181F707F
:104FC0001093E90082E084BD93E095BD9AEF97BD10
:104FD00080936E0010925F02109260021092610244
:104FE000109262020E94FF1180932401809124019B
:104FF000882309F475C0109245018BE18093460126
:105000000E94FF1181110E94122F80912401809132
:10501000240194E0811190E090936C0284E0891B5C
:1050200080936B0284E90E94C30986E60E94C3094B
:1050300087E90E94C30986EC0E94C3090AE811E0CF
:10504000D8018D918D018F3F11F00E94C309B1E00D
:1050500000391B07A9F788E0EEE6F2E0DF01282F10
:105060001D922A95E9F7E3E6F2E0DF011D928A95A9
:10507000E9F790E080E00E94CE31863E9E4F11F02D
:105080000E94491682E090E00E94C031809376022F
:1050900084E090E00E94CE31909397048093960430
:1050A0000E948825EFEFF6E721E0E150F040204034
:1050B000E1F700C000000E9488250E94FF11E4E093
:1050C0008111E0E0F0E0E259FD4F808181FF0CC0EA
:1050D0006FEF7FEF90E080E00E9402320E94EE07C7
:1050E0008BE1809345018ACF83E090E00E94C0313C
:1050F00090E00E94010D0E94FF11811133C182E0F6
:105100008093AF0280E8809304050E94CC2D6BE071
:1051100070E082E393E00E944D128823E9F18091D0
:10512000AF0265E070E081FD1FC18DE293E00E9457
:105130004D12882389F16DE070E08BE193E00E94CD
:105140004D12882349F10E94FF07605A75418F4F25
:105150009F4F609385047093860480938704909397
:105160008804E7E0F5E080E092E0DF019C011D9219
:1051700021503040E1F7F0930E07E0930D078FEFD9
:105180009FEF909306058093050581E080938A0444
:10519000809389041092B00280916D0281117BC0CE
:1051A00090E080E00E94CE31863E9E4F21F00E942A
:1051B00049160E94B51488E090E00E94C8314B0166
:1051C0005C0184E290E00E94C031282F30E040E092
:1051D00050E060E070E080E090E000E20E94023188
:1051E000282939294A295B2920937D0430937E049C
:1051F00040937F04509380046093810470938204F1
:1052000080938304909384048091C9028360809387
:10521000C9022E7F89F50E94B51488E090E00E94B3
:10522000C8316B017C0184E290E00E94C031282FDC
:1052300030E040E050E060E070E080E090E00E940C
:105240000231B22FA32FF42FE52F5B0197018601C6
:10525000BC29A12BFE29E32BB0937D04A0937E04EF
:10526000F0937F04E093800460938104B092820401
:1052700080938304909384040E94C2080E94BB0818
:1052800080917D0480FF04C060E086950E94541DDB
:1052900081E080936D020E94FF11811102C00E9483
:1052A000152F85E291E090938E0480938D04DD2488
:1052B000D394AAE04A2E512C612C712C8091BD040C
:1052C00000E112E1853009F48BC00E94882507E7D0
:1052D00012E0FEE6EF2EF2E0FF2ED701F8019191E9
:1052E0008D9122E0EF37F20709F484C09817B9F3E3
:1052F0000E94FF11382EC12CD701BD907D01F8010D
:1053000081908F018B1429F18B24A12C99249394E3
:10531000882D8921B1F03320A1F0AF82C8860E9488
:10532000C3179A878987DB8691E08B2D892109F441
:1053300090E09C874F81588569857A858B850E948E
:10534000FC24A394990CF6E0AF12E2CFF801319758
:10535000B082C39428E0C212CFCF0E943312CC2473
:10536000C3944DC080E0CCCE88E293E0E0CE809143
:10537000BD04843031F10E9477121092910488E1CB
:1053800090E0A0E40FB6F894A895809360000FBE5B
:10539000A093600083B7817F846083BF83B78160FF
:1053A00083BF7894889583B78E7F83BF0FB6F894B8
:1053B000A8958091600088618093600010926000E1
:1053C0000FBE8091BC04882359F00E948825EEE628
:1053D000F2E081918111BBC3B2E0E637FB07C9F768
:1053E0008091BD04853009F4C2CF0E94F6170E9457
:1053F00022126BCF98137CCF0E944A27C12C0E94A7
:10540000FF118091C802882309F463C08091C7020C
:10541000E0917D04E695E81BE093C302823009F039
:10542000AFC0F0E0E25BFC4FE4910E2F10E0E8EB40
:10543000EE2EE1E1FE2E8091C402882361F01092ED
:10544000C4020E942E1D9093C2028093C10210924A
:10545000C6021092C5020E942E1DE091C102F09179
:10546000C2029C012E1B3F0B2F3F3F4790F520911E
:1054700081022223B1F01092810220917F023091AB
:105480008002821B930B8F3F9F4758F4205D3A4860
:105490003093800220937F028091C90288608093BC
:1054A000C902A090C502B090C602E00FF11FF093B0
:1054B000C202E093C10281EC92E0F701099580916C
:1054C000C5029091C602892B21F4AB2811F0D0922D
:1054D000810280918A04882309F421C18091B1025C
:1054E0009091B2020E94B417C29708F4F8C00E94CB
:1054F000C3179093B2028093B10287E095E0909336
:105500000E0780930D070E94FF11882309F42FC214
:1055100083E793E00E94CE0D2091820230918302B6
:10552000832F9927009709F497C09C0188E0A9016F
:10553000F4E056954795FA95E1F74115510511F0BC
:105540008C5F9A01A9015695479556954795411547
:10555000510511F08E5F9A0136952795232B09F09E
:105560008F5F813009F4BDC1882309F477C0823090
:1055700009F4BAC1833009F4BAC182E593E070C07E
:10558000863059F4F0E0E55BFC4FE4910E2F10E01B
:1055900078EAE72E71E1F72E4ECF893061F4E69577
:1055A000F0E0E85BFC4FE4910E2F10E061E0E62EA6
:1055B00061E1F62E40CF8F3061F4E695F0E0EB5BD1
:1055C000FC4FE4910E2F10E056E7E52E50E1F52E4A
:1055D00032CF853159F4F0E0EE5BFC4FE4910E2FB1
:1055E00010E041EFE42E4FE0F42E25CF08E210E06A
:1055F0009FE6E92E9FE0F92E883109F41CCF833213
:1056000049F4E0E4F3E00591149137E5E32E31E14C
:10561000F32E11CF8432C9F000ED17E0BAEBEB2E78
:10562000B8E0FB2E853209F006CF8E2F63E00E9492
:10563000BF30E92FF0E0E35CFC4FE4910E2F10E067
:105640002AEBE22E22E1F22EF6CE04EF11E082E305
:10565000E82E8FE0F82EEFCE80E069CF8BE693E066
:105660000E940E0E80918E02805D0E944E0D81E898
:1056700093E00E94CE0D80918D02805D0E944E0DC0
:105680008DE793E00E94CE0D80908B0290908C026B
:1056900020912D0130912E018216930609F02AC126
:1056A00020918A02203209F025C1E4E8F2E08F015E
:1056B00081918032E1F3F80101900020E9F79F0128
:1056C0002150310979010E151F0508F44AC18BE7F5
:1056D00093E00E94CE0D80912F010E944E0D80918B
:1056E000050590910605892B09F046C18091890432
:1056F0008823A9F00E94FF07009185041091860479
:105700002091870430918804601B710B820B930BEE
:105710006F3F7F4F8F4F9F4710F40E947712C11049
:105720000E94921286E0EBEBF2E0DE01119601900E
:105730000D928A95E1F7C090BC02F090BD021091E5
:10574000BE02E090BF020091C0021092BD02109212
:10575000BE021092BF021092C002812F8F2909F45D
:1057600045C08091B9029091BA020E94B4179C0181
:105770009091B402992309F40AC225313105B0F1A0
:105780009F3F19F09F5F9093B402FF2059F00E9451
:1057900093099FEF1F140CF491E0899F802D112431
:1057A0008093BD02112359F00E94930991E01116D4
:1057B0000CF09FEF899F802D11248093BE02809171
:1057C000BD02882399F0B090BE02BB2079F00E9400
:1057D000B309882309F4AFC18093BD028B2D0E94C9
:1057E000B309882309F4AAC18093BE02802F8E29B1
:1057F00009F445C08091B7029091B8020E94B41795
:105800009C019091B502992309F4BCC12135310561
:10581000B0F19F3F19F09F5F9093B502EE2059F0D1
:105820000E9471099FEF1E140CF491E0899F802D56
:1058300011248093BF02002359F00E94710991E066
:1058400010160CF09FEF899F802D11248093C002C9
:105850008091BF02882399F0E090C002EE2079F099
:105860000E94B309882309F46CC18093BF028E2D76
:105870000E94B309882309F467C18093C002809114
:10588000BC028C1117C08091BD02882311F08F11CA
:1058900011C02091BE02222311F012130BC090916F
:1058A000C002992311F0901305C03091BF02332339
:1058B00009F463C10E94CF1786E0FE013196ABEB7D
:1058C000B2E001900D928A95E1F70E942212909128
:1058D000B302891709F4F2CC8093B3020E94FF0748
:1058E000EDCC85E693E0BCCE8FE593E0B9CE88E5BC
:1058F00093E0B6CE90922E0180922D0120E220936B
:105900008A02B12CA12C1092890254E8252E52E073
:10591000352E6FE7E62E62E0F62E8101C501B40157
:10592000A30192010E944A32605D603319F420168F
:10593000310631F081149104A104B10409F460E24C
:10594000D80114966C93C501B401A30192010E9481
:105950004A3249015A0101501109E016F106F1F6E7
:10596000A4CED8018D918D010E944E0DACCE83E85E
:1059700093E00E94CE0DB3CE80918A04882309F46F
:10598000B5CE8091B0028111B1CE0E9492122091C9
:105990000505309106052115310509F4A7CE80E0F3
:1059A00041E050E0282E312C5A01082E02C0AA0CEA
:1059B000BB1C0A94E2F7B50162237323672B11F431
:1059C0008F5FF0CF9091AF0290FF9BC0880F880F40
:1059D000880F8093320110923501895F80933301E3
:1059E00083E08093360124E630E047E050E060E356
:1059F00071E088E70E946C2E892B09F077CE95E044
:105A0000220C331C9A95E1F78091AF0280FF8BC086
:105A1000EFE8F2E080E2DF011D928A95E9F7E4E920
:105A2000F1E0F88BEF8780E9882E81E0982E07E07F
:105A3000AF85B8894D91B88BAF87F40181914F0143
:105A4000820D932D911D9C01295F3A4F3E872D8732
:105A5000E42FF0E0E157FD4F30E020E0F02EF21AA5
:105A600011E0022E01C0110F0A94EAF76D857E85C0
:105A700090E0DB018D91BD0181234F2D491B4770C3
:105A8000E42E042E000C550BB82F01C0BB0FEA9476
:105A9000EAF7EB2E5195419551094770552701C002
:105AA00086954A95EAF7E82A8081E82AE0829F5F96
:105AB0009830F9F62F5F3F4F31962830310571F657
:105AC000EF85F889E859F14009F0B2CF04E610E01B
:105AD00020E230E04FE852E060E488E70E948D2E3B
