:100000000C94E2050C94FF050C94FF050C94322E21
:100010000C94FF050C94FF050C94FF050C94FF0550
:100020000C94FF050C94FF050C945D160C947C1A3F
:100030000C9448260C94FF050C94FF050C94FF05C6
:100040000C94FF050C94FF050C94FF050C94FF0520
:100050000C94FF050C9436170C94FF050C94FF05C7
:100060000C94FF050C94FF050C94FF050C94FF0500
:100070000C94FF050C94FF050C94FF050C94FF05F0
:100080000C94FF050C94FF050C94FF050C94FF05E0
:100090000C94FF050C94FF050C94FF050C94FF05D0
:1000A0000C94FF050C94FF050C94FF0520202020E4
:1000B0006162636465666768696A6B6C6D6E6F70B8
:1000C0007172737475767778797A31323334353664
:1000D00037383930524542545F2D3D5B5D5C233BE0
:1000E00027602C2E2F202020290014001A00080041
:1000F000150017002B0004001600070009000A0075
:10010000E0001D001B0006001900050000000000B3
:100110000000E200E1002C412E00130012000C0050
:1001200018001C002A0033000F000E000D000B0009
:100130004C003800370036001000110000000000AD
:100140000000E300E100284229003B003C0052008F
:100150003E023E002B004200500051004F0045027D
:10016000E0001D014300440045001C0100000000A8
:100170000000E200E10001000000000031002D005D
:100180002D022C032A0000002F002F0226024F040C
:100190004C00000030003002270250040000000034
:1001A0000000E300E100284329001E021F02200294
:1001B000210225022B0034003402240231022302E2
:1001C000E000350035022D002E0222020000000062
:1001D0000000E200E1002C4300002700260025007B
:1001E00024003A002A0000002300220021004D00D4
:1001F0004C00490020001F001E004A0000000000C3
:100200000000E300E100010029002178237825782F
:10021000277829782B0022782478267828782A785D
:10022000E000207800000000000000000000000056
:100230000000E200E100010000000000AA00A900A7
:10024000000000002A000000AB00AE00AC004F0927
:100250004C000000000000000000500900000000F9
:100260000000E300E100010000DA0281FFD9F1DBC8
:1002700020A4A62EAF00A0C0D30000A1C8D30000C8
:10028000AED580A81F408D1420001E0F0500047FEE
:100290003F1F643214643214783C1E1E140A055544
:1002A0006E6465660041646A7573740052616973B7
:1002B00065004C6F7765720044656661756C74000B
:1002C0004C617965723A20003A002C206B0078006E
:1002D000808182838485868788898A8B8C8D8E8FA6
:1002E0009091929394A0A1A2A3A4A5A6A7A8A9AA1D
:1002F000ABACADAEAFB0B1B2B3B4C0C1C2C3C4C594
:10030000C6C7C8C9CACBCCCDCECFD0D1D2D3D400EA
:1003100000010101010101010101020202020202C8
:10032000020202030303030303030304040404049B
:100330000404050505050506060606060707070762
:100340000708080808090909090A0A0A0B0B0B0C17
:100350000C0C0D0D0D0E0E0E0F0F0F1010111111B4
:100360001212131314141515161617171818191935
:100370001A1A1B1B1C1D1D1E1E1F2020212222239A
:100380002424252626272829292A2B2C2D2D2E2FDB
:1003900030313232333435363738393A3B3C3D3EF2
:1003A0003F404142434445464748494A4C4D4E4FE1
:1003B00050515354555658595A5B5D5E5F616264A3
:1003C000656668696B6C6D6F7072737577787A7B30
:1003D0007D7E8082838587888A8C8E8F9193959687
:1003E000989A9C9EA0A2A3A5A7A9ABADAFB1B3B5A7
:1003F000B7BABCBEC0C2C4C6C9CBCDCFD1D4D6D883
:10040000DBDDDFE2E4E7E9EBEEF0F3F5F8FAFDFF20
:10041000FFAA7F55402223252628292A2C2D2F305C
:1004200032333536383A3B3D3E4042434547494AF0
:100430004C4E5051535557595A5C5E606264666821
:10044000696B6D6F71737577797B7D7F818385872C
:10045000898A8C8E90929496989A9C9E9FA1A3A52F
:10046000A7A8AAACAEAFB1B3B4B6B8B9BBBCBEBF57
:10047000C1C2C3C5C6C7C9CACBCCCDCED0D1D2D2DA
:10048000D3D4D5D6D7D7D8D9D9DADADBDBDBDCDCE5
:10049000DCDCDCDDDDDDDDDCDCDCDCDCDBDBDBDA9D
:1004A000DAD9D9D8D7D7D6D5D4D3D2D2D1D0CECD08
:1004B000CCCBCAC9C7C6C5C3C2C1BFBEBCBBB9B815
:1004C000B6B4B3B1AFAEACAAA8A7A5A3A19F9E9C9A
:1004D0009A98969492908E8C8A89878583817F7D65
:1004E0007B79777573716F6D6B6968666462605E46
:1004F0005C5A5957555351504E4C4A49474543420F
:10050000403E3D3B3A3836353332302F2D2C2A29A8
:10051000282625232200AF00AE05010902A101858E
:10052000020901A1000509190129081500250195F5
:1005300008750181020501093009311581257F9572
:10054000027508810609381581257F950175088196
:1005500006050C0A38021581257F9501750881066C
:10056000C0C005010980A101850319012AB7001542
:100570000126B700950175108100C0050C0901A185
:1005800001850419012AA002150126A00295017512
:10059000108100C005010906A1018506050719E0C3
:1005A00029E7150025019508750181020507190045
:1005B00029EF1500250195F0750181020508190143
:1005C0002905950575019102950175039101C005F5
:1005D000010906A101050719E029E7150025019584
:1005E0000875018102950175088101050719002927
:1005F000FF150026FF009506750881000508190102
:1006000029051500250195057501910295017503D0
:100610009101C009023B00020100A0FA0904000098
:100620000103010100092111010001224400070515
:1006300081030800010904010001030000000921F1
:100640001101000122B600070582032000011201FA
:1006500000020000000853460100010001020001F1
:100660000C0343006F0072006E0065000000100371
:1006700066006F006F007300740061006E00000080
:10068000040309040000000000003E5B4F5B3E00D5
:100690003E6B4F6B3E001C3E7C3E1C00183C7E3C7B
:1006A00018001C577D571C001C5E7F5E1C00001844
:1006B0003C180000FFE7C3E7FF0000182418000003
:1006C000FFE7DBE7FF0030483A060E0026297929CC
:1006D0002600407F05050700407F05253F005A3C66
:1006E000E73C5A007F3E1C1C0800081C1C3E7F0093
:1006F00014227F2214005F5F005F5F0006097F0104
:100700007F00006689956A0060606060600094A266
:10071000FFA2940008047E04080010207E20100030
:1007200008082A1C0800081C2A0808001E101010BF
:1007300010000C1E0C1E0C0030383E383000060E27
:100740003E0E060000000000000000005F000000F8
:10075000000700070000147F147F1400242A7F2A5A
:100760001200231308646200364956205000000826
:1007700007030000001C224100000041221C000071
:100780002A1C7F1C2A0008083E08080000807030E0
:100790000000080808080800000060600000201041
:1007A000080402003E5149453E0000427F400000DF
:1007B0007249494946002141494D33001814127FBE
:1007C00010002745454539003C4A4949310041213F
:1007D00011090700364949493600464949291E0092
:1007E0000000140000000040340000000008142243
:1007F00041001414141414000041221408000201D2
:10080000590906003E415D594E007C1211127C00D0
:100810007F49494936003E41414122007F414141E3
:100820003E007F49494941007F09090901003E41D5
:10083000415173007F0808087F0000417F4100009C
:100840002040413F01007F08142241007F4040408A
:1008500040007F021C027F007F0408107F003E41A1
:1008600041413E007F09090906003E4151215E00D9
:100870007F091929460026494949320003017F01B1
:1008800003003F4040403F001F2040201F003F40EA
:1008900038403F0063140814630003047804030025
:1008A0006159494D4300007F414141000204081055
:1008B0002000004141417F00040201020400404049
:1008C00040404000000307080000205454784000D6
:1008D0007F2844443800384444442800384444289D
:1008E0007F0038545454180000087E090200182470
:1008F000241C78007F080404780000447D40000038
:100900002040403D00007F102844000000417F400F
:1009100000007C04780478007C08040478003844E3
:10092000444438007C1824241800182424187C001F
:100930007C080404080048545454240004043F4430
:1009400024003C4040207C001C2040201C003C40F7
:1009500030403C004428102844004C9090907C008B
:100960004464544C44000008364100000000770005
:1009700000000041360800000201020402003C268B
:1009800023263C00000000000000000000000000E2
:1009900000000000C0E0F0F8F81800C0F0FCFEFF16
:1009A000FFFFFFFFFFFF7E000000000000000000CF
:1009B00080C0E0E0E0E0E0E0E0E0C08000000000B7
:1009C00080C0E0E0E0E0E0E0E0E0C080000000E0C7
:1009D000E0C0C0E0E0E0E00000E0E0C0C0E0E0E057
:1009E000E0E0C0800000000080C0E0E0E0E0E0E087
:1009F000E0E0C080000000000000000000000000F7
:100A00000000E0F0F0F0E0ECEEF7F37020007C7C0A
:100A10007C7E007E7E7E7F7F7F000080C0E07E5BEC
:100A20004F5BFEC00000C000DCD7DEDEDED7DC009E
:100A3000C0000000000000000000000000000000F6
:100A400000000000000000000000000000F8FCFEB4
:100A5000FFE000FFFFFFFFFFFF80FFFFFFFFFFFF43
:100A6000FFFFFF1F0701000000000000000000FF63
:100A7000FFFF8100000000000081C3C3C30000FF2E
:100A8000FFFF8100000000000081FFFFFF0000FF6A
:100A9000FFFF01000000000000FFFFFF0100000059
:100AA0000001FFFFFF0000FFFFFF9D1C1C1C1C1C22
:100AB0001C9DDFDFDF0000000000000000000000E0
:100AC00000000F1F3F7F7F7F7F7F3F1E0C001F1F97
:100AD0001F3F003F3F3F7F7F7F00307B7F7830208C
:100AE0002030787F3B0003000F7F0F0F0F7F0F0038
:100AF00003000000000000000000000000000000F3
:100B000000000000000000000000000000030F1FB4
:100B10003F3F3F3F1F1F3F3F7F7F7F3F3F1F3F7F45
:100B20007F7F7F7C7878381C0F0000000000000079
:100B30000103070707070707070703010000000075
:100B4000010307070707070707070301000000075E
:100B50000707000000000000000707070000000072
:100B60000000070707000000010307070707070742
:100B70000707030100000000000000000000000063
:100B80000000000000000000000000000000000065
:100B90000000000000000000000000000000000055
:100BA0000000000000000000000000000000000045
:100BB0000000000000000000000000000000000035
:100BC0000000000011241FBECFEFDAE0DEBFCDBF72
:100BD00027E0A4ECB1E001C01D92AF30B207E1F70D
:100BE00011E0A0E0B1E0E6E5F3E602C005900D9269
:100BF000A43CB107D9F70E946F260C9455310C9490
:100C00000000482F209100059091C70457E0291358
:100C100002C080E0089530E0529FF001539FF00D34
:100C20001124E853FB4F8181681306C0808148136B
:100C300003C085818111EECF2F5F3F4F2770E7CF33
:100C4000FC01AC014C5F5F4F8FEF91E32191822754
:100C500028E030E087FF09C0880F8927215031093B
:100C6000C9F7E417F50791F70895880FF7CFE8ED76
:100C7000F0E080818E7F80831092E2001092DA0093
:100C80001092E100A0EEB0E08C9181608C938081A5
:100C90008F77808319BCA7EDB0E08C918E7F8C9309
:100CA00080818F7E80831092980408952091E400C3
:100CB0003091E50095E6A9012091EC00822F81702A
:100CC00020FF06C08091E80080FF06C080E0089504
:100CD0002091E80022FD1AC08091BD04882389F08C
:100CE000853089F08091EB0085FD0FC02091E400F4
:100CF0003091E50042175307F9F29150E1F684E094
:100D0000089582E0089583E0089581E00895809138
:100D1000BF0487FF13C08091E80082FF06C0809166
:100D2000E8008B778093E80004C08091BD048111B6
:100D3000F2CF08958091BD048823D9F38091E80013
:100D400080FFF8CF8091E8008E77ECCF982F9093BA
:100D5000E900242F762F50E0891731F07091EC00D4
:100D60002091ED005091F00021FD07C09F5F97306A
:100D700071F78093E90081E008953091EB003E7FA8
:100D80003093EB003091ED003D7F3093ED003091DA
:100D9000EB0031603093EB007093EC002093ED009A
:100DA0005093F0002091EE0027FDE0CF80E0089501
:100DB000B0E0A0E0EEEDF6E00C946C2FC8EDD0E0D2
:100DC00088818F7E8883E7EDF0E080818160808379
:100DD00084E082BF81E08093980488818E7F88833D
:100DE00002EE10E0F80110821092DA0081EEC82EB7
:100DF000D12CF601108288818F7788838881806862
:100E0000888388818F7D888319BC1092BD041092DD
:100E1000BE041092BC041092BB0490EEE92EF12C9B
:100E2000F70180818B7F808388818160888342E0A5
:100E300060E080E00E94A606F60180818E7F8083BC
:100E4000F801808181608083808188608083F701E0
:100E500080818E7F8083888180618883CDB7DEB773
:100E6000E8E00C94882FFC018091C5049091C604A1
:100E700086179707A0F06115710529F49091E80095
:100E80009E779093E80090E06115710551F49111FF
:100E900008C08091E80082FF34C080E00895BC0162
:100EA000F2CF8091BD048823C1F18530C1F18091DA
:100EB000E80083FD30C08091E80082FDEACF809198
:100EC000E80080FFE1CF8091F3002091F200382FFD
:100ED0006115710519F02830310558F091E028307E
:100EE000310509F090E02091E8002E772093E8008A
:100EF000CBCF81918093F100615071092F5F3F4FFB
:100F0000E7CF8091BD04882341F0853041F0809186
:100F1000E80083FFBECF81E0089582E0089583E07A
:100F2000089580919A04089587E797E790930108C0
:100F30008093000888E19AE00FB6F894A895809312
:100F400060000FBE90936000FFCF2FB7F8946091C0
:100F500092047091930480919404909195042FBF12
:100F6000089520914A012223C9F02091960427FF79
:100F700015C0E62FE695E695E695EE31D8F4E80F34
:100F8000F92FF11D677021E030E001C0220F6A9552
:100F9000EAF720958281282322830895FC01329666
:100FA00008962191621303C0DF0111971C92E81784
:100FB000F907B9F7089520914A012223C1F0209141
:100FC000960427FF14C0E62FE695E695E695EE31E8
:100FD000F8F4E80FF92FF11D677021E030E001C04F
:100FE000220F6A95EAF78281822B82830895FC01A1
:100FF00032962FEF30E04191641751F02F3F19F4F2
:10100000411101C0232F3F5F3630A9F72F3F09F46C
:101010000895820F911D27FD9A95FC016283089522
:10102000A3E0B0E0E6E1F8E00C94722F20918F0489
:101030003091900428173907A1F090939004809381
:101040008F04E0918D04F0918E04309751F024E0EC
:1010500029839B838A830680F781E02DCE01019648
:1010600009952396E2E00C948E2FA3E0B0E0EBE329
:10107000F8E00C94722F20918B0430918C04281787
:101080003907A1F090938C0480938B04E0918D0438
:10109000F0918E04309751F023E029839B838A835B
:1010A0000680F781E02DCE01019609952396E2E0B6
:1010B0000C948E2FFA01811101C0FB01099508954E
:1010C0000895E7ECF2E011828281846082830895C2
:1010D00080917D04982F9E7F61F48170826080935F
:1010E0007D0480918004893718F088E7809380041C
:1010F00008958635B0F381708465F1CFAF92BF92C9
:10110000DF92EF92FF920F931F93CF93DF93182FED
:10111000062FE901493708F048E7E42FF0E0E05FE7
:10112000FC4F011110C0E4915E2F4E2F4983E883DC
:101130005A83DF91CF911F910F91FF90EF90DF9035
:10114000BF90AF900895202F30E04491D42EE42E2C
:10115000F12C56E0159FC0011124EFEFF0E0BF0124
:101160000E944E2F812F90E0880F991F55E5569FC2
:10117000D001579FB00D11248A1B9B0B982F990FFC
:10118000890F5F01A21AB30AAE9CD001AF9CB00DCB
:10119000BE9CB00D11245B2F089F80011124012FEC
:1011A00011275F01A01AB10AAE9C8001AF9C100DFF
:1011B000BE9C100D11245F01A81AB108A29EC001A7
:1011C000A39E900DB29E900D1124892F9927E81BA4
:1011D000F90BEE9DC001EF9D900DFE9D900D112429
:1011E000E92F62307105A1F050F46115710509F421
:1011F0009DCF6130710581F0EB2F512F97CF643077
:10120000710569F080F06630710509F48FCFF4CF75
:10121000E42F4B2F592F8ACFE42F412F87CFEB2F6D
:10122000542F492F83CF4B2F5D2DE12F7FCF8091FE
:10123000B60280FD16C081FD16C082FD16C08091E9
:10124000B5028823A1F0883280F428E0829FC00193
:10125000112468E270E00E94B32F862F672B39F0CB
:10126000089582E0089584E0089588E0089581E07B
:1012700008958091B60280FD14C081FD14C082FDE6
:1012800016C08091B402882381F08E3180F420E56D
:10129000829FC00111246EE170E00E94B32F862F5F
:1012A000089584E1089588E2089588E0089580E52E
:1012B0000895282F35EB2303C001112497FF04C0A4
:1012C00080589109892F089580589F4FFBCF80E067
:1012D0000895F894E82FE295EF70F0E031A1282FFF
:1012E0002F7081E090E001C0880F2A95EAF7982FCF
:1012F0009095932391A392A1892B82A3789408952A
:101300009091960492FF10C041E0282F2471243060
:1013100009F040E031E0282F2871283009F030E052
:10132000431711F02CE0822793FF10C041E0282FD3
:101330002471243109F040E031E0282F2871283150
:1013400009F030E0431711F02CE082273091970428
:1013500030FF10C051E0282F2171213009F050E0FA
:1013600041E0282F2871283009F040E0541711F08F
:1013700029E0822731FF10C041E0282F217121315F
:1013800009F040E031E0282F2871283109F030E0E1
:10139000431711F029E0822794FD877E0895823853
:1013A0009105B9F1B0F48133910509F47DC048F499
:1013B0008932910509F46DC08A32910509F47BC028
:1013C00008958533910509F45FC08933910509F1CA
:1013D0000895833E9105D9F138F4803E910529F1B5
:1013E000823E910579F10895863E9105D9F1873EB7
:1013F000910509F43EC0843E910541F52091970482
:1014000021FF24C08091960484FD19C087EE90E0EE
:10141000089520919604237009F05AC020919704F2
:1014200023FF14C089E290E008952091960420FDE6
:1014300038C03091970430FF09C024FF43C090E0CA
:1014400080E008952091960422FDF7CF0895209121
:10145000960422FD3AC03091970430FD39C024FF34
:10146000F5CFEDCF2091960423FFF0CF24FDE7CFF9
:10147000CDCF2091960423FD2EC03091970431FFEB
:10148000EECF84EE90E008952091960425FFDECF04
:10149000C9CF2091960425FD21C02091970423FFF8
:1014A000D5CF89E390E0D2CF2091960426FFCECF0E
:1014B0008AE290E008952091960426FFC7CF81E349
:1014C00090E0089583EE90E0089582EE90E0089514
:1014D00080EE90E0089586EE90E0089585E390E038
:1014E0000895972F7830B8F46630A8F48430B0F4BB
:1014F00070E026E0929F600D711D1124FB0190E3C6
:10150000899FE00DF11D1124EE0FFF1FE851FF4FE1
:1015100085919491089580E090E0089581E0FCCF5A
:101520001F93CF93DF930E94CF09EC01C11580E593
:10153000D807F0F5C11580E4D80708F09CC0C03E7C
:10154000D10520F5CD3CD10508F082C0C83AD105BF
:1015500078F4C53AD10508F073C0C130D10519F14E
:10156000209709F1C430D105F0F4D0E0C0E01BC0F1
:10157000C33CD105D0F7C85AD0E0CC0FDD1FC25B09
:10158000DE4F0990D881C02DD4640DC0C11580E212
:10159000D80708F0D1C0C11581E0D80708F05AC0BB
:1015A000C83ED10510F7CE01DF91CF911F9108956C
:1015B000C03682E5D80718F5C03482E5D80708F0B0
:1015C0006BC0C03282E5D80708F05FC0C11582E564
:1015D000D80708F497C02C2F2695269580E2289FDF
:1015E000900111248C2F8370C1E0D0E002C0CC0F99
:1015F000DD1F8A95E2F7C22BD32BDD68D4CFC03A2A
:1016000082E5D80760F4C03882E5D80708F459C0ED
:10161000CF71D0E0DC2FCC27C46FD06AC4CFC03CE0
:1016200082E5D80708F462C0C03E82E5D80708F01A
:101630009CCFDC2FCC27CC27DF71C06FD06AB3CF13
:10164000C55AD0E0C55BDE4FC881D0E0D064ABCFD7
:10165000D065A9CF8D2F0E948009182FCE01992720
:101660000E94CF09C12FD0E0DC2FCC27CC27DF711F
:10167000C82BD92B98CFCE0199270E94CF09CC2710
:10168000DF70C82BD92BD06A8ECFCF71D0E0DC2F82
:10169000CC27C16FD06A87CF2C2F2695269527702F
:1016A00080E2289F900111248C2F8370C1E0D0E04C
:1016B00002C0CC0FDD1F8A95E2F7C22BD32BDC686A
:1016C00072CF2C2F26952695277080E2289F9001B7
:1016D00011248C2F8370C1E0D0E002C0CC0FDD1F3D
:1016E0008A95E2F7C22BD32BDA685DCF8C2F8F71EE
:1016F0000E948009C82FD0E0DC2FCC27CC27DF71D7
:10170000D06251CF8C2F8F710E94800955E0D69501
:10171000C7955A95E1F7CF70D0E0DC2FCC27282F62
:1017200030E084FF05C044E0220F331F4A95E1F703
:10173000C22BD32BD06937CF8D2F8F710E94800998
:10174000182FCE0199270E94CF09C12FD0E0DC2F9E
:10175000CC27CC27DF71C82BD92BD2CF8095909185
:101760002A02982390932A0208958091000590916F
:10177000C704981301C008958F5F8770FACFB0E057
:10178000A0E0E5ECFBE00C946B2F7C010091820261
:101790001091830280912B0290912C02082B192B1F
:1017A000CFE0D0E0CC24C394D12CBC2EC6010C2EAB
:1017B00002C0880F991F0A94E2F780239123892B96
:1017C00049F4219790F7B12C8B2DCDB7DEB7E9E026
:1017D0000C94872FB7018C2F0E94710A0E94900AE7
:1017E000019779F3F1CFCF93DF93EC010E94BF0B08
:1017F000BE010E94710A0E94900ADF91CF91089564
:10180000983078F5863068F5E82FF0E086E0989F0C
:10181000E00DF11D11249E2F977083E0F695E7955A
:101820008A95E1F7EE0FFF1FEE0FFF1FE851FE4F05
:1018300050E040E080E0219130E0092E02C0369572
:1018400027950A94E2F721703327042E01C0220F56
:101850000A94EAF7822B4F5F5F4F4430510559F7E6
:10186000089580E00895983098F5863088F5E82F3F
:10187000F0E086E0989FE00DF11D11248E2F877017
:1018800041E001C0440F8A95EAF783E0F695E795B9
:101890008A95E1F7EE0FFF1FEE0FFF1FE851FE4F95
:1018A00030E020E070E05191DF011197CB01022E72
:1018B00002C0969587950A94E2F7817081958527F5
:1018C000842385278C932F5F3F4F2430310559F7B0
:1018D00008959093830280938202089521E030E07E
:1018E00002C0220F331F8A95E2F720953095809130
:1018F000820290918302822393230E94690C0895AF
:10190000909107028095892380930702282F2770E2
:1019100069F4891759F09091970492FF07C0869552
:10192000869586950E946E0C10920702089521E01C
:1019300030E002C0220F331F8A95E2F780918202C5
:1019400090918302822B932B0E94690C08959093AF
:101950002C0280932B020895FC0124812223C1F0E4
:10196000808191810E94F30B92959F70963091F047
:1019700058F4925F9F70923058F4803F19F030F421
:10198000883E30F481E008959A5FF4CF843FD1F32C
:1019900080E00895883EB0F3813FD1F7F3CFA6E011
:1019A000B0E0E5EDFCE00C94712F49835A83498146
:1019B0005A819923A1F0222391F0CA010E94BF0B02
:1019C000182F682F89819A810E94330C69817A814E
:1019D000812F0E94710A2696E3E00C948D2FCA0194
:1019E0000E94000C182FF2CFCF93DF93682F81E075
:1019F0006A3019F06D3031F480E00E94820DDF9181
:101A0000CF91089580910D0790910E0726E0FC017B
:101A1000A7E0B7E001900D922A95E1F7603E08F447
:101A200058C026E0FC0111922A95E9F7C0910D07F4
:101A3000D0910E0746E050E0BE0187E097E00E949B
:101A400084309E0127503540892B41F1C90145E082
:101A5000969587954A95E1F741E050E0BA0102C0BA
:101A6000660F771F8A95E2F7CB01609105057091AB
:101A70000605862B972BB9016B5F7F4FE5E07695C6
:101A80006795EA95E1F702C0440F551F6A95E2F7A2
:101A9000842B952B90930605809305052A5F3F4F75
:101AA00040910405642F70E0C9010E944E2F481B2D
:101AB000463010F4240F311D211572E0370710F065
:101AC00030E020E0295F3A4F30930E0720930D0756
:101AD00096CFF6E06F9FB00111246C57794F46E026
:101AE00050E00E946E30A2CFCF93DF93EC01FE0155
:101AF0008491811103C0DF91CF9108950E94F40C6D
:101B00002196F5CFCF93382FE0910D07F0910E0776
:101B1000E750F54020910405622F70E0CF010E944C
:101B20004E2F281B822F332361F066E00E94992FED
:101B3000C82FC15010F4CF91089580E20E94F40C98
:101B4000F8CF9F01280F311D2115324018F080E099
:101B5000F0E0E0E08E0F9F2F911D895F9A4F9093E8
:101B60000E0780930D07E7CF0E94740D81E00E945D
:101B7000820D089580912A0290912902892B8093E9
:101B8000C601909128029923A1F0892B8093C60168
:101B900080914A018823E1F18091960487FF38C043
:101BA0008EE1E8ECF1E090E08150A0F59111109207
:101BB000280240E250E068E072E086EC91E00E948A
:101BC0008430892B21F180E2E6ECF1E0A8E0B2E07C
:101BD00001900D928A95E1F7E0918D04F0918E04C9
:101BE0003097A9F080914A01882359F0809196049A
:101BF00087FF07C08091C6018093C70186E080936C
:101C0000C6010280F381E02D86EC91E009950895EC
:101C100086E0C7CF2191222339F29F5FC5CF882369
:101C200021F00E94AE0B0E94BA0D0895882339F06E
:101C300090912A02982B90932A020E94BA0D08953F
:101C40000F931F93CF93DF938B01EA019091BD0413
:101C5000943061F58093E9008FEF9091E800815016
:101C600095FD06C095ED9A95F1F700008111F5CF2D
:101C70008091E80085FF1AC00E945606811111C0AC
:101C80008091E80085FD06C08091E8008E77809302
:101C9000E800F2CFF80181918F018093F100219744
:101CA00079F78091E8008E778093E800DF91CF91FB
:101CB0001F910F91089543E050E0BC0182E00E9423
:101CC000200E089546E050E0BC0182E00E94200E04
:101CD0000895CF93DF93EC0180914A01811111C0E7
:101CE00048E050E0BE0181E00E94200E80E2FE014B
:101CF000ABE9B4E001900D928A95E1F7DF91CF91C5
:101D000008958091960487FF05C040E282E050E08C
:101D1000BE01EACF48E081E0FACF609146018091B0
:101D20007D0480FF20C08091450143E0849FC00175
:101D3000112483539D4F539A2BB1277F3BB13860B9
:101D40005FB7F894FC01649FE00DF11D1124BF0101
:101D500068177907D1F45FBF8FE594E00197F1F739
:101D600000C000000895809147019091480123E050
:101D7000829FF0011124E353FD4F8917A0F61182D1
:101D8000108212828F5F3396F8CFFC014191CF0110
:101D9000E8E03BB9000000C047FF2BB9440F00004A
:101DA00000C000C000C02BB900C0EA9591F7D0CFA9
:101DB0000F931F93CF93DF93EC0110E000E090911D
:101DC00049019017110609F06CF40E948D0E8C8168
:101DD00090E00196817099278C83DF91CF911F91BC
:101DE0000F91089520914701A801420F511D9A01BA
:101DF000220F331F240F351F23533D4F4C81609119
:101E00007F0480917E0496959017110651F04CF056
:101E1000442349F0409180040E947E080F5F1F4FC9
:101E2000CECF4423B9F340E0F7CFB0E0A0E0EBE140
:101E3000FFE00C94682FEC014C81042F10E0980116
:101E4000D8010E9446319B01AC010E9411314B0127
:101E50005C01E0E2F0E0E01BF10BA5E5B0E0AC01D5
:101E60009B010E9411316B017C019F01DF010E94E7
:101E7000CD2F9B01AC010E941C319B01AC01280DB0
:101E8000391D4A1D5B1DC701B6010E942431F22E87
:101E9000822F90E039E23F1520F143E0249F90012A
:101EA000112435952795122F109500E085E5E82E31
:101EB000EF1880914901081718F10E948D0E9C813E
:101EC00081E0992319F0903219F48FEF8093440147
:101ED00080914401890F8C83CDB7DEB7ECE00C9480
:101EE000842F25E530E0B901681B790B9B01220F97
:101EF000331F260F371F37FFD4CF2F5F3F4FD1CF70
:101F00008E2D01FD8F2D20914701622F600F7727C5
:101F1000771F9B01220F331F260F371F23533D4F7F
:101F2000412F60917F040E947E080F5FC2CFEF9225
:101F3000FF920F931F93CF93DF93EC018C8181115C
:101F400009C081E08C831092CB0292E09093430110
:101F500080934201809147019091480123E0829F44
:101F6000F0011124E353FD4F891758F110E003E00D
:101F700060914901161758F10E948D0E809142011F
:101F80002091CB02280F2093CB0290914301980F10
:101F900090934301191654F4022E000C330B409118
:101FA00049014150550B2417350734F08195809332
:101FB0004201813009F41C82CDB7DEB7E6E00C9413
:101FC0008A2F1182108212828F5F3396CDCFE12E3D
:101FD000F12C70E0C7010E94B32F20914701820FBE
:101FE000482F50E02091CB02022E000C330BE2165A
:101FF000F306BCF020914301022E000C330B2E158A
:102000003F057CF0809F9001112423533D4F409168
:10201000800460917F0480917E040E947E081F5F8F
:10202000A7CFFA01EE0FFF1FE40FF51FE353FD4F9B
:10203000118210821282F3CFB0E0A0E0E2E2F0E180
:102040000C94682FEC018A81BB24BA9480FD02C0F5
:10205000BB24B394A09049018C81811109C081E017
:10206000B81220C08FEF8A0D8093CA0281E08C8362
:10207000F12CE12C46E3942EEA14B8F00E948D0E68
:102080008091CA0291E0B91257C0811150C080916D
:10209000490181508093CA021C82CDB7DEB7ECE0C3
:1020A0000C94842F1092CA02E1CF009147010E0DCB
:1020B0001F2D111DC801880F991F080F191F0353E9
:1020C0001D4FF80111821082128234E0C32ED12CF0
:1020D000812C8091CA02880D87332CF1692D0E94D2
:1020E000A52F892F082E000C990B8E159F0591F4B2
:1020F000809180048C9DA0018D9D500D11245595DB
:10210000479555954795980160917F0480917E048D
:102110000E947E088B0CF1E0CF1AD108D1F68FEF28
:10212000E81AF80AA9CF87FFDDCF8A0DDBCF8150EF
:102130008093CA02BC82B1CF90E0019660914901C0
:1021400070E00E94B32F8093CA028C83A6CFEF92D7
:10215000FF921F93CF93DF93EC0110E0EE24EA94FB
:10216000F12C60914901161770F00E948D0E9A8132
:102170008C8190FF27C08F5F8C83DF91CF911F915F
:10218000FF90EF90089520914701422F410F55276E
:10219000551FCA019A01220F331F280F391F2353DD
:1021A0003D4F70E0C7010E94B32F962F8C81409164
:1021B000800460917F04199F800D11240E947E0885
:1021C0001F5FCFCF8150D8CF90917D0490FF0EC07C
:1021D000909147012091480133E0939FF001112431
:1021E000E353FD4F921718F00E948D0E08958183DE
:1021F000608342839F5F3396F5CFA3E0B0E0E3E0D6
:10220000F1E10C94702F8C018091CC0281110AC0F5
:102210009E012F5F3F4F48E76FEF0E947E088A8143
:102220008093CC02F8016481613069F08091CC0226
:1022300040E0662361F040E0623011F44091CC024E
:1022400080E060E004C06091CC0240E080E00E9449
:10225000E410F801848190E0019663E070E00E9450
:10226000B32F84832396E4E00C948C2FA3E0B0E09A
:10227000ECE3F1E10C94722F90917D0490FF0AC081
:102280009E012F5F3F4F0E947E084B8169818A81AA
:102290000E94E4102396E2E00C948E2FCF93DF93FC
:1022A000EC01EDE7F4E0438162818C810E943611FC
:1022B0008C818F5F8C83DF91CF910895CF93DF93D3
:1022C000EC01EC81F0E0EB5EFB4F4491EDE7F4E0D4
:1022D000628181810E9436118C818F5F8C83DF91B6
:1022E000CF910895B0E0A0E0E8E7F1E10C946A2F07
:1022F0007C015B016A0180915E0201E010E08A309E
:1023000010F40AE010E0C1E0D0E0B501C701F60129
:102310000995811104C021960C171D072CF4CDB727
:10232000DEB7EAE00C94862FCC9F9001CD9F300D54
:10233000300D112490E080E045E34A95F1F700006C
:10234000019682179307C1F7E0CF8091390281117E
:1023500010C08091D80080618093D8008AE18A956E
:10236000F1F700C08091D90080FF0AC081E080931E
:10237000390281E090913902913009F080E00895AE
:1023800082E0809339020E9437061092BD04F1CF9B
:102390000E94A511882359F0E0918D04F0918E04DC
:1023A000309729F00190F081E02D0995089580E0A3
:1023B00008950F931F930E94A511882329F00E946E
:1023C000A5071F910F9108950E94A50700915F0234
:1023D000109160022091610230916202600F711FC2
:1023E000821F931FEECFB0E0A0E0E9EFF1E10C9483
:1023F0006C2F6C017B0164E670E088E70E94AC2CD6
:102400008C01E601EC0CFD1C17FD0BC0FE01849154
:1024100064E670E00E94182D8C012196CE15DF0530
:1024200099F70E948E2D81E00115110509F080E0D9
:10243000CDB7DEB7E8E00C94882F809189049091A5
:102440008A04911103C091E089270895882369F0D7
:1024500062E070E087E195E00E94F311811103C012
:102460008091890408951092890480918904EBCFAA
:10247000CF93C091890480918A048823D1F00E946F
:10248000A507605A75418F4F9F4F609385047093E5
:1024900086048093870490938804C11108C062E089
:1024A00070E085E195E00E94F311811105C0C091B3
:1024B00089048C2FCF91089581E080938904F7CF10
:1024C000B0E0A0E0E6E6F2E10C94642FFC0162804B
:1024D000448081E08483E5E1F4E07490E4E9F4E091
:1024E000E491C0918004C695C158D0E0CC0FDD1FA7
:1024F000CD2FDD27812C75E0972EAA24AA94B12C2C
:1025000055245A94E719EE2EF12C80914901881632
:1025100038F00E948D0ECDB7DEB7E0E10C94802F2D
:10252000C82CD12C82E0861568F09C9CF0019D9C03
:10253000F00D1124E159FC4F80917E04808380913D
:102540007F048183411023C09C9CF0019D9CF00D71
:102550001124E159FC4F1382128220914701C601D8
:10256000820F911D9C01220F331F280F391F235307
:102570003D4F9C9CF0019D9CF00D1124E159FC4FB6
:102580004281618180810E947E088394BECF9C9CA1
:1025900080019D9C100D112401591C4FF80183816D
:1025A0008823F1F081508383859DC00111246481CB
:1025B00070E00E944E2FFB01FF27EB5EFB4F8491E2
:1025C000E82FE719E59DC0011124B7010E944E2FA5
:1025D00080918004689FB0011124F8017283BDCFFF
:1025E0000E945E30B5010E94B32F8C179D070CF03E
:1025F000B4CFF2E0F61598F40E945E30B5010E9467
:10260000B32FF80180830E945E3020917F042695CD
:10261000622F70E00E94B32F280FF80121839C9C49
:10262000F0019D9CF00D1124E159FC4F1282809124
:102630008004893C58F088EC9C9CF0019D9CF00D36
:102640001124E159FC4F8483838387CF8431A0F721
:1026500084E1F2CFB0E0A0E0E0E3F3E10C94682F76
:1026600049015A016B017C010E9468088401A401A0
:102670006A2D7B2D88E090E00E94D03094014A2D95
:102680005B2DB601C70100E20E94F72F622F84E2A2
:1026900090E00E94BE30CDB7DEB7ECE00C94842F02
:1026A000A3E0B0E0E6E5F3E10C946B2F082FE62EF3
:1026B000F42EC22E90917D0490FF40C020917E04A4
:1026C000281308C080917F04861304C08091800481
:1026D000841729F08091C90282608093C902E92F92
:1026E000E695AE2FB0E0A856BE4F8C918093C702FE
:1026F0009E7F923039F59E012F5F3F4F4F2D6E2DFB
:10270000802F0E947E084B8169818A810E94E4109B
:1027100000937E04E0927F04F0928004CC2071F05C
:1027200020917D046091810470918204302FA70173
:1027300080918304909184040E942A132396E9E0F7
:102740000C94872F823019F4F0908004E1CF86300A
:10275000A1F1893091F18931D9F6E9516E2F61707B
:10276000B62EE695F0E0E05FFB4F1491D12C60911E
:102770004901D61618F00E948D0ECACFD19EC00115
:10278000112470E00E944E2F802FB11014C0860FCC
:1027900020914701622F6D0D7727771F9B01220F34
:1027A000331F260F371F23533D4F4F2D6E2D0E9491
:1027B0007E08D394DCCF861BEBCF022FA9CFEDE7A9
:1027C000F4E0438121E1421B08F440E021E0628112
:1027D00081810E9450130895EDE7F4E0438121E1E7
:1027E000420F08F44FEF21E0628181810E94501373
:1027F0000895EDE7F4E0628121E1621B08F460E0F6
:1028000021E0438181810E9450130895EDE7F4E0B7
:10281000628121E1620F08F46FEF21E04381818141
:102820000E9450130895EDE7F4E0818121E0438197
:1028300062818A500E9450130895EDE7F4E081818F
:1028400021E043816281865F0E9450130895809148
:102850008104882319F081508093810420917D04A4
:1028600030917E0440917F045091800460918104F6
:102870007091820480918304909184040E942A13B1
:10288000089580918104833018F48F5F80938104D0
:1028900020917D0430917E0440917F04509180040A
:1028A00060918104709182048091830490918404EA
:1028B0000E942A130895EDE7F4E083E080831182FB
:1028C0008FEF828388E783831482A7ECB2E01296AD
:1028D0008C911297836012968C93758123E030E07F
:1028E0004FEF58E760E0868197810E942A13089590
:1028F0009091970492FB222720F9281779F080FB0A
:1029000092F990939704609196047091970484E0F3
:1029100090E00E94DC3082E00E94800C0895A4E0E8
:10292000B0E0E5E9F4E10C94712F4091420250913E
:10293000430260914402709145022FB7F894809150
:10294000920490919304A0919404B09195042FBFA8
:10295000841B950BA60BB70B11E084369105A105DE
:10296000B10570F10E94D9116E5F7F4F8F4F9F4F5D
:1029700069837A838B839C838091150190911601E2
:102980008A5B9D4F4091140150E04530510510F095
:1029900044E050E0BE016F5F7F4F0E94913082E0C3
:1029A00090E00E94D82E182F882351F00E94A5078E
:1029B00060934202709343028093440290934502D5
:1029C000812F2496E3E00C948D2FABE0B0E0EBEE8A
:1029D000F4E10C94722F88E0EDE7F4E0DE0111964B
:1029E00001900D928A95E1F78091C7029091C802FB
:1029F000A091C90289879A87AB872B8540915A029B
:102A000050915B0260915C0270915D023FB7F89457
:102A10008091920490919304A0919404B0919504B4
:102A20003FBF841B950BA60BB70B84369105A10500
:102A3000B10510F4222319F180911D0190911E011E
:102A40008A5B9D4F40911C0150E04C30510510F0C5
:102A50004BE050E0BE016F5F7F4F0E94913083E0FA
:102A600090E00E94D82E882369F00E94A507609309
:102A70005A0270935B0280935C0290935D02109205
:102A8000C90281E02B96E2E00C948E2FEF92FF9228
:102A90001F93CF93DF9300D000D00F92CDB7DEB756
:102AA0007B0190E080E00E94D82E182F882309F443
:102AB00087C04091070150E04115510511F041E0F8
:102AC00050E060910801709109016A5B7D4FCE0171
:102AD00005960E94913040913E0250913F026091D4
:102AE0004002709141022FB7F89480919204909126
:102AF0009304A0919404B09195042FBF841B950B6F
:102B0000A60BB70B84369105A105B10540F487E407
:102B100092E00E9420069D81891709F451C081E04E
:102B200090E00E94D82E81111AC010E080913A02E4
:102B300090913B02A0913C02B0913D02F70180834D
:102B40009183A283B383812F0F900F900F900F90EA
:102B50000F90DF91CF911F91FF90EF9008954091DA
:102B60000F0150E04530510510F044E050E0609115
:102B70001001709111016A5B7D4FCE0101960E9498
:102B8000913087E492E00E9420069D818913CDCF89
:102B90000E94A50760933E0270933F02809340021B
:102BA0009093410289819A81AB81BC8180933A02E2
:102BB00090933B02A0933C02B0933D0211E0B6CF4C
:102BC0008091470290914802A0914902B0914A0237
:102BD00089839A83AB83BC831111E4CFA7CFA8E08C
:102BE000B0E0E5EFF5E10C94722F66EE7EEF90E039
:102BF00080E00E94DC3060E082E090E00E94BE3025
:102C000060E083E090E00E94BE3010922C021092AF
:102C10002B0260E074E184E090E00E94DC3060E030
:102C200086E090E00E94BE306FEF87E090E00E9467
:102C3000BE3040E050E0BA0188E090E00E94D03021
:102C400060E084E290E00E94BE3060E087E190E0C6
:102C50000E94BE3060E08CE090E00E94BE3060E0F8
:102C60008DE090E00E94BE3019821A821B821C8285
:102C70001D821E821F82188648E050E068E170E0E5
:102C8000CE0101960E94AE3040E050E0BA0180E2F1
:102C900090E00E94D03040E050E0BA018FE090E038
:102CA0000E94D03040E050E0BA0183E190E00E9401
:102CB000D0302896E2E00C948E2F1F920F920FB620
:102CC0000F9211242F933F934F935F936F937F93B2
:102CD0008F939F93AF93BF93EF93FF938091E10006
:102CE00082FF09C08091E20082FF05C08091E1006F
:102CF0008B7F8093E1008091DA0080FF24C0809177
:102D0000D80080FF20C08091DA008E7F8093DA00A7
:102D10008091D90080FF9DC080E189BD82E189BD9D
:102D200009B400FEFDCF81E08093BD04809198043A
:102D3000811109C00E9437060E94D8068091E200E6
:102D400084608093E2008091E10080FF17C0809151
:102D5000E20080FF13C08091E2008E7F8093E2004A
:102D60008091E20080618093E2008091D8008062CF
:102D70008093D80019BC85E08093BD048091E10068
:102D800084FF2BC08091E20084FF27C080E189BDD1
:102D900082E189BD89B5982F917080FFFBCF80912A
:102DA000D8008F7D8093D8008091E1008F7E809342
:102DB000E1008091E2008F7E8093E2008091E2004A
:102DC00081608093E2008091BE04882309F447C0AB
:102DD00084E08093BD048091BD048091E10083FF75
:102DE00027C08091E20083FF23C08091E100877FAC
:102DF0008093E10082E08093BD041092BE04809134
:102E0000E1008E7F8093E1008091E2008E7F8093CD
:102E1000E2008091E20080618093E20042E060E0A5
:102E200080E00E94A6068091F00088608093F00008
:102E3000FF91EF91BF91AF919F918F917F916F9192
:102E40005F914F913F912F910F900FBE0F901F9068
:102E5000189519BC1092BD041092980474CF8091FB
:102E6000E30087FD93E09093BD04B5CF78941F9263
:102E70001FB61F9211248F939F93AF93BF9380919E
:102E8000920490919304A0919404B09195040196BA
:102E9000A11DB11D8093920490939304A093940478
:102EA000B0939504BF91AF919F918F911F901FBEDA
:102EB0001F9018959C014FB7F894809192049091BF
:102EC0009304A0919404B09195044FBF821B930B7F
:102ED00008952FB7F8948091920490919304A09153
:102EE0009404B09195042FBF08950E9469179C0126
:102EF0009091BD028091BE02982B21F03093BA02CE
:102F00002093B9029091BF028091C002982B21F0CA
:102F10003093B8022093B702E0918D04F0918E04B3
:102F2000309749F082E08093BB020480F581E02D68
:102F30008BEB92E00995089510922A0280914A0144
:102F4000E8ECF1E0882329F18091960487FF21C005
:102F50008EE1DF011D928A95E9F790E080E00E9402
:102F6000350890E080E00E941008109229020E942B
:102F7000BA0D86E0EBEBF2E0DF011D928A95E9F7EE
:102F80001092B4021092B5021092B6020E94751708
:102F9000089586E0DECFAAE2B0E0E1EDF7E10C941F
:102FA000712F8FEB94E02091F100FC012193CF0170
:102FB000F4E0873C9F07B9F78091C004833009F49F
:102FC00070C0B8F4813009F447C0823009F4B1C050
:102FD0008091E80083FF7EC28091BF049091C0047D
:102FE0009A3008F077C2E92FF0E0E95AFE4C0C94D1
:102FF000C72F8A3009F48CC08B3009F46FC0893038
:1030000039F78091BF04813219F78091C304909100
:10301000C4040297E8F68091E800877F8093E80077
:103020008091E80082FF38C09091F3008091F20017
:10303000029731F48091F100813011F0863021F453
:103040008091F10080939A048091E8008B778093BF
:10305000E8000E948706BCCF8091BF04813A09F046
:10306000B7CF8091E800877F8093E8008091C30408
:103070009091C404892B61F460E28BE994E070E0E4
:103080000E9433078091E8008B778093E800A0CFFF
:1030900060E090E080E0F3CF8091BD048111C0CF6B
:1030A00097CF8091BF04813A09F092CF8091C304F9
:1030B0009091C404892B09F08BCF8091E800877F21
:1030C0008093E8008091E80080FFFCCF80914A0166
:1030D0008093F1008091E8008E77B9CF8091BF0492
:1030E000813209F075CF8091C3049091C404892B7B
:1030F00009F06ECF8091E800877F8093E8000E94FE
:1031000087068091C10480934A010E949C1760CF7A
:103110008091BF04813209F05BCF8091E800877F06
:103120008093E8000E9487068091C20480939904EE
:103130004FCF8091BF04813A09F04ACF8091E800D7
:10314000877F8093E8008091E80080FFFCCF80912A
:103150009904BECF803899F0823809F0BBC18091C4
:10316000C3048F70873008F0B5C18093E900809167
:10317000EB0085FB882780F91092E90006C080915A
:10318000BB049091BC04911182609091E800977FFC
:103190009093E8008093F1001092F1008091E80094
:1031A0008E7794C1882309F482C1823009F092C1DC
:1031B0008091C104811185C18091C3048F702FEF6C
:1031C000280F263008F086C18093E9002091EB009B
:1031D00020FF77C1933031F48091EB0080628093BF
:1031E000EB006FC19091EB0090619093EB0021E0B8
:1031F00030E001C0220F8A95EAF72093EA0010928E
:10320000EA008091EB008860EACF811163C11091E0
:10321000C1041F778091E3008078812B8093E300C5
:103220008091E800877F8093E8000E948706809164
:10323000E80080FFFCCF8091E30080688093E3008A
:1032400082E0111183E08093BD0444C18058823034
:1032500008F040C18091C1049091C2048C3D23E0EC
:103260009207A1F583E08A838AE289834FB7F894B5
:10327000DE01139620E03EE051E2E32FF0E05093B0
:103280005700E49120FF03C0E295EF703F5FEF70BD
:103290008E2F90E0EA30C0F0C7968D939D932F5FFC
:1032A000243159F74FBF8091E800877F8093E80071
:1032B0006AE270E0CE0101960E9433078091E80037
:1032C0008B778093E80006C1C096E7CF4091C30496
:1032D0005091C404292F33272330310509F444C009
:1032E00078F52130310509F46FC08BE390E0E3E11C
:1032F000F6E02230310509F0EDC02091E800277F8B
:103300002093E8002091C5043091C60482179307EA
:1033100008F49C0140E02115310509F064C0411119
:1033200062C08091E80082FDC9CF8091BD048823EE
:1033300029F2853019F28091E80083FFF2CFBECFE9
:1033400021323105A9F12232310509F0C3C04115FE
:10335000510509F443C04130510509F0BBC086EB6B
:1033600090E0E9E1F5E0C9CF992781309105C1F0FE
:10337000009759F0029709F0ADC0E0E6F6E0E4915D
:103380008E2F90E0E0E6F6E007C0E0E8F6E0E4919A
:103390008E2F90E0E0E8F6E0009709F49BC0ADCFF7
:1033A000EEE6F6E0E4918E2F90E0EEE6F6E0F4CF64
:1033B0004115510571F04130510509F08BC089E08C
:1033C00090E0EEE3F6E099CF82E190E0EEE4F6E003
:1033D00094CF89E090E0E5E2F6E08FCF84E490E0DE
:1033E000EFECF5E08ACF8091BD04882309F466CF25
:1033F000853009F463CF8091E80083FD5FCF809131
:10340000E80082FD8ECF8091E80080FF84CF90910C
:10341000F3008091F2002115310519F088309105F3
:1034200050F041E0089709F040E08091E8008E7785
:103430008093E80070CF44914093F1003196215081
:1034400031090196E8CF803809F044C08091E80046
:10345000877F8093E8008091BE048093F1009ECE28
:10346000811138C01091C1041230A0F58091E8009C
:10347000877F8093E8001093BE040E948706112383
:1034800011F084E005C08091E30087FDFACF81E070
:103490008093BD0442E061EC81E00E94A60642E216
:1034A00061EC82E00E94A6068091BD0413C0809169
:1034B000C104813079F481E0933009F080E0809399
:1034C000BC041092E9008091E800877F8093E800B7
:1034D0000E9487068091E80083FF0AC08091E8007F
:1034E000877F8093E8008091EB0080628093EB00FF
:1034F000AA96E3E00C948D2F1F920F920FB60F92B5
:1035000011242F933F934F935F936F937F938F93E8
:103510009F93AF93BF93CF93DF93EF93FF93D0919C
:10352000E900DF708091EC00C82FC17080FDC0E819
:103530001092E9008091F000877F8093F0007894EA
:103540000E94CB171092E9008091F0008860809370
:10355000F000CD2BCF70C093E900FF91EF91DF9188
:10356000CF91BF91AF919F918F917F916F915F911B
:103570004F913F912F910F900FBE0F901F90189574
:103580000E949C172FEF84E39CE0215080409040E4
:10359000E1F700C0000088E19AE00FB6F894A89522
:1035A000809360000FBE90936000FFCF662309F404
:1035B0005DC08D3C41F40E94390981958093BE0223
:1035C0000E94751708958E3C19F40E943909F6CFB0
:1035D0008F3C31F40E94390981958093BD02F0CF70
:1035E000803D19F40E943909F8CF893D29F40E94E1
:1035F00017098093BF02E4CF8A3D21F40E94170986
:103600008195F7CF8B3D31F40E9417098195809306
:10361000C002D6CF8C3D19F40E941709F8CF9FE263
:10362000980F983070F4815D990B21E030E001C073
:10363000220F8A95EAF78091BC02822B8093BC020C
:10364000BFCF8D3D31F48091B60281608093B60288
:10365000B7CF8E3D21F48091B6028260F7CF8F3DC7
:1036600009F0AECF8091B6028460F0CF4091BD02E8
:103670008D3C59F48091BE0287FF0DC01092BE02AE
:1036800041110BC01092B40208C08E3C81F48091AD
:10369000BE0218169CF3442381F08091BF029091E2
:1036A000C002892B09F08CCF1092B50289CF8F3CD4
:1036B00049F447FFF0CF1092BD028091BE02811104
:1036C000ECCFE0CF803D19F41416ACF3E4CF909129
:1036D000BF02893D29F41916F4F61092BF02DBCF20
:1036E0008A3D19F497FFD7CFF8CF9091C0028B3D58
:1036F00029F497FFD0CF1092C002CDCF8C3D19F4A2
:103700001916CCF3C8CF9FE2980F983090F4815DE2
:10371000990B21E030E0B90102C0660F771F8A954E
:10372000E2F7CB0180959091BC0289238093BC0283
:10373000B2CF8D3D31F48091B6028E7F8093B60278
:10374000AACF8E3D21F48091B6028D7FF7CF8F3DB9
:1037500009F0A1CF8091B6028B7FF0CF882399F139
:103760009CEF980F913A40F4682F86EC91E00E940C
:10377000B1070E94BA0D089590E2980F983050F466
:10378000877091E001C0990F8A95EAF7892F0E940E
:10379000AE0BEFCF9BE5980F933028F490E080E0DC
:1037A0000E943508089598E5980F9B3128F490E021
:1037B00080E00E941008089593E3980F933118F465
:1037C00060E00E94D61A0895CF93C82F8823D9F1BC
:1037D0008CEF8C0F813AC8F580914A01882311F152
:1037E0008091960487FF1EC0EC2FE695E695E6953E
:1037F000F0E0EA53FE4F828190E04C2F477021E0C9
:1038000030E002C0220F331F4A95E2F78223932350
:10381000892B91F06C2F86EC91E00E94B1070E94F9
:10382000BA0D0AC0E8ECF1E08EEC91E02191C217EC
:1038300089F38E179F07D1F76C2F86EC91E00E94D9
:10384000DB070E94BA0DCF91089580E28C0F88307B
:1038500068F4C77021E030E001C0220FCA95EAF792
:1038600080912A02822B80932A02EBCFEBE5EC0FAA
:10387000E33040F4F0E0E55BFE4F808190E00E9491
:103880003508E1CFE8E5EC0FEB3150F4F0E0EE0F56
:10389000FF1FE25BFE4F808191810E941008D3CF11
:1038A00083E38C0F833178F661E08C2F0E94D61A67
:1038B000CACF0F931F93CF93DF93C62FD42F022F1E
:1038C000FC0185818823A9F0609303050E94691794
:1038D0009093020580930105C77081E001C0880FB5
:1038E000CA95EAF70E94160EDF91CF911F910F91B2
:1038F000089580910305681335C08091010590916A
:1039000002050E945A17883C910560F510E21D0FD0
:10391000CD17B9F080E28C0F883040F4C77081E099
:1039200001C0880FCA95EAF70E940F0E183048F4BC
:1039300081E09D2F977001C0880F9A95EAF70E9449
:10394000160E802F0E94E41B802F0E94AE1B1830A1
:1039500058F6D77081E001C0880FDA95EAF70E9427
:103960000F0EC2CFC77081E001C0880FCA95EAF779
:10397000F6CF0E94A511882319F00E9469170895B7
:103980000E94D911CB01089560917D04669570E085
:103990004BE050E087E391E00E947730892B19F4E7
:1039A00081E08093C8020E94B91C9093C202809368
:1039B000C1028091C90284608093C90208959091E8
:1039C0007D0490FF39C09170811137C0926090934F
:1039D0007D048091C90281608093C902662391F0C1
:1039E00020917D0430917E0440917F0450918004A9
:1039F0006091810470918204809183049091840489
:103A00000E942A1360917D04669570E04BE050E0BF
:103A100087E391E00E947730892BB1F00E94610822
:103A200081E08093C40220E04091800460917F0493
:103A300080917E040E94501308958B3210F094659B
:103A4000C6CF880F982BC3CF0E94C41CE9CF8091AA
:103A50007D048695815009F48AE261E00E94DF1CB2
:103A6000089580917D0486958F5F8B3208F081E008
:103A700061E00E94DF1C089590917D0490FF08C0D2
:103A80009695981728F0961718F40E94311D0895FE
:103A900061E00E94DF1C0895B0E0A0E0E2E5FDE1F6
:103AA0000C946A2F8C01FC018481882309F467C07F
:103AB00021E0408151816281738195810E94CF0C08
:103AC000EC01F8019581992309F47DC481818093EB
:103AD0008E02808180938D0280E280932F01D093AB
:103AE0008C02C0938B029E0130522115304238F473
:103AF000F8018681807F09F45EC0FE010AC09E0144
:103B0000305421153041C8F4F8018681807FFE01D0
:103B100009F0FF27ED33F10528F4E455FF4FE49158
:103B2000E0932F01FE01E851FC47E730F10508F072
:103B300042C0EF59FE4C0C94C72F9E013A952115B7
:103B40003F41D8F29E01205A32452032310550F3D0
:103B5000FE01E0CF26E241EE61EEC8010E94591C51
:103B600080910702877059F0F8018581882339F028
:103B70008091970482FF03C082E00E94800CCDB741
:103B8000DEB7EAE00C94862F27E245EE65EEE5CF3E
:103B900026E241EE60EEE1CF27E245EE64EEDDCFB6
:103BA00026E241EE62EED9CF27E245EE66EED5CFB2
:103BB00028E241E0EBCF109203059E0130572332FB
:103BC000310508F01AC484E090E00E94A830909378
:103BD000970480939604FE01E150F047E232F1052C
:103BE00020F4E859FE4C0C94C72F80919604816014
:103BF0008093960495C08091970488608093970481
:103C00008FC0809196048260F3CF80919604846087
:103C1000EFCF809196048860EBCF8091970481600C
:103C2000EDCF809197048260E9CF80919604806106
:103C3000DFCF809196048062DBCF80919604806410
:103C4000D7CF0E949C17809196048068D1CF809135
:103C500096048C60CDCF809197048360CFCF809104
:103C600096048E7FC5CF80919704877FC7CF8091C0
:103C700096048D7FBDCF809196048B7FB9CF8091C4
:103C80009604877FB5CF809197048E7FB7CF8091C0
:103C900097048D7FB3CF809196048F7EA9CF8091BA
:103CA00096048F7DA5CF809196048F7BA1CF0E9433
:103CB0009C17809196048F779BCF80919604837F89
:103CC00097CF809197048C7F99CF8091960482FB47
:103CD000992790F921E0922790FB82F990FB83F9D4
:103CE00087CF80919704982F909591708E7F892B24
:103CF00090FB81F983CF90919604892F8F7B96FF5B
:103D0000806476CF0E949C1790919604892F97FB30
:103D100087F980586DCF61E08EE090E00E94BE3060
:103D2000609196047091970484E090E00E94DC30EA
:103D30000E949C1715CF60E0EFCF90919604892FD9
:103D40008F7E94FF806154CF90919604892F8E7F4F
:103D500090FF81604DCF90919704892F877F93FFCB
:103D600088604CCF8091E60169E2811165E386ECC1
:103D700091E00E94B10755C3992309F430C3C330C1
:103D80003CE7D30709F4F3C008F0D6C0C1159CE79F
:103D9000D90709F4DFC0C130DC4709F4EEC0F801EF
:103DA0008581C081D181882309F4F5C0CE010E94AC
:103DB000BF0BF82E682FCE010E94330CBE018F2D51
:103DC0000E94710A0E94900AD82FC92FA82EF801CC
:103DD000C580B680B2943FE0B3228091070287701D
:103DE000F1F0EC2CCC20E1F0892F807F803451F071
:103DF00080E28D0F883098F0B11004C0892F807E4A
:103E0000803269F08091970482FF09C082E00E94AD
:103E1000800C809107028770EE24E3948111E12CDD
:103E2000DC2ED2942FE0D222FBE0FD1508F418C15D
:103E3000ED2DF0E0E657FE4C0C94C72F80917D04E9
:103E400080FF1EC0282F2E7F20937D0430917E049A
:103E500040917F04509180046091810470918204AC
:103E600080918304909184040E942A130E94610827
:103E70008091C90281608093C9020E948D0E70CE2C
:103E8000816080937D0461E086950E94DF1C68CE8E
:103E900047E25DE161E37DE10E945A0861CE41E3C2
:103EA0005DE167E27DE1F8CF43E154E16DE174E16A
:103EB000F3CF4DE154E163E174E1EECF49EF53E11B
:103EC00066E074E1E9CF46E054E169EF73E1E4CFE5
:103ED0004FED53E16CEE73E1DFCF4CEE53E16FED4C
:103EE00073E1DACF47E254E161E474E1D5CF41E414
:103EF00054E167E274E1D0CF61E081E0C6CF65E0D4
:103F000082E00E943C1D2CCE68E086E0FACF6EE095
:103F100089E0F7CF64E18FE0F4CF67E185E1F1CF8D
:103F200061E088E1B2CF62E289E1EBCF61E083E258
:103F3000ACCF6AE285E2E5CFCB35FCE7DF0749F19C
:103F4000CC352CE7D207D9F0CA35DC4709F027CFAA
:103F500081E01CC00E949C178FEF94E3ECE081503D
:103F60009040E040E1F700C000000E9494076FEF2E
:103F70007FEF90E080E00E94DC300E94C01A8091C8
:103F8000970482FB882780F991E089270E947814A2
:103F900006CF80E0FBCFCE010E94000CF82E0ECFA2
:103FA0002C2F2F70F22EC07F19F0F29490EFF9228F
:103FB000CC20B9F0FF2069F080E28D0F883010F03E
:103FC000A11009C080912A02F82AF0922A020E94C8
:103FD000BA0D8D2F43C080912902F82AF092290250
:103FE000F6CF8D2F0E94AE1BFF20D1F1D05ED830CE
:103FF00010F0A11004C08F2D0E94AE0B06C0F094EB
:1040000080912902F822F09229020E94BA0D28C05C
:104010003C2F3F70F32EC07FC03219F0F29480EF36
:10402000F822AA2059F081E0A81609F479C0CC2022
:1040300009F485C0BB2009F447C0CBCF8091970419
:1040400082FD3EC0CC20B1F1FF2039F080912A02E0
:10405000F82AF0922A020E94BA0D80E00E94E41B26
:104060002D2D2850330B2430310510F40E94C81137
:10407000EE20A9F08091070280FD11C0F8011582A1
:104080008695869586950E94970CC8010E944C1DC6
:10409000809107028695869586950E946E0C20E099
:1040A000F8014081518162817381848195810E94F0
:1040B000CF0C65CD80E00E94AE1BFF2089F29BCF24
:1040C000CC20A1F0B11004C08F2D0E94160EC8CFD5
:1040D00091E0B912C5CF809128029F2D9823F9163F
:1040E00009F4BECFF82AF0922802BACFB110B8CFA7
:1040F0008F2D0E940F0E909128028F2D892329F079
:104100008F2D80958923809328028091E7019F2D30
:10411000982309F4A5CFF094F822F092E701A0CFFC
:10412000CC2029F0E5E0EB1508F49ACFCDCFF4E0F0
:10413000FB1508F495CF8F2D0E940F0E91CFBB2059
:10414000D1F329E3A21209C03FEF87EE93E031508B
:1041500080409040E1F700C000008D2F0E94AE1B10
:104160007FCF8C2F86958695837069F0813009F01A
:1041700077CF8D2F9C2F9370C11002C080E090E00C
:104180000E9410086DCF8D2F9C2F9370C11002C01C
:1041900080E090E00E94350863CF6C2D8D2F0E9447
:1041A000D61A5ECF8C2F837009F03FC0C11058CF54
:1041B0004D2F429546954770440F440F2D2F2F7079
:1041C00030E0042E02C0220F331F0A94E2F790E081
:1041D00080E0D4FF09C08FE090E002C0880F991FF3
:1041E0004A95E2F780959095C695C695C370C23002
:1041F00099F078F440912B0250912C02C13039F0A3
:10420000822B932B842395230E94A70C29CF242B48
:10421000352B822B932BF8CF822B932B20912B02C3
:1042200030912C0282279327EFCF8695CC2011F076
:104230008C2F8170882309F413CF4D2F429546951A
:104240004770440F440F2D2F2F7030E0042E02C012
:10425000220F331F0A94E2F790E080E0D4FF09C0F8
:104260008FE090E002C0880F991F4A95E2F7809591
:104270009095C695C695C370C23099F078F4409178
:10428000820250918302C13039F0822B932B842318
:1042900095230E94690CE4CE242B352B822B932B83
:1042A000F8CF822B932B20918202309183028227B8
:1042B0009327EFCFCF70CC2029F08C2F0E94970C42
:1042C0008D2F03CF8D2F0E940F0E8C2F0E946E0C0E
:1042D000C7CE8D2FE2EFAE1699F1EA1570F0F0EF30
:1042E000AF16D1F021EFA21691F0CC2009F45BC0FB
:1042F000B1106FCE8C2F8F7127C033EFA31639F119
:1043000094EFA912F2CF8091970482FD2EC08C2FDA
:104310008F71CC20D9F218C0CC2069F0E4E0EB1505
:1043200008F49ECECF7181E090E002C0880F991F03
:10433000CA95E2F7B8CFF5E0FB1508F491CEF2CFBD
:104340008C2F8F71C110C2CF0E94970C89CE90E044
:1043500080E0CC2009F49DCFCF7181E090E002C0D5
:10436000880F991FCA95E2F794CFCC2089F0CF71BE
:104370008C2F0E94970C8091970482FF07C028E041
:10438000C29FC00111248360809307028C2FDCCF71
:1043900081E00E94800C31E03B1508F061CE82E0A4
:1043A0000E94800C5DCEBB2059F0893309F0D5CE38
:1043B0008FEF97EEE3E081509040E040E1F7CBCE05
:1043C0008C2F8F7183CFFE01E851FC47E730F10558
:1043D00008F4AFCBC6312CE7D20709F4C3CC8091E7
:1043E0002A028272FE01E052F847E531F10508F039
:1043F000D6CCEA56FE4C0C94C72FC631FCE7DF073B
:1044000009F0BACC80912A028A7A91E009F490E00E
:104410009093E60169E2811165E386EC91E00E94E8
:10442000DB070E94BA0D9CCBCF93DF9380910602ED
:10443000807F09F04DC080910502882309F448C0AF
:10444000E09100055091C704C0910102D091000293
:10445000609102027091030247E05E17C9F18E2F4E
:1044600090E0E49FF0011124E853FB4F24812223C4
:1044700091F1489FF001499FF00D1124DF01A853ED
:10448000BB4F11962C9111972C1325C02C912D13F5
:1044900022C015962C91159721111DC012962D91B1
:1044A0003C91261B370B283C3105A8F4809106026D
:1044B0008F70806180930602E253FB4F80818F7082
:1044C0008061808380E092E00E944C1D0E94B50BC9
:1044D000DF91CF910895FC013196E770BECFA4E142
:1044E000B0E0E5E7F2E20C94682F8C0186E0F80179
:1044F000DE011F9601900D928A95E1F7F801848103
:10450000E58090E0A92E92E0B92E909104029111DD
:1045100028C0882319F1EE20F1F0C8010E94AC0CEC
:10452000F82E8823C1F087E0F801D50101900D92A3
:104530008A95E1F780910402813031F48091000284
:10454000909101020E94F30B0E9414228F2D649619
:10455000ECE00C94842FC8010E944C1DFF24F394BE
:10456000F5CFD080C18082809380F09005022091A9
:10457000020230910302A401421B530BFF2009F4F5
:10458000D9C0483C510508F092C08823F9F29091B7
:10459000010280910602282F207F09F056C0C9121F
:1045A00014C090910002D91210C0E11048C08F7061
:1045B00080618093060280E092E00E944C1D809111
:1045C0000602F8018683F12CC1CFE11038C06C2DB2
:1045D0008D2D0E9401066C2D8D2D0E940106E82E66
:1045E0008111F1CFDF86C88A8F8598890E94F30BED
:1045F000292F22952F70243058F49F70223088F094
:10460000992399F0F8019681907F79F4FE2C9ECF42
:104610002A5F2F70223068F0C8010E944C1DEF2CD9
:10462000F5CF992311F0882389F3805E883070F3E9
:10463000F3CF803F58F3815F833070F7E7CF8091ED
:104640000602816080930602BECFC91207C0909116
:104650000002D91203C0EE2009F48DC0C8010E94E7
:10466000AC0C882309F477CFEE2009F474CF809145
:104670000602803288F020910002309101023987D1
:1046800028879B868A86909104029C871D868E8748
:10469000CE0108960E944C1D87E0F801A0E0B2E030
:1046A00001900D928A95E1F70E94142257CF9091C4
:1046B0000602292F207F51F480E092E00E944C1DD9
:1046C00087E0F50111928A95E9F77DCF882309F4F7
:1046D0003DCF809101028C1110C080910002D81250
:1046E0000CC0E1100AC09683C8010E944C1D87E0EF
:1046F000F50111928A95E9F729CFC8010E94AC0C07
:10470000882309F428CFEE2009F425CF80910602F2
:10471000803210F220910002309101023A83298305
:104720009C828B82909104029D831E828F83CE0196
:104730000196B0CF483C5105D0F6882309F40ECF3E
:10474000FE2CEE2009F407CF809101028C1120C0CD
:1047500080910002D8121CC08091060280FD0FC01B
:10476000982F907F61F08683903F31F0982F907F53
:10477000905F8F70892B8683C8010E944C1D87E053
:10478000F801A0E0B2E001900D928A95E1F7DECE4B
:10479000C8010E94AC0C81117FCF8091060281601C
:1047A00080930602C8010E944C1DD0CEABE1B0E060
:1047B000ECEDF3E20C94702F4E8B5F8B688F798F4A
:1047C0008A8F9B8F192F9111109229021D8A86E0E2
:1047D000FE017696DE011F9601900D928A95E1F713
:1047E0000A8D002341F021E04F85588969897A8933
:1047F000C8010E94CF0C0B8B1C8B87E0FE013F96FB
:10480000DE01189601900D928A95E1F7CE01089687
:104810000E946F2281110CC087E0FE013896DE01F4
:10482000119601900D928A95E1F78C8581110BC04C
:1048300017E0809100059091C704891331C06B96F1
:10484000E4E00C948C2F2091C70430E0C90101965C
:1048500087709927409100054817190699F097E04D
:10486000929FD001939FB00D1124A853BB4FFE011E
:10487000319601900D929A95E1F78093C7040E94BA
:10488000B50BD6CF0E949C171092C704109200055A
:1048900087E0E0E0F2E0DF011D928A95E9F7C8CFFA
:1048A000819FC001112488539B4F0E946F2288234F
:1048B00031F28091000590E00196877099278093EE
:1048C0000005B7CFA3E1B0E0E8E6F4E20C94672F6F
:1048D0008E01045F1F4F88E0D8011D928A95E9F789
:1048E00086E8C82E81E0D82EF12CE12CAA24A394CE
:1048F000B12C20E9822E21E0922EF60181916F01E8
:104900008F3F09F442C0F894E82FE295EF70F0E091
:1049100021A18F70A50102C0440F551F8A95E2F7AF
:10492000CA01922F982B91A392A18095892382A3EB
:10493000789400C0EAE8F1E0712C31E021912F3F3A
:1049400009F46BC0A22FA295AF70B0E090968C9145
:1049500090E02F7002C0959587952A95E2F780FD2B
:104960005CC0832F782A330F8E169F0639F7F60125
:10497000319780818F3F11F00E94690950EA5A9562
:10498000F1F7F801EE0DFF1D70828FEFE81AF80ABB
:10499000A4E0EA16F10409F0B0CF48E050E0B80115
:1049A00083E692E00E948430009741F028E0F8010D
:1049B000A3E6B2E001900D922A95E1F700916C0216
:1049C000892B69F181E0809331020E9469179093ED
:1049D000300280932F0280912F02909130020E942A
:1049E0005A17059700F110E002591D4F44E050E0BE
:1049F00063E672E0C8010E948430F12C892B51F0EB
:104A000084E0E3E6F2E0D80101900D928A95E1F7A7
:104A1000FF24F3941092310207C080E0A3CF80916D
:104A200031028111D8CFF12C0E94A511E82EE0911E
:104A30006C02882309F47DC019821A821B821C82B1
:104A40000E2F10E002591D4F80915E028A30D8F57A
:104A500046E455E1BE016F5F7F4FC8010E947211AD
:104A6000882309F455C04FE854E1BE016F5F7F4FC2
:104A7000C8010E947211882309F44AC045EE54E12E
:104A8000BE016F5F7F4FC8010E947211882309F435
:104A90003FC010925E0280916B0290E044E050E0D3
:104AA000BE016F5F7F4F82599D4F0E94843021E08D
:104AB00020933802892BF1F4E12C8E2D8F296396F7
:104AC000EDE00C94832F80913202909133020E948A
:104AD0005A17843F914008F0BBCF80913802882359
:104AE00059F384E0FE013196DF011D928A95E9F7C2
:104AF00010923802E0916B02F0E0E259FD4F89819B
:104B00009A81AB81BC8180839183A283B383D5CF0B
:104B100080915E028F3F31F08F5F80935E028A301A
:104B200008F4B9CF0E946917909333028093320240
:104B3000D4CFF0E0E259FD4F84E0A7E4B2E0019069
:104B40000D928A95E1F787E492E00E942006809317
:104B5000460280904B0290904C02A0904D02B09083
:104B60004E028091340290913502A0913602B091AC
:104B7000370288169906AA06BB06D1F08092340245
:104B800090923502A0923602B09237020E94A5118F
:104B900081110EC00E94A507861A970AA80AB90AB1
:104BA00080925F0290926002A0926102B0926202D3
:104BB0008BE0EFE4F2E0DE01119601900D928A9510
:104BC000E1F780914F028695D0905002C09051023B
:104BD000B09052020091580210915902109259025D
:104BE000112309F46ACF10FF0BC0298190917D0435
:104BF00020FF1AC0916090937D0460E00E94DF1C4A
:104C000011FF06C020E04B2D6C2D8D2D0E945013FE
:104C100012FF04C00023A9F00E94C41C13FF4DCF53
:104C200081E08093C40249CF9E7F90937D040E94CF
:104C300061088091C90281608093C9020E948D0E33
:104C4000DFCF0E946108EACFA6E0B0E0EAE2F6E238
:104C50000C94702F0E9469178C0180912D02909105
:104C60002E028017910781F019821A820E9469171B
:104C7000682F49815A81792F80E090E00E94D623E5
:104C800010932E0200932D022696E4E00C948C2FB4
:104C90001F921FB61F9211248F939F93AF93BF93C0
:104CA00080919104811113C080919204909193049A
:104CB000A0919404B09195044196A11DB11D8093DB
:104CC000920490939304A0939404B0939504BF919D
:104CD000AF919F918F911F901FBE1F901895CDB7D8
:104CE000DEB760970FB6F894DEBF0FBECDBF85B7B5
:104CF000806885BF85B7806885BF84B7877F84BF9C
:104D00000FB6F894A8958091600088618093600048
:104D1000109260000FBE80E890E00FB6F894809388
:104D20006100909361000FBE87E699E09093C50102
:104D30008093C4010E9437060E94D8068091E20049
:104D400084608093E20078948091BD048823A1F070
:104D50001091E9001F709091EC00892F817090FDF7
:104D600080E8182B1092E9008091E80083FD0E94F2
:104D7000CB171F701093E90082E084BD93E095BDCE
:104D80009AEF97BD80936E0010925F0210926002BE
:104D900010926102109262020E94A5118093240178
:104DA00080912401882309F475C0109245018BE19C
:104DB000809346010E94A51181110E94EC2D8091E3
:104DC00024018091240194E0811190E090936C0281
:104DD00084E0891B80936B0284E90E94690986E65E
:104DE0000E94690987E90E94690986EC0E946909A5
:104DF0000AE811E0D8018D918D018F3F11F00E94DA
:104E00006909B1E000391B07A9F788E0EEE6F2E096
:104E1000DF01282F1D922A95E9F7E3E6F2E0DF0192
:104E20001D928A95E9F790E080E00E94A830863EC6
:104E30009E4F11F00E94EF1582E090E00E949A30A0
:104E40008093760284E090E00E94A83090939704CB
:104E5000809396040E946224EFEFF6E721E0E15090
:104E6000F0402040E1F700C000000E9462240E9450
:104E7000A511E4E08111E0E0F0E0E259FD4F80810E
:104E800081FF0CC06FEF7FEF90E080E00E94DC308C
:104E90000E9494078BE1809345018ACF83E090E0E4
:104EA0000E949A3090E00E94A70C0E94A5118111E7
:104EB00033C182E08093AF0280E8809304050E94B2
:104EC000A62C6BE070E08FE792E00E94F31188233C
:104ED000E9F18091AF0265E070E081FD1FC18AE7D2
:104EE00092E00E94F311882389F16DE070E088E67A
:104EF00092E00E94F311882349F10E94A507605AAD
:104F000075418F4F9F4F6093850470938604809303
:104F1000870490938804E7E0F5E080E092E0DF0109
:104F20009C011D9221503040E1F7F0930E07E09371
:104F30000D078FEF9FEF909306058093050581E0A5
:104F400080938A04809389041092B00280916D024C
:104F500081117BC090E080E00E94A830863E9E4F89
:104F600021F00E94EF150E945B1488E090E00E94FF
:104F7000A2304B015C0184E290E00E949A30282F1D
:104F800030E040E050E060E070E080E090E000E27F
:104F90000E94DC2F282939294A295B2920937D0486
:104FA00030937E0440937F04509380046093810487
:104FB0007093820480938304909384048091C90247
:104FC00083608093C9022E7F89F50E945B1488E07C
:104FD00090E00E94A2306B017C0184E290E00E948C
:104FE0009A30282F30E040E050E060E070E080E050
:104FF00090E00E94DC2FB22FA32FF42FE52F5B014E
:1050000097018601BC29A12BFE29E32BB0937D04D7
:10501000A0937E04F0937F04E09380046093810466
:10502000B092820480938304909384040E94680861
:105030000E94610880917D0480FF04C060E0869535
:105040000E94DF1C81E080936D020E94A5118111F6
:1050500002C00E94EF2D85E291E090938E04809330
:105060008D04DD24D394AAE04A2E512C612C712C9E
:105070008091BD0400E112E1853009F48BC00E94EB
:10508000622407E712E0FEE6EF2EF2E0FF2ED701E2
:10509000F80191918D9122E0EF37F20709F484C075
:1050A0009817B9F30E94A511382EC12CD701BD90D5
:1050B0007D01F80181908F018B1429F18B24A12CA3
:1050C00099249394882D8921B1F03320A1F0AF82E7
:1050D000C8860E9469179A878987DB8691E08B2DA5
:1050E000892109F490E09C874F81588569857A85EC
:1050F0008B850E94D623A394990CF6E0AF12E2CFE1
:10510000F8013197B082C39428E0C212CFCF0E9439
:10511000D911CC24C3944DC080E0CCCE85E792E079
:10512000E0CE8091BD04843031F10E941D121092B6
:10513000910488E190E0A0E40FB6F894A8958093DC
:1051400060000FBEA093600083B7817F846083BF3F
:1051500083B7816083BF7894889583B78E7F83BF40
:105160000FB6F894A89580916000886180936000E4
:10517000109260000FBE8091BC04882359F00E94F9
:105180006224EEE6F2E081918111BBC3B2E0E63722
:10519000FB07C9F78091BD04853009F4C2CF0E9496
:1051A0009C170E94C8116BCF98137CCF0E942426B5
:1051B000C12C0E94A5118091C802882309F463C004
:1051C0008091C702E0917D04E695E81BE093C3025D
:1051D000823009F0AFC0F0E0E556FD4FE4910E2FAC
:1051E00010E0EEE5EE2EE1E1FE2E8091C402882370
:1051F00061F01092C4020E94B91C9093C202809385
:10520000C1021092C6021092C5020E94B91CE09120
:10521000C102F091C2029C012E1B3F0B2F3F3F4762
:1052200090F5209181022223B1F010928102209109
:105230007F0230918002821B930B8F3F9F4758F46F
:10524000205D3A483093800220937F028091C9020A
:1052500088608093C902A090C502B090C602E00F9A
:10526000F11FF093C202E093C10281EC92E0F701DA
:1052700009958091C5029091C602892B21F4AB2833
:1052800011F0D092810280918A04882309F421C10F
:105290008091B1029091B2020E945A17C29708F40D
:1052A000F8C00E9469179093B2028093B10287E020
:1052B00095E090930E0780930D070E94A511882317
:1052C00009F42FC280EC92E00E94740D20918202BA
:1052D00030918302832F9927009709F497C09C018E
:1052E00088E0A901F4E056954795FA95E1F7411554
:1052F000510511F08C5F9A01A90156954795569575
:1053000047954115510511F08E5F9A013695279505
:10531000232B09F08F5F813009F4BDC1882309F484
:1053200077C0823009F4BAC1833009F4BAC18FE979
:1053300092E070C0863059F4F0E0E856FD4FE491F9
:105340000E2F10E07EE4E72E71E1F72E4ECF89306C
:1053500061F4E695F0E0EB56FD4FE4910E2F10E07E
:1053600067EAE62E60E1F62E40CF8F3061F4E695D5
:10537000F0E0EE56FD4FE4910E2F10E05CE1E52EDB
:1053800050E1F52E32CF853159F4F0E0E157FD4F71
:10539000E4910E2F10E047E9E42E4FE0F42E25CFE4
:1053A00008E210E095E1E92E9FE0F92E883109F43A
:1053B0001CCF833249F4EDE8F2E0059114913DEF02
:1053C000E32E30E1F32E11CF8432C9F000ED17E067
:1053D000B0E6EB2EB8E0FB2E853209F006CF8E2F1B
:1053E00063E00E94992FE92FF0E0E657FD4FE4912A
:1053F0000E2F10E020E6E22E22E1F22EF6CE04EF90
:1054000011E088EDE82E8EE0F82EEFCE80E069CF37
:1054100088EB92E00E94B40D80918E02805D0E9424
:10542000F40C8EEC92E00E94740D80918D02805DF0
:105430000E94F40C8AEC92E00E94740D80908B0222
:1054400090908C0220912D0130912E0182169306AE
:1054500009F02AC120918A02203209F025C1E4E82E
:10546000F2E08F0181918032E1F3F8010190002098
:10547000E9F79F012150310979010E151F0508F444
:105480004AC188EC92E00E94740D80912F010E9425
:10549000F40C8091050590910605892B09F046C111
:1054A000809189048823A9F00E94A50700918504B2
:1054B000109186042091870430918804601B710B41
:1054C000820B930B6F3F7F4F8F4F9F4710F40E94CB
:1054D0001D12C1100E94381286E0EBEBF2E0DE01F3
:1054E000119601900D928A95E1F7C090BC02F09060
:1054F000BD021091BE02E090BF020091C002109266
:10550000BD021092BE021092BF021092C002812F03
:105510008F2909F445C08091B9029091BA020E9486
:105520005A179C019091B402992309F40AC22531BB
:105530003105B0F19F3F19F09F5F9093B402FF20B7
:1055400059F00E9439099FEF1F140CF491E0899FD4
:10555000802D11248093BD02112359F00E94390936
:1055600091E011160CF09FEF899F802D11248093FC
:10557000BE028091BD02882399F0B090BE02BB208C
:1055800079F00E945909882309F4AFC18093BD02C4
:105590008B2D0E945909882309F4AAC18093BE0269
:1055A000802F8E2909F445C08091B7029091B802EE
:1055B0000E945A179C019091B502992309F4BCC12D
:1055C00021353105B0F19F3F19F09F5F9093B502EF
:1055D000EE2059F00E9417099FEF1E140CF491E081
:1055E000899F802D11248093BF02002359F00E94CF
:1055F000170991E010160CF09FEF899F802D112460
:105600008093C0028091BF02882399F0E090C0028D
:10561000EE2079F00E945909882309F46CC1809327
:10562000BF028E2D0E945909882309F467C1809317
:10563000C0028091BC028C1117C08091BD028823EA
:1056400011F08F1111C02091BE02222311F012130C
:105650000BC09091C002992311F0901305C03091B6
:10566000BF02332309F463C10E94751786E0FE016F
:105670003196ABEBB2E001900D928A95E1F70E9472
:10568000C8119091B302891709F4F2CC8093B30248
:105690000E94A507EDCC82EB92E0BCCE8CEA92E0B2
:1056A000B9CE85EA92E0B6CE90922E0180922D017D
:1056B00020E220938A02B12CA12C1092890254E896
:1056C000252E52E0352E6FE7E62E62E0F62E8101A0
:1056D000C501B401A30192010E942431605D6033D1
:1056E00019F42016310631F081149104A104B1049B
:1056F00009F460E2D80114966C93C501B401A301CA
:1057000092010E94243149015A0101501109E01609
:10571000F106F1F6A4CED8018D918D010E94F40C12
:10572000ACCE80ED92E00E94740DB3CE80918A04DD
:10573000882309F4B5CE8091B0028111B1CE0E94C8
:10574000381220910505309106052115310509F41F
:10575000A7CE80E041E050E0282E312C5A01082EDF
:1057600002C0AA0CBB1C0A94E2F7B50162237323A2
:10577000672B11F48F5FF0CF9091AF0290FF9BC029
:10578000880F880F880F8093320110923501895F4E
:105790008093330183E08093360124E630E047E0D4
:1057A00050E060E371E088E70E94462D892B09F004
:1057B00077CE95E0220C331C9A95E1F78091AF02E9
:1057C00080FF8BC0EFE8F2E080E2DF011D928A9556
:1057D000E9F7E4E9F1E0F88BEF8780E9882E81E0D2
:1057E000982E07E0AF85B8894D91B88BAF87F4014B
:1057F00081914F01820D932D911D9C01295F3A4F9C
:105800003E872D87E42FF0E0E157FD4F30E020E0A8
:10581000F02EF21A11E0022E01C0110F0A94EAF7DD
:105820006D857E8590E0DB018D91BD0181234F2D3B
:10583000491B4770E42E042E000C550BB82F01C0F5
:10584000BB0FEA94EAF7EB2E519541955109477049
:10585000552701C086954A95EAF7E82A8081E82A0B
:10586000E0829F5F9830F9F62F5F3F4F31962830E6
:10587000310571F6EF85F889E859F14009F0B2CFAA
:1058800004E610E020E230E04FE852E060E488E710
:105890000E94672D892B09F003CEC5018095909554
:1058A00020910505309106058223932390930605E8
:1058B00080930505F5CD8295880F8076809332011F
:1058C0009101369527953695279520933501815E70
:1058D000809333012093360160CFA101495F5A4F75
:1058E00004E610E020E230E0D1CFD092BD0250CEED
:1058F000D092BE0255CED092BF0293CED092C002BB
:1059000098CE09BD19BD09B400FEFDCF8091D80025
:105910008F7D8093D8008091E00082608093E000CA
:105920008091E00081FDFCCF0E949C1733CC822B3C
:10593000892B09F49BCE98CE2B30310508F045CE4B
:1059400078CE2B30310508F0F7CD2ACE1092B90071
:105950008CE08093B8000895B0E0A0E0E2EBFCE2B8
:105960000C94692FB82EEB010E9469176C01EE248C
:10597000E394F12CC431D10560F025E0E22EF12C46
:10598000CF3FDC0731F0CE0164E170E00E944E2F82
:105990007B0184EAA82E94E8992E1092BC00A09274
:1059A000BC000E9469178C018091BC0087FF0DC06C
:1059B0008091B900887F8830F9F08091B900887FA4
:1059C0008031D1F00FEF1FEF08C0C8010E945A17B5
:1059D000E816F90648F70EEF1FEFCF3FDC07E9F2B4
:1059E000C6010E945A17C817D907B8F6C801CDB723
:1059F000DEB7EBE00C94852FB092BB009092BC0018
:105A00000E9469178C018091BC0087FF0AC08091B9
:105A1000B900887F883111F08034A1F610E000E0F1
:105A2000E5CFC8010E945A17E816F90660F7D3CFF0
:105A30000F931F93CF93DF93EB018093BB0084E818
:105A40008093BC000E9469178C018091BC0087FF85
:105A500011C02091B900287F81E090E0283211F434
:105A600090E080E0919581959109DF91CF911F9110
:105A70000F910895CF3FDC0741F3C8010E945A17E8
:105A8000C817D90710F78EEF9FEFEFCFB0E0A0E077
:105A9000ECE4FDE20C946C2F6B018A017901B901F1
:105AA0000E94AC2CE6010C0D1D1DC017D10711F092
:105AB00097FF08C024E92093BC00CDB7DEB7E8E02B
:105AC0000C94882FB70189910E94182DEECFB0E079
:105AD000A0E0EDE6FDE20C946C2FC62F6A0179017F
