:100000000C943C060C9459060C9459060C947F2FC2
:100010000C9459060C9459060C9459060C945906E4
:100020000C9459060C9459060C94C7160C94E61AB5
:100030000C9495270C9459060C9459060C94590667
:100040000C9459060C9459060C9459060C945906B4
:100050000C9459060C94A0170C9459060C9459064C
:100060000C9459060C9459060C9459060C94590694
:100070000C9459060C9459060C9459060C94590684
:100080000C9459060C9459060C9459060C94590674
:100090000C9459060C9459060C9459060C94590664
:1000A0000C9459060C9459060C94590620202020D3
:1000B0006162636465666768696A6B6C6D6E6F70B8
:1000C0007172737475767778797A31323334353664
:1000D00037383930524542545F2D3D5B5D5C233BE0
:1000E00027602C2E2F2020200000000000000000A0
:1000F0000000000000000000000000000000000000
:100100000000000000000000000000007E0F00D48E
:10011000FFFFFFC7000000780000000000000000A3
:100120002A2B280000000000000000000000000052
:1001300000000029000000002C1E3420212224345D
:100140002627252E362D3738271E1F20212223242F
:1001500025263333362E37381F0405060708090ACB
:100160000B0C0D0E0F101112131415161718191A67
:100170001B1C1D2F3130232D350405060708090AE5
:100180000B0C0D0E0F101112131415161718191A47
:100190001B1C1D2F3130354C3D3E00290014001A28
:1001A000000800150017002B0004001600070009C6
:1001B000000A00E0001D001B0006001900050000F9
:1001C0000000000000E200E1002C412E00130012AC
:1001D000000C0018001C002A0033000F000E000D58
:1001E000000B004C003800370036001000110000F2
:1001F0000000000000E300E100284229003B003C31
:100200000052003E023E002B004200500051004FC1
:10021000004502E0001D014300440045001C0100B0
:100220000000000000E200E10001000000270026BD
:1002300000250024002C032A002B03230022002188
:10024000004D004C00430420001F001E004A000027
:100250000000000000E200E100284329001E021F08
:10026000022002210225022B003102240234003434
:10027000022302E000350035022D002E022202008A
:100280000000000000E200E1002C430000420331C6
:10029000002D002D023A002A00447E2F002F022656
:1002A000024F044C00490030003002270250040085
:1002B0000000000000E300E1000100290021782394
:1002C000782578277829782B0022782478267828B2
:1002D000782A78E00020780000000000000000008C
:1002E0000000000000E200E100010000000000AAA0
:1002F00000A900000000002A003D04AB00AE00ACE5
:10030000004F094C000000000000000000500900F0
:100310000000000000E300E100010000DA0281FFBC
:10032000D9F1DB20A4A62EAF00A0C0D30000A1C845
:10033000D30000AED580A81F408D1420001E0F05ED
:1003400000047F3F1F643214643214783C1E1E1474
:100350000A05556E6465660041646A7573740052DF
:1003600061697365004C6F776572004465666175FD
:100370006C74004C617965723A20003A002C206B55
:10038000007800808182838485868788898A8B8C27
:100390008D8E8F9091929394A0A1A2A3A4A5A6A7BD
:1003A000A8A9AAABACADAEAFB0B1B2B3B4C0C1C234
:1003B000C3C4C5C6C7C8C9CACBCCCDCECFD0D1D295
:1003C000D3D4000001010101010101010102020277
:1003D00002020202020203030303030303030404F1
:1003E00004040404040505050505060606060607BB
:1003F0000707070708080808090909090A0A0A0B74
:100400000B0B0C0C0C0D0D0D0E0E0E0F0F0F101014
:10041000111111121213131414151516161717189B
:100420001819191A1A1B1B1C1D1D1E1E1F20202106
:100430002222232424252626272829292A2B2C2D4D
:100440002D2E2F30313232333435363738393A3B6E
:100450003C3D3E3F404142434445464748494A4C63
:100460004D4E4F50515354555658595A5B5D5E5F2F
:10047000616264656668696B6C6D6F7072737577C5
:10048000787A7B7D7E8082838587888A8C8E8F9127
:10049000939596989A9C9EA0A2A3A5A7A9ABADAF51
:1004A000B1B3B5B7BABCBEC0C2C4C6C9CBCDCFD13B
:1004B000D4D6D8DBDDDFE2E4E7E9EBEEF0F3F5F8E4
:1004C000FAFDFFFFAA7F55402223252628292A2C42
:1004D0002D2F3032333536383A3B3D3E404243458E
:1004E00047494A4C4E5051535557595A5C5E6062C9
:1004F000646668696B6D6F71737577797B7D7F81D9
:10050000838587898A8C8E90929496989A9C9E9FD8
:10051000A1A3A5A7A8AAACAEAFB1B3B4B6B8B9BBF6
:10052000BCBEBFC1C2C3C5C6C7C9CACBCCCDCED065
:10053000D1D2D2D3D4D5D6D7D7D8D9D9DADADBDB52
:10054000DBDCDCDCDCDCDDDDDDDDDCDCDCDCDCDBE9
:10055000DBDBDADAD9D9D8D7D7D6D5D4D3D2D2D132
:10056000D0CECDCCCBCAC9C7C6C5C3C2C1BFBEBC25
:10057000BBB9B8B6B4B3B1AFAEACAAA8A7A5A3A196
:100580009F9E9C9A98969492908E8C8A8987858358
:10059000817F7D7B79777573716F6D6B6968666438
:1005A00062605E5C5A5957555351504E4C4A494708
:1005B000454342403E3D3B3A3836353332302F2DAD
:1005C0002C2A29282625232200AF00AE0501090286
:1005D000A10185020901A1000509190129081500D9
:1005E0002501950875018102050109300931158140
:1005F000257F95027508810609381581257F9501AB
:1006000075088106050C0A38021581257F9501754C
:10061000088106C0C005010980A101850319012ACE
:10062000B700150126B700950175108100C0050CB3
:100630000901A101850419012AA002150126A002C1
:10064000950175108100C005010906A10185060507
:100650000719E029E71500250195087501810205B4
:1006600007190029EF1500250195F0750181020594
:1006700008190129059505750191029501750391E8
:1006800001C005010906A101050719E029E71500C8
:1006900025019508750181029501750881010507FD
:1006A000190029FF150026FF009506750881000531
:1006B0000819012905150025019505750191029577
:1006C0000175039101C009023B00020100A0FA0973
:1006D000040000010301010009211101000122446D
:1006E000000705810308000109040100010300005F
:1006F0000009211101000122B60007058203200034
:10070000011201000200000008534601000100012F
:100710000200010C0343006F0072006E00650000D0
:1007200000100366006F006F007300740061006EBC
:10073000000000040309040000000000003E5B4FBD
:100740005B3E003E6B4F6B3E001C3E7C3E1C001827
:100750003C7E3C18001C577D571C001C5E7F5E1CB5
:100760000000183C180000FFE7C3E7FF0000182452
:10077000180000FFE7DBE7FF0030483A060E0026CE
:100780002979292600407F05050700407F05253F80
:10079000005A3CE73C5A007F3E1C1C0800081C1C09
:1007A0003E7F0014227F2214005F5F005F5F00061F
:1007B000097F017F00006689956A00606060606063
:1007C0000094A2FFA2940008047E04080010207E7A
:1007D00020100008082A1C0800081C2A0808001E0F
:1007E00010101010000C1E0C1E0C0030383E38305B
:1007F00000060E3E0E060000000000000000005F34
:10080000000000000700070000147F147F1400247C
:100810002A7F2A12002313086462003649562050AA
:1008200000000807030000001C22410000004122D4
:100830001C00002A1C7F1C2A0008083E0808000033
:1008400080703000000808080808000000606000A0
:10085000002010080402003E5149453E0000427F3E
:100860004000007249494946002141494D33001872
:1008700014127F10002745454539003C4A4949314B
:1008800000412111090700364949493600464949C6
:10089000291E000000140000000040340000000089
:1008A00008142241001414141414000041221408E6
:1008B000000201590906003E415D594E007C1211AB
:1008C000127C007F49494936003E41414122007F68
:1008D0004141413E007F49494941007F09090901E1
:1008E000003E41415173007F0808087F0000417FAE
:1008F0004100002040413F01007F08142241007F59
:1009000040404040007F021C027F007F0408107FAF
:10091000003E4141413E007F09090906003E415128
:10092000215E007F09192946002649494932000302
:10093000017F0103003F4040403F001F2040201F37
:10094000003F4038403F00631408146300030478FC
:100950000403006159494D4300007F4141410002B9
:100960000408102000004141417F000402010204FC
:10097000004040404040000003070800002054545D
:100980007840007F284444380038444444280038E4
:100990004444287F0038545454180000087E09024B
:1009A000001824241C78007F080404780000447D8B
:1009B0004000002040403D00007F1028440000001F
:1009C000417F4000007C04780478007C08040478AF
:1009D000003844444438007C182424180018242487
:1009E000187C007C08040408004854545424000473
:1009F000043F4424003C4040207C001C2040201C3C
:100A0000003C4030403C004428102844004C90906A
:100A1000907C004464544C440000083641000000BF
:100A200000770000000041360800000201020402C5
:100A3000003C2623263C00000000000000000000CF
:100A400000000000000000C0E0F0F8F81800C0F05E
:100A5000FCFEFFFFFFFFFFFFFF7E00000000000025
:100A600000000080C0E0E0E0E0E0E0E0E0C0800006
:100A700000000080C0E0E0E0E0E0E0E0E0C08000F6
:100A80000000E0E0C0C0E0E0E0E00000E0E0C0C066
:100A9000E0E0E0E0E0C0800000000080C0E0E0E0D6
:100AA000E0E0E0E0E0C080000000000000000000A6
:100AB0000000000000E0F0F0F0E0ECEEF7F3702052
:100AC000007C7C7C7E007E7E7E7F7F7F000080C0FD
:100AD000E07E5B4F5BFEC00000C000DCD7DEDEDEE8
:100AE000D7DC00C000000000000000000000000093
:100AF00000000000000000000000000000000000F6
:100B0000F8FCFEFFE000FFFFFFFFFFFF80FFFFFF9D
:100B1000FFFFFFFFFFFF1F070100000000000000B4
:100B20000000FFFFFF8100000000000081C3C3C37D
:100B30000000FFFFFF8100000000000081FFFFFFB9
:100B40000000FFFFFF01000000000000FFFFFF01A9
:100B50000000000001FFFFFF0000FFFFFF9D1C1CC5
:100B60001C1C1C1C9DDFDFDF0000000000000000DB
:100B700000000000000F1F3F7F7F7F7F7F3F1E0C24
:100B8000001F1F1F3F003F3F3F7F7F7F00307B7F65
:100B90007830202030787F3B0003000F7F0F0F0F4D
:100BA0007F0F0003000000000000000000000000B4
:100BB0000000000000000000000000000000000035
:100BC000030F1F3F3F3F3F1F1F3F3F7F7F7F3F3F41
:100BD0001F3F7F7F7F7F7C7878381C0F00000000EC
:100BE00000000001030707070707070707030100C5
:100BF00000000001030707070707070707030100B5
:100C000000000707070000000000000007070700BA
:100C100000000000000707070000000103070707A6
:100C2000070707070703010000000000000000009D
:100C300000000000000000000000000000000000B4
:100C400000000000000000000000000000000000A4
:100C50000000000000000000000000000000000094
:100C60000000000000000000000000000000000084
:100C7000000000000000000011241FBECFEFDAE0EA
:100C8000DEBFCDBF27E0A4ECB1E001C01D92AF30C4
:100C9000B207E1F711E0A0E0B1E0E0EFF5E602C055
:100CA00005900D92A43CB107D9F70E94BC270C9483
:100CB000A2320C940000482F2091FE049091C504AC
:100CC00057E0291302C080E0089530E0529FF00100
:100CD000539FF00D1124EA53FB4F8181681306C026
:100CE0008081481303C085818111EECF2F5F3F4F74
:100CF0002770E7CFFC01AC014C5F5F4F8FEF91E3B2
:100D00002191822728E030E087FF09C0880F8927DA
:100D100021503109C9F7E417F50791F70895880FB5
:100D2000F7CFE8EDF0E080818E7F80831092E200C3
:100D30001092DA001092E100A0EEB0E08C91816098
:100D40008C9380818F77808319BCA7EDB0E08C9164
:100D50008E7F8C9380818F7E80831092960408957D
:100D60002091E4003091E50095E6A9012091EC0086
:100D7000822F817020FF06C08091E80080FF06C0AE
:100D800080E008952091E80022FD1AC08091BB0404
:100D9000882389F0853089F08091EB0085FD0FC0B4
:100DA0002091E4003091E50042175307F9F2915089
:100DB000E1F684E0089582E0089583E0089581E0FB
:100DC00008958091BD0487FF13C08091E80082FFE1
:100DD00006C08091E8008B778093E80004C0809182
:100DE000BB048111F2CF08958091BB048823D9F30D
:100DF0008091E80080FFF8CF8091E8008E77ECCFFB
:100E0000982F9093E900242F762F50E0891731F026
:100E10007091EC002091ED005091F00021FD07C091
:100E20009F5F973071F78093E90081E008953091DA
:100E3000EB003E7F3093EB003091ED003D7F30932F
:100E4000ED003091EB0031603093EB007093EC00DB
:100E50002093ED005093F0002091EE0027FDE0CFAD
:100E600080E00895B0E0A0E0E8E3F7E00C94B9304A
:100E7000C8EDD0E088818F7E8883E7EDF0E0808147
:100E80008160808384E082BF81E0809396048881C2
:100E90008E7F888302EE10E0F80110821092DA0053
:100EA00081EEC82ED12CF601108288818F7788833D
:100EB00088818068888388818F7D888319BC10929F
:100EC000BB041092BC041092BA041092B90490EEC4
:100ED000E92EF12CF70180818B7F808388818160EE
:100EE000888342E060E080E00E940007F601808194
:100EF0008E7F8083F801808181608083808188601B
:100F00008083F70180818E7F8083888180618883E0
:100F1000CDB7DEB7E8E00C94D530FC018091C30476
:100F20009091C40486179707A0F06115710529F404
:100F30009091E8009E779093E80090E0611571052C
:100F400051F4911108C08091E80082FF34C080E024
:100F50000895BC01F2CF8091BB048823C1F1853094
:100F6000C1F18091E80083FD30C08091E80082FDEE
:100F7000EACF8091E80080FFE1CF8091F3002091DB
:100F8000F200382F6115710519F02830310558F03D
:100F900091E02830310509F090E02091E8002E77AB
:100FA0002093E800CBCF81918093F10061507109CB
:100FB0002F5F3F4FE7CF8091BB04882341F08530FE
:100FC00041F08091E80083FFBECF81E0089582E088
:100FD000089583E0089580919804089587E797E73E
:100FE000909301088093000888E19AE00FB6F89486
:100FF000A895809360000FBE90936000FFCF2FB73D
:10100000F894609190047091910480919204909171
:1010100093042FBF089520914A012223C9F0209103
:10102000940427FF15C0E62FE695E695E695EE3188
:10103000D8F4E80FF92FF11D677021E030E001C00E
:10104000220F6A95EAF7209582812823228308954A
:10105000FC01329608962191621303C0DF011197BB
:101060001C92E817F907B9F7089520914A01222345
:10107000C1F02091940427FF14C0E62FE695E69571
:10108000E695EE31F8F4E80FF92FF11D677021E0D5
:1010900030E001C0220F6A95EAF78281822B8283B9
:1010A0000895FC0132962FEF30E04191641751F022
:1010B0002F3F19F4411101C0232F3F5F3630A9F7AC
:1010C0002F3F09F40895820F911D27FD9A95FC0189
:1010D00062830895A3E0B0E0E0E7F8E00C94BF304D
:1010E00020918D0430918E0428173907A1F0909338
:1010F0008E0480938D04E0918B04F0918C043097E2
:1011000051F024E029839B838A830680F781E02DB8
:10111000CE01019609952396E2E00C94DB30A3E022
:10112000B0E0E5E9F8E00C94BF30209189043091FB
:101130008A0428173907A1F090938A0480938904C0
:10114000E0918B04F0918C04309751F023E02983D7
:101150009B838A830680F781E02DCE010196099555
:101160002396E2E00C94DB30FA01811101C0FB010F
:10117000099508950895E5ECF2E01182828184607A
:101180008283089580917B04982F9E7F61F4817003
:10119000826080937B0480917E04893718F088E711
:1011A00080937E0408958635B0F381708465F1CF15
:1011B000AF92BF92DF92EF92FF920F931F93CF9364
:1011C000DF93182F062FE901493708F048E7E42F8D
:1011D000F0E0ED53FC4F011110C0E4915E2F4E2F53
:1011E0004983E8835A83DF91CF911F910F91FF903C
:1011F000EF90DF90BF90AF900895202F30E04491A2
:10120000D42EE42EF12C56E0159FC0011124EFEFEF
:10121000F0E0BF010E949B30812F90E0880F991F62
:1012200055E5569FD001579FB00D11248A1B9B0B8B
:10123000982F990F890F5F01A21AB30AAE9CD001B3
:10124000AF9CB00DBE9CB00D11245B2F089F800198
:101250001124012F11275F01A01AB10AAE9C800151
:10126000AF9C100DBE9C100D11245F01A81AB1088F
:10127000A29EC001A39E900DB29E900D1124892FB5
:101280009927E81BF90BEE9DC001EF9D900DFE9D87
:10129000900D1124E92F62307105A1F050F4611511
:1012A000710509F49DCF6130710581F0EB2F512F4D
:1012B00097CF6430710569F080F06630710509F4EC
:1012C0008FCFF4CFE42F4B2F592F8ACFE42F412F0C
:1012D00087CFEB2F542F492F83CF4B2F5D2DE12F3D
:1012E0007FCF8091B40280FD16C081FD16C082FDC3
:1012F00016C08091B3028823A1F0883280F428E0E0
:10130000829FC001112468E270E00E940031862FA4
:10131000672B39F0089582E0089584E0089588E00D
:10132000089581E008958091B40280FD14C081FD8C
:1013300014C082FD16C08091B202882381F08E31E4
:1013400080F420E5829FC00111246EE170E00E94CC
:101350000031862F089584E1089588E2089588E099
:10136000089580E50895282F35EB2303C00111244B
:1013700097FF04C080589109892F089580589F4F86
:10138000FBCF80E00895F894E82FE295EF70F0E04D
:1013900031A1282F2F7081E090E001C0880F2A959D
:1013A000EAF7982F9095932391A392A1892B82A37A
:1013B000789408959091940492FF10C041E0282FF2
:1013C0002471243009F040E031E0282F28712830C2
:1013D00009F030E0431711F02CE0822793FF10C092
:1013E00041E0282F2471243109F040E031E0282F1A
:1013F0002871283109F030E0431711F02CE08227E2
:101400003091950430FF10C051E0282F2171213018
:1014100009F050E041E0282F2871283009F040E021
:10142000541711F029E0822731FF10C041E0282F26
:101430002171213109F040E031E0282F2871283155
:1014400009F030E0431711F029E0822794FD877EF0
:10145000089582389105B9F1B0F48133910509F40A
:101460007DC048F48932910509F46DC08A32910536
:1014700009F47BC008958533910509F45FC0893371
:10148000910509F10895833E9105D9F138F4803E24
:10149000910529F1823E910579F10895863E9105E5
:1014A000D9F1873E910509F43EC0843E910541F58E
:1014B0002091950421FF24C08091940484FD19C0DB
:1014C00087EE90E0089520919404237009F05AC0AB
:1014D0002091950423FF14C089E290E008952091A3
:1014E000940420FD38C03091950430FF09C024FFDA
:1014F00043C090E080E008952091940422FDF7CF4E
:1015000008952091940422FD3AC03091950430FD55
:1015100039C024FFF5CFEDCF2091940423FFF0CF05
:1015200024FDE7CFCDCF2091940423FD2EC0309130
:10153000950431FFEECF84EE90E00895209194045D
:1015400025FFDECFC9CF2091940425FD21C0209135
:10155000950423FFD5CF89E390E0D2CF2091940466
:1015600026FFCECF8AE290E008952091940426FFD2
:10157000C7CF81E390E0089583EE90E0089582EE76
:1015800090E0089580EE90E0089586EE90E0089552
:1015900085E390E00895972F7830B8F46630A8F48A
:1015A0008430B0F470E026E0929F600D711D11242C
:1015B000FB0190E3899FE00DF11D1124EE0FFF1F49
:1015C000E556FE4F85919491089580E090E008954E
:1015D00081E0FCCF1F93CF93DF930E94290AEC0197
:1015E000C11580E5D807F0F5C11580E4D80708F0EB
:1015F0009CC0C03ED10520F5CD3CD10508F082C08D
:10160000C83AD10578F4C53AD10508F073C0C130A5
:10161000D10519F1209709F1C430D105F0F4D0E0DB
:10162000C0E01BC0C33CD105D0F7C85AD0E0CC0FF6
:10163000DD1FC25BDE4F0990D881C02DD4640DC080
:10164000C11580E2D80708F0D1C0C11581E0D807E4
:1016500008F05AC0C83ED10510F7CE01DF91CF91F6
:101660001F910895C03682E5D80718F5C03482E589
:10167000D80708F06BC0C03282E5D80708F05FC019
:10168000C11582E5D80708F497C02C2F269526951A
:1016900080E2289F900111248C2F8370C1E0D0E05C
:1016A00002C0CC0FDD1F8A95E2F7C22BD32BDD6879
:1016B000D4CFC03A82E5D80760F4C03882E5D807B5
:1016C00008F459C0CF71D0E0DC2FCC27C46FD06AAA
:1016D000C4CFC03C82E5D80708F462C0C03E82E5B2
:1016E000D80708F09CCFDC2FCC27CC27DF71C06F48
:1016F000D06AB3CFC55AD0E0C55BDE4FC881D0E019
:10170000D064ABCFD065A9CF8D2F0E94DA09182FF6
:10171000CE0199270E94290AC12FD0E0DC2FCC27C7
:10172000CC27DF71C82BD92B98CFCE0199270E94E7
:10173000290ACC27DF70C82BD92BD06A8ECFCF7166
:10174000D0E0DC2FCC27C16FD06A87CF2C2F269515
:101750002695277080E2289F900111248C2F83709A
:10176000C1E0D0E002C0CC0FDD1F8A95E2F7C22BAA
:10177000D32BDC6872CF2C2F26952695277080E21C
:10178000289F900111248C2F8370C1E0D0E002C00B
:10179000CC0FDD1F8A95E2F7C22BD32BDA685DCF21
:1017A0008C2F8F710E94DA09C82FD0E0DC2FCC2754
:1017B000CC27DF71D06251CF8C2F8F710E94DA0954
:1017C00055E0D695C7955A95E1F7CF70D0E0DC2F5C
:1017D000CC27282F30E084FF05C044E0220F331FC0
:1017E0004A95E1F7C22BD32BD06937CF8D2F8F715C
:1017F0000E94DA09182FCE0199270E94290AC12FC9
:10180000D0E0DC2FCC27CC27DF71C82BD92BD2CF4F
:10181000809590912A02982390932A0208958091AE
:10182000FE049091C504981301C008958F5F8770DE
:10183000FACFB0E0A0E0EFE1FCE00C94B8307C011E
:10184000009102051091030580912B0290912C02CA
:10185000082B192BCFE0D0E0CC24C394D12CBC2E84
:10186000C6010C2E02C0880F991F0A94E2F780234C
:101870009123892B49F4219790F7B12C8B2DCDB76B
:10188000DEB7E9E00C94D430B7018C2F0E94CB0A6C
:101890000E94EA0A019779F3F1CFCF93DF93EC012D
:1018A0000E94190CBE010E94CB0A0E94EA0ADF9135
:1018B000CF910895983078F5863068F5E82FF0E0FC
:1018C00086E0989FE00DF11D11249E2F977083E014
:1018D000F695E7958A95E1F7EE0FFF1FEE0FFF1FD4
:1018E000E851FE4F50E040E080E0219130E0092EC9
:1018F00002C0369527950A94E2F721703327042E0B
:1019000001C0220F0A94EAF7822B4F5F5F4F4430E9
:10191000510559F7089580E00895983098F586307C
:1019200088F5E82FF0E086E0989FE00DF11D112486
:101930008E2F877041E001C0440F8A95EAF783E05B
:10194000F695E7958A95E1F7EE0FFF1FEE0FFF1F63
:10195000E851FE4F30E020E070E05191DF01119737
:10196000CB01022E02C0969587950A94E2F781700A
:1019700081958527842385278C932F5F3F4F2430C3
:10198000310559F708959093030580930205089552
:1019900080910205909103059C0126703327263023
:1019A000310521F488600E94C30C0895877FFBCF26
:1019B00021E030E002C0220F331F8A95E2F7209524
:1019C00030958091020590910305822393230E9414
:1019D000C30C089590910702809589238093070294
:1019E000282F277069F4891759F09091950492FF78
:1019F00007C08695869586950E94D80C109207029E
:101A0000089521E030E002C0220F331F8A95E2F7EB
:101A10008091020590910305822B932B0E94C30CA9
:101A2000089590932C0280932B020895FC01248149
:101A30002223C1F0808191810E944D0C92959F706C
:101A4000963091F058F4925F9F70923058F4803F36
:101A500019F030F4883E30F481E008959A5FF4CFB5
:101A6000843FD1F380E00895883EB0F3813FD1F701
:101A7000F3CFA6E0B0E0EFE3FDE00C94BE30498385
:101A80005A8349815A819923A1F0222391F0CA01F6
:101A90000E94190C182F682F89819A810E948D0C41
:101AA00069817A81812F0E94CB0A2696E3E00C940B
:101AB000DA30CA010E945A0C182FF2CFCF93DF936D
:101AC000682F81E06A3019F06D3031F480E00E94B7
:101AD000EC0DDF91CF91089580910D0790910E0745
:101AE00026E0FC01A7E0B7E001900D922A95E1F70E
:101AF000603E08F458C026E0FC0111922A95E9F7EF
:101B0000C0910D07D0910E0746E050E0BE0187E07E
:101B100097E00E94D1319E0127503540892B41F139
:101B2000C90145E0969587954A95E1F741E050E077
:101B3000BA0102C0660F771F8A95E2F7CB01609168
:101B4000050570910605862B972BB9016B5F7F4FBA
:101B5000E5E076956795EA95E1F702C0440F551FD9
:101B60006A95E2F7842B952B9093060580930505E3
:101B70002A5F3F4F40910405642F70E0C9010E9425
:101B80009B30481B463010F4240F311D211572E0A4
:101B9000370710F030E020E0295F3A4F30930E070E
:101BA00020930D0796CFF6E06F9FB0011124695C7A
:101BB000784F46E050E00E94BB31A2CFCF93DF9335
:101BC000EC01FE018491811103C0DF91CF91089552
:101BD0000E945E0D2196F5CFCF93382FE0910D072F
:101BE000F0910E07E750F54020910405622F70E058
:101BF000CF010E949B30281B822F332361F066E0C7
:101C00000E94E630C82FC15010F4CF91089580E2B1
:101C10000E945E0DF8CF9F01280F311D2115324023
:101C200018F080E0F0E0E0E08E0F9F2F911D895FBB
:101C30009A4F90930E0780930D07E7CF0E94DE0D19
:101C400081E00E94EC0D089580912A029091290272
:101C5000892B8093C601909128029923A1F0892BAA
:101C60008093C60180914A018823E1F18091940418
:101C700087FF38C08EE1E8ECF1E090E08150A0F5FC
:101C800091111092280240E250E068E072E086EC88
:101C900091E00E94D131892B21F180E2E6ECF1E064
:101CA000A8E0B2E001900D928A95E1F7E0918B04F3
:101CB000F0918C043097A9F080914A01882359F063
:101CC0008091940487FF07C08091C6018093C7016B
:101CD00086E08093C6010280F381E02D86EC91E0DE
:101CE0000995089586E0C7CF2191222339F29F5F9D
:101CF000C5CF882321F00E94080C0E94240E08956D
:101D0000882339F090912A02982B90932A020E94FE
:101D1000240E08950F931F93CF93DF938B01EA0155
:101D20009091BB04943061F58093E9008FEF90911E
:101D3000E800815095FD06C095ED9A95F1F70000F9
:101D40008111F5CF8091E80085FF1AC00E94B0068E
:101D5000811111C08091E80085FD06C08091E800E6
:101D60008E778093E800F2CFF80181918F01809304
:101D7000F100219779F78091E8008E778093E80051
:101D8000DF91CF911F910F91089543E050E0BC0186
:101D900082E00E948A0E089546E050E0BC0182E095
:101DA0000E948A0E0895CF93DF93EC0180914A013F
:101DB000811111C048E050E0BE0181E00E948A0E0E
:101DC00080E2FE01A9E9B4E001900D928A95E1F765
:101DD000DF91CF9108958091940487FF05C040E280
:101DE00082E050E0BE01EACF48E081E0FACF6091A6
:101DF000460180917B0480FF20C08091450143E033
:101E0000849FC001112485539D4F539A2BB1277F86
:101E10003BB138605FB7F894FC01649FE00DF11DA1
:101E20001124BF0168177907D1F45FBF8FE594E0F3
:101E30000197F1F700C0000008958091470190914B
:101E4000480123E0829FF0011124E553FD4F8917DB
:101E5000A0F61182108212828F5F3396F8CFFC01B8
:101E60004191CF01E8E03BB9000000C047FF2BB92A
:101E7000440F000000C000C000C02BB900C0EA95AC
:101E800091F7D0CF0F931F93CF93DF93EC0110E026
:101E900000E0909149019017110609F06CF40E943E
:101EA000F70E8C8190E00196817099278C83DF91E9
:101EB000CF911F910F91089520914701A801420FE2
:101EC000511D9A01220F331F240F351F25533D4FFB
:101ED0004C8160917D0480917C0496959017110649
:101EE00051F04CF0442349F040917E040E94D80800
:101EF0000F5F1F4FCECF4423B9F340E0F7CFB0E0E0
:101F0000A0E0E5E8FFE00C94B530EC014C81042F33
:101F100010E09801D8010E9493329B01AC010E940D
:101F20005E324B015C01E0E2F0E0E01BF10BA5E565
:101F3000B0E0AC019B010E945E326B017C019F010D
:101F4000DF010E941A319B01AC010E9469329B01A2
:101F5000AC01280D391D4A1D5B1DC701B6010E9449
:101F60007132F22E822F90E039E23F1520F143E0EA
:101F7000249F9001112435952795122F109500E08C
:101F800085E5E82EEF1880914901081718F10E94A5
:101F9000F70E9C8181E0992319F0903219F48FEFAC
:101FA0008093440180914401890F8C83CDB7DEB7C3
:101FB000ECE00C94D13025E530E0B901681B790BD9
:101FC0009B01220F331F260F371F37FFD4CF2F5F00
:101FD0003F4FD1CF8E2D01FD8F2D20914701622FD4
:101FE000600F7727771F9B01220F331F260F371FA4
:101FF00025533D4F412F60917D040E94D8080F5F0B
:10200000C2CFEF92FF920F931F93CF93DF93EC0118
:102010008C81811109C081E08C831092C90292E009
:102020009093430180934201809147019091480130
:1020300023E0829FF0011124E553FD4F891758F1E9
:1020400010E003E060914901161758F10E94F70E65
:10205000809142012091C902280F2093C9029091DA
:102060004301980F90934301191654F4022E000C6B
:10207000330B409149014150550B2417350734F07B
:10208000819580934201813009F41C82CDB7DEB77F
:10209000E6E00C94D7301182108212828F5F339663
:1020A000CDCFE12EF12C70E0C7010E9400312091CC
:1020B0004701820F482F50E02091C902022E000CE8
:1020C000330BE216F306BCF020914301022E000C04
:1020D000330B2E153F057CF0809F90011124255372
:1020E0003D4F40917E0460917D0480917C040E946C
:1020F000D8081F5FA7CFFA01EE0FFF1FE40FF51FEF
:10210000E553FD4F118210821282F3CFB0E0A0E0C0
:10211000ECE8F0E10C94B530EC018A81BB24BA9470
:1021200080FD02C0BB24B394A09049018C81811131
:1021300009C081E0B81220C08FEF8A0D8093C802D9
:1021400081E08C83F12CE12C46E3942EEA14B8F064
:102150000E94F70E8091C80291E0B91257C0811118
:1021600050C08091490181508093C8021C82CDB734
:10217000DEB7ECE00C94D1301092C802E1CF0091B0
:1021800047010E0D1F2D111DC801880F991F080F43
:10219000191F05531D4FF80111821082128234E07D
:1021A000C32ED12C812C8091C802880D87332CF14D
:1021B000692D0E94F230892F082E000C990B8E1584
:1021C0009F0591F480917E048C9DA0018D9D500D02
:1021D00011245595479555954795980160917D0433
:1021E00080917C040E94D8088B0CF1E0CF1AD108B2
:1021F000D1F68FEFE81AF80AA9CF87FFDDCF8A0D55
:10220000DBCF81508093C802BC82B1CF90E00196B1
:102210006091490170E00E9400318093C8028C8374
:10222000A6CFEF92FF921F93CF93DF93EC0110E0C4
:10223000EE24EA94F12C60914901161770F00E9487
:10224000F70E9A818C8190FF27C08F5F8C83DF917E
:10225000CF911F91FF90EF90089520914701422F59
:10226000410F5527551FCA019A01220F331F280F0E
:10227000391F25533D4F70E0C7010E940031962F52
:102280008C8140917E0460917D04199F800D112402
:102290000E94D8081F5FCFCF8150D8CF90917B0488
:1022A00090FF0EC0909147012091480133E0939F29
:1022B000F0011124E553FD4F921718F00E94F70E1C
:1022C00008958183608342839F5F3396F5CFA3E0B7
:1022D000B0E0EDE6F1E10C94BD308C018091CA02D2
:1022E00081110AC09E012F5F3F4F48E76FEF0E94A8
:1022F000D8088A818093CA02F8016481613069F04C
:102300008091CA0240E0662361F040E0623011F43F
:102310004091CA0280E060E004C06091CA0240E0DF
:1023200080E00E944E11F801848190E0019663E004
:1023300070E00E94003184832396E4E00C94D9304D
:10234000A3E0B0E0E6EAF1E10C94BF3090917B04A9
:1023500090FF0AC09E012F5F3F4F0E94D8084B811B
:1023600069818A810E944E112396E2E00C94DB3051
:10237000CF93DF93EC01EBE7F4E0438162818C8142
:102380000E94A0118C818F5F8C83DF91CF91089583
:10239000CF93DF93EC01EC81F0E0E853FB4F4491E5
:1023A000EBE7F4E0628181810E94A0118C818F5F54
:1023B0008C83DF91CF910895B0E0A0E0E2EEF1E1EF
:1023C0000C94B7307C015B016A0180915E0201E0F0
:1023D00010E08A3010F40AE010E0C1E0D0E0B5016E
:1023E000C701F6010995811104C021960C171D073C
:1023F0002CF4CDB7DEB7EAE00C94D330CC9F90013B
:10240000CD9F300D300D112490E080E045E34A95DA
:10241000F1F70000019682179307C1F7E0CF809192
:102420003902811110C08091D80080618093D8005A
:102430008AE18A95F1F700C08091D90080FF0AC037
:1024400081E08093390281E090913902913009F066
:1024500080E0089582E0809339020E9491061092F4
:10246000BB04F1CF0E940F12882359F0E0918B0436
:10247000F0918C04309729F00190F081E02D0995BE
:10248000089580E008950F931F930E940F128823F0
:1024900029F00E94FF071F910F9108950E94FF07E6
:1024A00000915F02109160022091610230916202FE
:1024B000600F711F821F931FEECFB0E0A0E0E3E634
:1024C000F2E10C94B9306C017B0164E670E088E7BE
:1024D0000E94F92D8C01E601EC0CFD1C17FD0BC0D0
:1024E000FE01849164E670E00E94652E8C012196C5
:1024F000CE15DF0599F70E94DB2E81E0011511054D
:1025000009F080E0CDB7DEB7E8E00C94D5308091DB
:10251000870490918804911103C091E08927089560
:10252000882369F062E070E08AEC95E00E945D1219
:10253000811103C0809187040895109287048091CF
:102540008704EBCFCF93C0918704809188048823C0
:10255000D1F00E94FF07605A75418F4F9F4F6093E3
:102560008304709384048093850490938604C1113E
:1025700008C062E070E088EC95E00E945D12811175
:1025800005C0C09187048C2FCF91089581E080937E
:102590008704F7CFB0E0A0E0E0EDF2E10C94B130B9
:1025A000FC016280448081E08483E8ECF4E0749074
:1025B000E7E4F5E0E491C0917E04C695C158D0E00F
:1025C000CC0FDD1FCD2FDD27812C75E0972EAA249F
:1025D000AA94B12C55245A94E719EE2EF12C80912F
:1025E0004901881638F00E94F70ECDB7DEB7E0E15A
:1025F0000C94CD30C82CD12C82E0861568F09C9CC0
:10260000F0019D9CF00D1124E359FC4F80917C0456
:10261000808380917D048183411023C09C9CF001C4
:102620009D9CF00D1124E359FC4F138212822091DE
:102630004701C601820F911D9C01220F331F280FF5
:10264000391F25533D4F9C9CF0019D9CF00D11249A
:10265000E359FC4F4281618180810E94D8088394B4
:10266000BECF9C9C80019D9C100D112403591C4FD2
:10267000F80183818823F1F081508383859DC00117
:102680001124648170E00E949B30FB01FF27E85316
:10269000FB4F8491E82FE719E59DC0011124B70194
:1026A0000E949B3080917E04689FB0011124F80144
:1026B0007283BDCF0E94AB31B5010E9400318C17EF
:1026C0009D070CF0B4CFF2E0F61598F40E94AB3100
:1026D000B5010E940031F80180830E94AB31209146
:1026E0007D042695622F70E00E940031280FF801CA
:1026F00021839C9CF0019D9CF00D1124E359FC4F1B
:10270000128280917E04893C58F088EC9C9CF001F8
:102710009D9CF00D1124E359FC4F8483838387CF64
:102720008431A0F784E1F2CFB0E0A0E0EAE9F3E180
:102730000C94B53049015A016B017C010E94C2081A
:102740008401A4016A2D7B2D88E090E00E941D3257
:1027500094014A2D5B2DB601C70100E20E9444316D
:10276000622F84E290E00E940B32CDB7DEB7ECE03E
:102770000C94D130A3E0B0E0E0ECF3E10C94B8307D
:10278000082FE62EF42EC22E90917B0490FF40C0BD
:1027900020917C04281308C080917D04861304C016
:1027A00080917E04841729F08091C7028260809313
:1027B000C702E92FE695AE2FB0E0A856BE4F8C9128
:1027C0008093C5029E7F923039F59E012F5F3F4F67
:1027D0004F2D6E2D802F0E94D8084B8169818A81F0
:1027E0000E944E1100937C04E0927D04F0927E04DE
:1027F000CC2071F020917B0460917F047091800463
:10280000302FA70180918104909182040E9494133B
:102810002396E9E00C94D430823019F4F0907E04D1
:10282000E1CF8630A1F1893091F18931D9F6E951B2
:102830006E2F6170B62EE695F0E0ED53FB4F1491CC
:10284000D12C60914901D61618F00E94F70ECACF1C
:10285000D19EC001112470E00E949B30802FB110E6
:1028600014C0860F20914701622F6D0D7727771FC7
:102870009B01220F331F260F371F25533D4F4F2D2E
:102880006E2D0E94D808D394DCCF861BEBCF022F8D
:10289000A9CFEBE7F4E0438121E1421B08F440E0DB
:1028A00021E0628181810E94BA130895EBE7F4E090
:1028B000438121E1420F08F44FEF21E062818181E1
:1028C0000E94BA130895EBE7F4E0628121E1621BF4
:1028D00008F460E021E0438181810E94BA130895E9
:1028E000EBE7F4E0628121E1620F08F46FEF21E091
:1028F000438181810E94BA130895EBE7F4E081815E
:1029000021E0438162818A500E94BA130895EBE767
:10291000F4E0818121E043816281865F0E94BA13E5
:10292000089580917F04882319F0815080937F045B
:1029300020917B0430917C0440917D0450917E0471
:1029400060917F0470918004809181049091820451
:102950000E949413089580917F04833018F48F5F50
:1029600080937F0420917B0430917C0440917D040E
:1029700050917E0460917F04709180048091810465
:10298000909182040E9494130895EBE7F4E083E0B1
:10299000808311828FEF828388E783831482A5EC82
:1029A000B2E012968C911297836012968C93758187
:1029B00023E030E04FEF58E760E0868197810E9486
:1029C000941308959091950492FB222720F92817DB
:1029D00079F080FB92F99093950460919404709142
:1029E000950484E090E00E94293282E00E94EA0C83
:1029F0000895A4E0B0E0EFEFF4E10C94BE30409114
:102A000042025091430260914402709145022FB7F7
:102A1000F8948091900490919104A0919204B091C7
:102A200093042FBF841B950BA60BB70B11E08436C4
:102A30009105A105B10570F10E9443126E5F7F4FB1
:102A40008F4F9F4F69837A838B839C83809115017D
:102A5000909116018A5B9D4F4091140150E04530E2
:102A6000510510F044E050E0BE016F5F7F4F0E94BF
:102A7000DE3182E090E00E942530182F882351F04B
:102A80000E94FF07609342027093430280934402C6
:102A900090934502812F2496E3E00C94DA30ABE06A
:102AA000B0E0E5E5F5E10C94BF3088E0EBE7F4E059
:102AB000DE01119601900D928A95E1F78091C50291
:102AC0009091C602A091C70289879A87AB872B8510
:102AD00040915A0250915B0260915C0270915D02DC
:102AE0003FB7F8948091900490919104A091920442
:102AF000B09193043FBF841B950BA60BB70B843694
:102B00009105A105B10510F4222319F180911D0151
:102B100090911E018A5B9D4F40911C0150E04C300A
:102B2000510510F04BE050E0BE016F5F7F4F0E94F7
:102B3000DE3183E090E00E942530882369F00E9416
:102B4000FF0760935A0270935B0280935C0290933C
:102B50005D021092C70281E02B96E2E00C94DB301C
:102B6000EF92FF921F93CF93DF9300D000D00F928C
:102B7000CDB7DEB77B0190E080E00E942530182FB2
:102B8000882309F487C04091070150E041155105A1
:102B900011F041E050E060910801709109016A5B19
:102BA0007D4FCE0105960E94DE3140913E0250914C
:102BB0003F0260914002709141022FB7F8948091DA
:102BC000900490919104A0919204B09193042FBF2E
:102BD000841B950BA60BB70B84369105A105B10597
:102BE00040F487E492E00E947A069D81891709F4F7
:102BF00051C081E090E00E94253081111AC010E0A0
:102C000080913A0290913B02A0913C02B0913D022A
:102C1000F70180839183A283B383812F0F900F905C
:102C20000F900F900F90DF91CF911F91FF90EF9039
:102C3000089540910F0150E04530510510F044E0F7
:102C400050E060911001709111016A5B7D4FCE01DF
:102C500001960E94DE3187E492E00E947A069D810F
:102C60008913CDCF0E94FF0760933E0270933F020D
:102C7000809340029093410289819A81AB81BC810B
:102C800080933A0290933B02A0933C02B0933D02A2
:102C900011E0B6CF8091470290914802A09149027D
:102CA000B0914A0289839A83AB83BC831111E4CF2C
:102CB000A7CFA8E0B0E0EFE5F6E10C94BF3066EEF8
:102CC0007EEF90E080E00E94293260E082E090E0B8
:102CD0000E940B3260E083E090E00E940B32109281
:102CE0002C0210922B0260E074E184E090E00E94DC
:102CF000293260E086E090E00E940B326FEF87E0BF
:102D000090E00E940B3240E050E0BA0188E090E091
:102D10000E941D3260E084E290E00E940B3260E08D
:102D200087E190E00E940B3260E08CE090E00E942E
:102D30000B3260E08DE090E00E940B3219821A8223
:102D40001B821C821D821E821F82188648E050E072
:102D500068E170E0CE0101960E94FB3140E050E056
:102D6000BA0180E290E00E941D3240E050E0BA01DA
:102D70008FE090E00E941D3240E050E0BA0183E114
:102D800090E00E941D322896E2E00C94DB301F9206
:102D90000F920FB60F9211242F933F934F935F938F
:102DA0006F937F938F939F93AF93BF93EF93FF9313
:102DB0008091E10082FF09C08091E20082FF05C09E
:102DC0008091E1008B7F8093E1008091DA0080FFA9
:102DD00024C08091D80080FF20C08091DA008E7FCF
:102DE0008093DA008091D90080FF9DC080E189BD89
:102DF00082E189BD09B400FEFDCF81E08093BB0470
:102E000080919604811109C00E9491060E943207A8
:102E10008091E20084608093E2008091E10080FF75
:102E200017C08091E20080FF13C08091E2008E7F86
:102E30008093E2008091E20080618093E2008091C3
:102E4000D80080628093D80019BC85E08093BB04D1
:102E50008091E10084FF2BC08091E20084FF27C0B5
:102E600080E189BD82E189BD89B5982F917080FF8D
:102E7000FBCF8091D8008F7D8093D8008091E100B6
:102E80008F7E8093E1008091E2008F7E8093E2004C
:102E90008091E20081608093E2008091BC048823ED
:102EA00009F447C084E08093BB048091BB04809107
:102EB000E10083FF27C08091E20083FF23C080915F
:102EC000E100877F8093E10082E08093BB04109251
:102ED000BC048091E1008E7F8093E1008091E2004C
:102EE0008E7F8093E2008091E20080618093E20017
:102EF00042E060E080E00E9400078091F00088607E
:102F00008093F000FF91EF91BF91AF919F918F91CE
:102F10007F916F915F914F913F912F910F900FBED5
:102F20000F901F90189519BC1092BB041092960434
:102F300074CF8091E30087FD93E09093BB04B5CFFD
:102F400078941F921FB61F9211248F939F93AF9373
:102F5000BF938091900490919104A0919204B091BC
:102F600093040196A11DB11D809390049093910448
:102F7000A0939204B0939304BF91AF919F918F91CE
:102F80001F901FBE1F9018959C014FB7F894809119
:102F9000900490919104A0919204B09193044FBF3A
:102FA000821B930B08952FB7F89480919004909111
:102FB0009104A0919204B09193042FBF08950E94B0
:102FC000D3179C019091BB028091BC02982B21F0F9
:102FD0003093B8022093B7029091BD028091BE0257
:102FE000982B21F03093B6022093B502E0918B0428
:102FF000F0918C04309749F082E08093B90204800C
:10300000F581E02D89EB92E00995089510922A024E
:1030100080914A01E8ECF1E0882329F18091940441
:1030200087FF21C08EE1DF011D928A95E9F790E0CC
:1030300080E00E948F0890E080E00E946A08109271
:1030400029020E94240E86E0E9EBF2E0DF011D92E6
:103050008A95E9F71092B2021092B3021092B4026C
:103060000E94DF17089586E0DECFAAE2B0E0EBE32E
:10307000F8E10C94BE308DEB94E02091F100FC015E
:103080002193CF01F4E0853C9F07B9F78091BE04FE
:10309000833009F470C0B8F4813009F447C082303D
:1030A00009F4B1C08091E80083FF7EC28091BD0425
:1030B0009091BE049A3008F077C2E92FF0E0EC5509
:1030C000FD4C0C9414318A3009F48CC08B3009F417
:1030D0006FC0893039F78091BD04813219F7809132
:1030E000C1049091C2040297E8F68091E800877FBE
:1030F0008093E8008091E80082FF38C09091F3004F
:103100008091F200029731F48091F100813011F04A
:10311000863021F48091F100809398048091E8003A
:103120008B778093E8000E94E106BCCF8091BD04BC
:10313000813A09F0B7CF8091E800877F8093E8005B
:103140008091C1049091C204892B61F460E289E905
:1031500094E070E00E948D078091E8008B77809367
:10316000E800A0CF60E090E080E0F3CF8091BB0466
:103170008111C0CF97CF8091BD04813A09F092CFE1
:103180008091C1049091C204892B09F08BCF80916A
:10319000E800877F8093E8008091E80080FFFCCF03
:1031A00080914A018093F1008091E8008E77B9CF39
:1031B0008091BD04813209F075CF8091C104909156
:1031C000C204892B09F06ECF8091E800877F80933D
:1031D000E8000E94E1068091BF0480934A010E94AA
:1031E000061860CF8091BD04813209F05BCF8091D9
:1031F000E800877F8093E8000E94E1068091C00488
:10320000809397044FCF8091BD04813A09F04ACF53
:103210008091E800877F8093E8008091E80080FF3C
:10322000FCCF80919704BECF803899F0823809F0A6
:10323000BBC18091C1048F70873008F0B5C1809305
:10324000E9008091EB0085FB882780F91092E90066
:1032500006C08091B9049091BA0491118260909156
:10326000E800977F9093E8008093F1001092F100BE
:103270008091E8008E7794C1882309F482C182305E
:1032800009F092C18091BF04811185C18091C10470
:103290008F702FEF280F263008F086C18093E90049
:1032A0002091EB0020FF77C1933031F48091EB0047
:1032B00080628093EB006FC19091EB0090619093DE
:1032C000EB0021E030E001C0220F8A95EAF720935D
:1032D000EA001092EA008091EB008860EACF811149
:1032E00063C11091BF041F778091E3008078812B28
:1032F0008093E3008091E800877F8093E8000E943C
:10330000E1068091E80080FFFCCF8091E3008068B7
:103310008093E30082E0111183E08093BB0444C1F9
:103320008058823008F040C18091BF049091C00461
:103330008C3D23E09207A1F583E08A838AE28983AA
:103340004FB7F894DE01139620E03EE051E2E32F00
:10335000F0E050935700E49120FF03C0E295EF7036
:103360003F5FEF708E2F90E0EA30C0F0C7968D93EC
:103370009D932F5F243159F74FBF8091E800877FDD
:103380008093E8006AE270E0CE0101960E948D070A
:103390008091E8008B778093E80006C1C096E7CF64
:1033A0004091C1045091C204292F332723303105A5
:1033B00009F444C078F52130310509F46FC08BE37E
:1033C00090E0E6ECF6E02230310509F0EDC0209106
:1033D000E800277F2093E8002091C3043091C404C3
:1033E0008217930708F49C0140E02115310509F08C
:1033F00064C0411162C08091E80082FDC9CF809114
:10340000BB04882329F2853019F28091E80083FFFC
:10341000F2CFBECF21323105A9F12232310509F0B8
:10342000C3C04115510509F443C04130510509F0AD
:10343000BBC086EB90E0ECECF5E0C9CF992781307A
:103440009105C1F0009759F0029709F0ADC0E3E192
:10345000F7E0E4918E2F90E0E3E1F7E007C0E3E3CB
:10346000F7E0E4918E2F90E0E3E3F7E0009709F4B2
:103470009BC0ADCFE1E2F7E0E4918E2F90E0E1E276
:10348000F7E0F4CF4115510571F04130510509F0D5
:103490008BC089E090E0E1EFF6E099CF82E190E027
:1034A000E1E0F7E094CF89E090E0E8EDF6E08FCF3F
:1034B00084E490E0E2E8F6E08ACF8091BB048823C0
:1034C00009F466CF853009F463CF8091E80083FD6D
:1034D0005FCF8091E80082FD8ECF8091E80080FF71
:1034E00084CF9091F3008091F2002115310519F0FD
:1034F0008830910550F041E0089709F040E0809154
:10350000E8008E778093E80070CF44914093F100FB
:103510003196215031090196E8CF803809F044C036
:103520008091E800877F8093E8008091BC048093BD
:10353000F1009ECE811138C01091BF041230A0F569
:103540008091E800877F8093E8001093BC040E947C
:10355000E106112311F084E005C08091E30087FDAE
:10356000FACF81E08093BB0442E061EC81E00E94ED
:10357000000742E261EC82E00E9400078091BB04F8
:1035800013C08091BF04813079F481E0933009F059
:1035900080E08093BA041092E9008091E800877F70
:1035A0008093E8000E94E1068091E80083FF0AC052
:1035B0008091E800877F8093E8008091EB00806233
:1035C0008093EB00AA96E3E00C94DA301F920F92FE
:1035D0000FB60F9211242F933F934F935F936F93E6
:1035E0007F938F939F93AF93BF93CF93DF93EF938B
:1035F000FF93D091E900DF708091EC00C82FC1707B
:1036000080FDC0E81092E9008091F000877F8093F0
:10361000F00078940E9435181092E9008091F00033
:1036200088608093F000CD2BCF70C093E900FF91AC
:10363000EF91DF91CF91BF91AF919F918F917F914A
:103640006F915F914F913F912F910F900FBE0F900F
:103650001F9018950E9406182FEF84E39CE02150DC
:1036600080409040E1F700C0000088E19AE00FB68A
:10367000F894A895809360000FBE90936000FFCFF0
:10368000662309F45DC08D3C41F40E949309819545
:103690008093BC020E94DF1708958E3C19F40E94AB
:1036A0009309F6CF8F3C31F40E9493098195809362
:1036B000BB02F0CF803D19F40E949309F8CF893DF9
:1036C00029F40E9471098093BD02E4CF8A3D21F460
:1036D0000E9471098195F7CF8B3D31F40E947109E9
:1036E00081958093BE02D6CF8C3D19F40E9471095A
:1036F000F8CF9FE2980F983070F4815D990B21E02C
:1037000030E001C0220F8A95EAF78091BA02822B3D
:103710008093BA02BFCF8D3D31F48091B4028160B5
:103720008093B402B7CF8E3D21F48091B4028260C1
:10373000F7CF8F3D09F0AECF8091B4028460F0CF17
:103740004091BB028D3C59F48091BC0287FF0DC0B3
:103750001092BC0241110BC01092B20208C08E3C04
:1037600081F48091BC0218169CF3442381F080916F
:10377000BD029091BE02892B09F08CCF1092B3024A
:1037800089CF8F3C49F447FFF0CF1092BB02809164
:10379000BC028111ECCFE0CF803D19F41416ACF3DC
:1037A000E4CF9091BD02893D29F41916F4F61092E8
:1037B000BD02DBCF8A3D19F497FFD7CFF8CF9091A8
:1037C000BE028B3D29F497FFD0CF1092BE02CDCF21
:1037D0008C3D19F41916CCF3C8CF9FE2980F98309E
:1037E00090F4815D990B21E030E0B90102C0660FD1
:1037F000771F8A95E2F7CB0180959091BA028923D1
:103800008093BA02B2CF8D3D31F48091B4028E7FA5
:103810008093B402AACF8E3D21F48091B4028D7FB3
:10382000F7CF8F3D09F0A1CF8091B4028B7FF0CF0D
:10383000882399F19CEF980F913A40F4682F86EC19
:1038400091E00E940B080E94240E089590E2980FC8
:10385000983050F4877091E001C0990F8A95EAF78B
:10386000892F0E94080CEFCF9BE5980F933028F426
:1038700090E080E00E948F08089598E5980F9B31B2
:1038800028F490E080E00E946A08089593E3980F7E
:10389000933118F460E00E94401B0895CF93C82F25
:1038A0008823D9F18CEF8C0F813AC8F580914A01B9
:1038B000882311F18091940487FF1EC0EC2FE695B8
:1038C000E695E695F0E0EA53FE4F828190E04C2FBA
:1038D000477021E030E002C0220F331F4A95E2F723
:1038E00082239323892B91F06C2F86EC91E00E9428
:1038F0000B080E94240E0AC0E8ECF1E08EEC91E087
:103900002191C21789F38E179F07D1F76C2F86EC90
:1039100091E00E9435080E94240ECF91089580E224
:103920008C0F883068F4C77021E030E001C0220FAE
:10393000CA95EAF780912A02822B80932A02EBCF64
:10394000EBE5EC0FE33040F4F0E0E55BFE4F808107
:1039500090E00E948F08E1CFE8E5EC0FEB3150F4E6
:10396000F0E0EE0FFF1FE25BFE4F808191810E942D
:103970006A08D3CF83E38C0F833178F661E08C2F14
:103980000E94401BCACF1F93CF93DF93182FD0E024
:10399000C0E0893311F4C0E5D0E0812F0E944E1CB5
:1039A000209739F4812F0E94181CDF91CF911F912D
:1039B00008958FE99FE00197F1F700C0000021977B
:1039C000EFCF0F931F93CF93DF93C62FD42F022FE8
:1039D000FC0185818823A9F0609301050E94D3171B
:1039E000909300058093FF04C77081E001C0880FA9
:1039F000CA95EAF70E94800EDF91CF911F910F9137
:103A0000089580910105681332C08091FF04909160
:103A100000050E94C4178436910548F510E21D0F79
:103A2000CD17B9F080E28C0F883040F4C77081E088
:103A300001C0880FCA95EAF70E94790E183048F441
:103A400081E09D2F977001C0880F9A95EAF70E9438
:103A5000800E802F0E94C31C183070F6D77081E052
:103A600001C0880FDA95EAF70E94790EC5CFC770BA
:103A700081E001C0880FCA95EAF7F6CF0E940F12C5
:103A8000882319F00E94D31708950E944312CB0196
:103A9000089560917B04669570E04BE050E087E309
:103AA00091E00E94C431892B19F481E08093C60211
:103AB0000E943E1D9093C0028093BF028091C70276
:103AC00084608093C702089590917B0490FF39C071
:103AD0009170811137C0926090937B048091C702EE
:103AE00081608093C702662391F020917B0430911E
:103AF0007C0440917D0450917E0460917F0470911C
:103B0000800480918104909182040E9494136091BA
:103B10007B04669570E04BE050E087E391E00E9403
:103B2000C431892BB1F00E94BB0881E08093C202AE
:103B300020E040917E0460917D0480917C040E948D
:103B4000BA1308958B3210F09465C6CF880F982B66
:103B5000C3CF0E94491DE9CF80917B048695815097
:103B600009F48AE261E00E94641D089580917B045B
:103B700086958F5F8B3208F081E061E00E94641DC2
:103B8000089590917B0490FF08C09695981728F0AF
:103B9000961718F40E94B61D089561E00E94641DF6
:103BA0000895B0E0A0E0E7EDFDE10C94B5308C01A4
:103BB000FC018481882309F413C121E040815181F3
:103BC0006281738195810E94390DEC01F801858134
:103BD000882309F411C5818180938C0280818093B0
:103BE0008B0280E280932F01D0938A02C0938902D6
:103BF000CE0190528115904230F4F8018681807F89
:103C000019F1FE010AC0CE0190548115904138F59A
:103C1000F8018681807FFE0109F0FF27ED33F10571
:103C200028F4E455FF4FE491E0932F01C234EEE70E
:103C3000DE0709F4DAC0C434FEE7DF07E1F0C1347F
:103C40002EE7D20709F4B8C0FE01E851FC47E7307F
:103C5000F10508F0CFC0E255FD4C0C941431CE01B3
:103C60009A9581159F4168F2CE01805A92458097BE
:103C7000E8F2FE01D3CFC8E9D1E04AE0842EFE018C
:103C80002491222309F49DC0213009F03EC03196D1
:103C90008491813031F42296FE0184910E94C31CEC
:103CA00007C0823039F42296FE0184910E944E1C96
:103CB0002196E5CF833031F42296FE0184910E9453
:103CC000181CF6CF843009F075C02296FE012491AD
:103CD00090E080E0FE0131962053330B2A3031050D
:103CE00048F0019728F3EFE9FFE03197F1F700C0C2
:103CF0000000F7CF889EA001899E500D1124C901B4
:103D0000840F951F2491EF01E5CFE22FF0E0E85EEC
:103D1000FE4F9490822F86958695869590E0FC01C3
:103D2000E85FFE4FC4902770D12C022E02C0D594BC
:103D3000C7940A94E2F731E0C322DD24FC01E85085
:103D4000FF4FA490B12C022E02C0B594A7940A9400
:103D5000E2F7E1E0AE22BB24FC01E851FF4FE49022
:103D6000F12C02C0F594E7942A95E2F7F1E0EF22F6
:103D7000FF24C114D10419F081EE0E944E1CA1143D
:103D8000B10419F086EE0E944E1C892D0E94C31CBE
:103D9000A114B10419F086EE0E94181CC114D104BC
:103DA00019F081EE0E94181CE114F10409F480CF8F
:103DB0008CE274CFEF017CCF81E00E94010D0E9464
:103DC000C80C80910702877059F0F801858188231B
:103DD00039F08091950482FF03C082E00E94EA0CD2
:103DE000CDB7DEB7ECE00C94D13082E00E94010D3B
:103DF0000E94C80CF8018581882309F426C410921A
:103E00000105CE019057839708F009C484E090E043
:103E10000E94F5319093950480939404FE01E15043
:103E2000F047E232F10530F5EB54FD4C0C941431BF
:103E300082E00E94D80CDCCF26E241EE61EEC801A0
:103E40000E94E11CBECF27E245EE65EEF8CF26E2E8
:103E500041EE60EEF4CF27E245EE64EEF0CF26E2CD
:103E600041EE62EEECCF27E245EE66EEE8CF28E2C7
:103E700041E0EBCF8091940481608093940495C0DD
:103E8000809195048860809395048FC080919404FC
:103E90008260F3CF809194048460EFCF809194048A
:103EA0008860EBCF809195048160EDCF809195047F
:103EB0008260E9CF809194048061DFCF8091940487
:103EC0008062DBCF809194048064D7CF0E94061873
:103ED000809194048068D1CF809194048C60CDCF80
:103EE000809195048360CFCF809194048E7FC5CF5D
:103EF00080919504877FC7CF809194048D7FBDCF3B
:103F0000809194048B7FB9CF80919404877FB5CF43
:103F1000809195048E7FB7CF809195048D7FB3CF2C
:103F2000809194048F7EA9CF809194048F7DA5CF3A
:103F3000809194048F7BA1CF0E94061880919404F5
:103F40008F779BCF80919404837F97CF8091950446
:103F50008C7F99CF8091940482FB992790F921E07E
:103F6000922790FB82F990FB83F987CF809195048B
:103F7000982F909591708E7F892B90FB81F983CF3C
:103F800090919404892F8F7B96FF806476CF0E9456
:103F9000061890919404892F97FB87F980586DCF6C
:103FA00061E08EE090E00E940B3260919404709189
:103FB000950484E090E00E9429320E94061801CF07
:103FC00060E0EFCF90919404892F8F7E94FF806101
:103FD00054CF90919404892F8E7F90FF81604DCFB4
:103FE00090919504892F877F93FF88604CCF8091B3
:103FF0007B0480FF1EC0282F2E7F20937B043091EE
:104000007C0440917D0450917E0460917F04709106
:10401000800480918104909182040E9494130E94F4
:10402000BB088091C70281608093C7020E94F70E8F
:10403000C8CE816080937B0461E086950E94641DF8
:10404000C0CE4CEA5DE166EB7DE10E94B408B9CEDA
:1040500046EB5DE16CEA7DE1F8CF4DE754E167E8BE
:1040600074E1F3CF47E854E16DE774E1EECF43E646
:1040700054E160E774E1E9CF40E754E163E674E1BD
:10408000E4CF49E454E166E574E1DFCF46E554E16D
:1040900069E474E1DACF41E954E16BEA74E1D5CF28
:1040A0004BEA54E161E974E1D0CF61E081E0C6CF31
:1040B00065E082E00E94C11D84CE68E086E0FACF10
:1040C0006EE089E0F7CF64E18FE0F4CF67E185E14E
:1040D000F1CF61E088E1B2CF62E289E1EBCF61E04C
:1040E00083E2ACCF6AE285E2E5CF0E940618FFEFDB
:1040F00024E33CE0F15020403040E1F700C00000F4
:104100000E94EE076FEF7FEF90E080E00E9429327F
:104110000E942A1B8091950482FB882780F991E0F8
:1041200089270E94E214F8018581C081D18188230A
:1041300009F44AC0CE010E94190CF82E682FCE0156
:104140000E948D0CBE018F2D0E94CB0A0E94EA0AAC
:10415000D82FC92FA82EF801C580B680B2943FE0B1
:10416000B322809107028770F1F0EC2CCC20E1F0B3
:10417000892F807F803451F080E28D0F883098F055
:10418000B11004C0892F807E803269F0809195043F
:1041900082FF09C082E00E94EA0C809107028770CA
:1041A000EE24E3948111E12CDC2ED2942FE0D22274
:1041B000FBE0FD1508F46DC0ED2DF0E0E952FD4C7B
:1041C0000C94143180E0ADCFCE010E945A0CF82E31
:1041D000B9CF2C2F2F70F22EC07F19F0F29490EFF0
:1041E000F922CC20B9F0FF2069F080E28D0F8830F1
:1041F00010F0A11009C080912A02F82AF0922A0238
:104200000E94240E8D2F43C080912902F82AF0923B
:104210002902F6CF8D2F0E94181CFF20D1F1D05E0D
:10422000D83010F0A11004C08F2D0E94080C06C0D9
:10423000F09480912902F822F09229020E94240E23
:1042400028C03C2F3F70F32EC07FC03219F0F2948B
:1042500080EFF822AA2059F081E0A81609F479C06D
:10426000CC2009F485C0BB2009F447C0CBCF809196
:10427000950482FD3EC0CC20B1F1FF2039F0809141
:104280002A02F82AF0922A020E94240E80E00E945C
:104290004E1C2D2D2850330B2430310510F40E9474
:1042A0003212EE20A9F08091070280FD11C0F801C2
:1042B00015828695869586950E94010DC8010E94FB
:1042C000D11D809107028695869586950E94D80C0F
:1042D00020E0F80140815181628173818481958160
:1042E0000E94390D7DCD80E00E94181CFF2089F2CC
:1042F0009BCFCC20A1F0B11004C08F2D0E94800E66
:10430000C8CF91E0B912C5CF809128029F2D982384
:10431000F91609F4BECFF82AF0922802BACFB110EC
:10432000B8CF8F2D0E94790E909128028F2D89236E
:1043300029F08F2D80958923809328028091E701B1
:104340009F2D982309F4A5CFF094F822F092E7016D
:10435000A0CFCC2029F0E5E0EB1508F49ACFCDCF23
:10436000F4E0FB1508F495CF8F2D0E94790E91CFC4
:10437000BB20D1F329E3A21209C03FEF87EE93E0FF
:10438000315080409040E1F700C000008D2F0E9426
:10439000181C7FCF8C2F86958695837069F08130AD
:1043A00009F077CF8D2F9C2F9370C11002C080E051
:1043B00090E00E946A086DCF8D2F9C2F9370C110E2
:1043C00002C080E090E00E948F0863CF6C2D8D2F9B
:1043D0000E94401B5ECF8C2F837009F03FC0C1103C
:1043E00058CF4D2F429546954770440F440F2D2FBF
:1043F0002F7030E0042E02C0220F331F0A94E2F720
:1044000090E080E0D4FF09C08FE090E002C0880F08
:10441000991F4A95E2F780959095C695C695C37009
:10442000C23099F078F440912B0250912C02C130A7
:1044300039F0822B932B842395230E94110D29CFD1
:10444000242B352B822B932BF8CF822B932B20916F
:104450002B0230912C0282279327EFCF8695CC2018
:1044600011F08C2F8170882309F413CF4D2F4295C2
:1044700046954770440F440F2D2F2F7030E0042EC7
:1044800002C0220F331F0A94E2F790E080E0D4FFCD
:1044900009C08FE090E002C0880F991F4A95E2F7AB
:1044A00080959095C695C695C370C23099F078F402
:1044B0004091020550910305C13039F0822B932BB6
:1044C000842395230E94C30CE4CE242B352B822B0E
:1044D000932BF8CF822B932B20910205309103056B
:1044E00082279327EFCFCF70CC2029F08C2F0E940A
:1044F000010D8D2F03CF8D2F0E94790E8C2F0E94DE
:10450000D80CC7CE8D2FE2EFAE1699F1EA1570F0F8
:10451000F0EFAF16D1F021EFA21691F0CC2009F404
:104520005BC0B1106FCE8C2F8F7127C033EFA316F5
:1045300039F194EFA912F2CF8091950482FD2EC03B
:104540008C2F8F71CC20D9F218C0CC2069F0E4E018
:10455000EB1508F49ECECF7181E090E002C0880F89
:10456000991FCA95E2F7B8CFF5E0FB1508F491CE94
:10457000F2CF8C2F8F71C110C2CF0E94010D89CE56
:1045800090E080E0CC2009F49DCFCF7181E090E0F5
:1045900002C0880F991FCA95E2F794CFCC2089F00A
:1045A000CF718C2F0E94010D8091950482FF07C06E
:1045B00028E0C29FC00111248360809307028C2FE2
:1045C000DCCF81E00E94EA0C31E03B1508F061CEBF
:1045D00082E00E94EA0C5DCEBB2059F0893309F0DD
:1045E000D5CE8FEF97EEE3E081509040E040E1F7C9
:1045F000CBCE8C2F8F7183CFC234FEE7DF0709F457
:1046000017CCC4342EE7D20709F4DBCBC1343EE724
:10461000D30709F019CB81E00E94D80CD0CBC6316A
:104620008CE7D80701F580912A028A7A91E009F493
:1046300090E09093E60169E2811165E386EC91E0F8
:104640000E9435080E94240EBCCBC6319CE7D907D6
:1046500051F58091E60169E2811165E386EC91E014
:104660000E940B08EFCFC3303CE7D30709F44ACDD3
:1046700050F4C1159CE7D90709F437CDC130DC47A8
:1046800009F446CD50CDCB35FCE7DF0709F49ACDD0
:10469000CC352CE7D20709F43DCDCA35DC4709F00B
:1046A00042CD81E03ECD80912A028272FE01E0522D
:1046B000F847E531F10508F036CDED51FD4C0C948D
:1046C0001431CF93DF9380910602807F09F04DC0B3
:1046D00080910502882309F448C0E091FE045091BE
:1046E000C504C0910102D091000260910202709154
:1046F000030247E05E17C9F18E2F90E0E49FF001BE
:104700001124EA53FB4F2481222391F1489FF001A9
:10471000499FF00D1124DF01AA53BB4F11962C9134
:1047200011972C1325C02C912D1322C015962C9176
:10473000159721111DC012962D913C91261B370B08
:1047400024363105A8F4809106028F708061809331
:104750000602E453FB4F80818F708061808380E08C
:1047600092E00E94D11D0E940F0CDF91CF9108951D
:10477000FC013196E770BECFA4E1B0E0E2ECF3E2D9
:104780000C94B5308C0186E0F801DE011F96019093
:104790000D928A95E1F7F8018481E58090E0A92ED9
:1047A00092E0B92E90910402911128C0882319F14A
:1047B000EE20F1F0C8010E94160DF82E8823C1F0FA
:1047C00087E0F801D50101900D928A95E1F780917B
:1047D0000402813031F480910002909101020E9424
:1047E0004D0C0E9461238F2D6496ECE00C94D13027
:1047F000C8010E94D11DFF24F394F5CFD080C18061
:1048000082809380F0900502209102023091030291
:10481000A401421B530BFF2009F4D9C044365105B3
:1048200008F092C08823F9F290910102809106026B
:10483000282F207F09F056C0C91214C090910002A1
:10484000D91210C0E11048C08F70806180930602B9
:1048500080E092E00E94D11D80910602F8018683DB
:10486000F12CC1CFE11038C06C2D8D2D0E945B065C
:104870006C2D8D2D0E945B06E82E8111F1CFDF8615
:10488000C88A8F8598890E944D0C292F22952F70F8
:10489000243058F49F70223088F0992399F0F80161
:1048A0009681907F79F4FE2C9ECF2A5F2F70223064
:1048B00068F0C8010E94D11DEF2CF5CF992311F0AB
:1048C000882389F3805E883070F3F3CF803F58F3FC
:1048D000815F833070F7E7CF80910602816080931B
:1048E0000602BECFC91207C090910002D91203C0C0
:1048F000EE2009F48DC0C8010E94160D882309F42A
:1049000077CFEE2009F474CF80910602803288F0D0
:104910002091000230910102398728879B868A8680
:10492000909104029C871D868E87CE0108960E9476
:10493000D11D87E0F801A0E0B2E001900D928A95C8
:10494000E1F70E94612357CF90910602292F207F23
:1049500051F480E092E00E94D11D87E0F5011192B0
:104960008A95E9F77DCF882309F43DCF8091010234
:104970008C1110C080910002D8120CC0E1100AC046
:104980009683C8010E94D11D87E0F50111928A9596
:10499000E9F729CFC8010E94160D882309F428CF12
:1049A000EE2009F425CF80910602803210F220918A
:1049B0000002309101023A8329839C828B8290917C
:1049C00004029D831E828F83CE010196B0CF4436B0
:1049D0005105D0F6882309F40ECFFE2CEE2009F401
:1049E00007CF809101028C1120C080910002D81263
:1049F0001CC08091060280FD0FC0982F907F61F04F
:104A00008683903F31F0982F907F905F8F70892B35
:104A10008683C8010E94D11D87E0F801A0E0B2E0C2
:104A200001900D928A95E1F7DECEC8010E94160D25
:104A300081117FCF80910602816080930602C801B8
:104A40000E94D11DD0CEABE1B0E0E9E2F5E20C94DA
:104A5000BD304E8B5F8B688F798F8A8F9B8F192F1C
:104A60009111109229021D8A86E0FE017696DE01E0
:104A70001F9601900D928A95E1F70A8D002341F06F
:104A800021E04F85588969897A89C8010E94390DCA
:104A90000B8B1C8B87E0FE013F96DE011896019080
:104AA0000D928A95E1F7CE0108960E94BC238111F0
:104AB0000CC087E0FE013896DE01119601900D9240
:104AC0008A95E1F78C8581110BC017E08091FE0477
:104AD0009091C504891331C06B96E4E00C94D930F1
:104AE0002091C50430E0C901019687709927409153
:104AF000FE044817190699F097E0929FD001939F02
:104B0000B00D1124AA53BB4FFE01319601900D92B6
:104B10009A95E1F78093C5040E940F0CD6CF0E94AE
:104B200006181092C5041092FE0487E0E0E0F2E05F
:104B3000DF011D928A95E9F7C8CF819FC00111243A
:104B40008A539B4F0E94BC23882331F28091FE043C
:104B500090E00196877099278093FE04B7CFA3E178
:104B6000B0E0E5EBF5E20C94B4308E01045F1F4F2A
:104B700088E0D8011D928A95E9F786E8C82E81E081
:104B8000D82EF12CE12CAA24A394B12C20E9822E5A
:104B900021E0922EF60181916F018F3F09F442C00E
:104BA000F894E82FE295EF70F0E021A18F70A50155
:104BB00002C0440F551F8A95E2F7CA01922F982B25
:104BC00091A392A18095892382A3789400C0EAE8FA
:104BD000F1E0712C31E021912F3F09F46BC0A22F3D
:104BE000A295AF70B0E090968C9190E02F7002C0CB
:104BF000959587952A95E2F780FD5CC0832F782AEA
:104C0000330F8E169F0639F7F601319780818F3F5B
:104C100011F00E94C30950EA5A95F1F7F801EE0D20
:104C2000FF1D70828FEFE81AF80AA4E0EA16F1047B
:104C300009F0B0CF48E050E0B80183E692E00E946E
:104C4000D131009741F028E0F801A3E6B2E00190ED
:104C50000D922A95E1F700916C02892B69F181E0B0
:104C6000809331020E94D3179093300280932F02D9
:104C700080912F02909130020E94C417059700F195
:104C800010E002591D4F44E050E063E672E0C801B5
:104C90000E94D131F12C892B51F084E0E3E6F2E05F
:104CA000D80101900D928A95E1F7FF24F3941092B8
:104CB000310207C080E0A3CF809131028111D8CFAB
:104CC000F12C0E940F12E82EE0916C02882309F467
:104CD0007DC019821A821B821C820E2F10E002599D
:104CE0001D4F80915E028A30D8F540EB55E1BE0140
:104CF0006F5F7F4FC8010E94DC11882309F455C003
:104D000049EF54E1BE016F5F7F4FC8010E94DC1183
:104D1000882309F44AC04FE455E1BE016F5F7F4F1D
:104D2000C8010E94DC11882309F43FC010925E0282
:104D300080916B0290E044E050E0BE016F5F7F4FD6
:104D400082599D4F0E94D13121E020933802892B56
:104D5000F1F4E12C8E2D8F296396EDE00C94D03088
:104D600080913202909133020E94C417843F914097
:104D700008F0BBCF80913802882359F384E0FE010C
:104D80003196DF011D928A95E9F710923802E09181
:104D90006B02F0E0E259FD4F89819A81AB81BC81C1
:104DA00080839183A283B383D5CF80915E028F3FAE
:104DB00031F08F5F80935E028A3008F4B9CF0E9491
:104DC000D3179093330280933202D4CFF0E0E259AC
:104DD000FD4F84E0A7E4B2E001900D928A95E1F7DF
:104DE00087E492E00E947A068093460280904B020C
:104DF00090904C02A0904D02B0904E0280913402EF
:104E000090913502A0913602B0913702881699062A
:104E1000AA06BB06D1F08092340290923502A0928D
:104E20003602B09237020E940F1281110EC00E940A
:104E3000FF07861A970AA80AB90A80925F02909221
:104E40006002A0926102B09262028BE0EFE4F2E0B5
:104E5000DE01119601900D928A95E1F780914F0243
:104E60008695D0905002C0905102B09052020091AD
:104E700058021091590210925902112309F46ACF75
:104E800010FF0BC0298190917B0420FF1AC0916014
:104E900090937B0460E00E94641D11FF06C020E037
:104EA0004B2D6C2D8D2D0E94BA1312FF04C00023D0
:104EB000A9F00E94491D13FF4DCF81E08093C202EB
:104EC00049CF9E7F90937B040E94BB088091C702CC
:104ED00081608093C7020E94F70EDFCF0E94BB085B
:104EE000EACFA6E0B0E0E7E7F7E20C94BD300E941D
:104EF000D3178C0180912D0290912E02801791077B
:104F000081F019821A820E94D317682F49815A8131
:104F1000792F80E090E00E94232510932E020093C9
:104F20002D022696E4E00C94D9301F921FB61F92F2
:104F300011248F939F93AF93BF9380918F0481111E
:104F400013C08091900490919104A0919204B0912B
:104F500093044196A11DB11D8093900490939104F8
:104F6000A0939204B0939304BF91AF919F918F91BE
:104F70001F901FBE1F901895CDB7DEB760970FB674
:104F8000F894DEBF0FBECDBF85B7806885BF85B7FB
:104F9000806885BF84B7877F84BF0FB6F894A895D3
:104FA00080916000886180936000109260000FBE65
:104FB00080E890E00FB6F8948093610090936100D0
:104FC0000FBE81EC99E09093C5018093C4010E94CB
:104FD00091060E9432078091E20084608093E20093
:104FE00078948091BB048823A1F01091E9001F7090
:104FF0009091EC00892F817090FD80E8182B109221
:10500000E9008091E80083FD0E9435181F7010931D
:10501000E90082E084BD93E095BD9AEF97BD80934F
:105020006E0010925F021092600210926102109264
:1050300062020E940F128093240180912401882330
:1050400009F475C0109245018BE1809346010E94DE
:105050000F1281110E94392F809124018091240127
:1050600094E0811190E090936C0284E0891B80931E
:105070006B0284E90E94C30986E60E94C30987E99E
:105080000E94C30986EC0E94C3090AE811E0D80116
:105090008D918D018F3F11F00E94C309B1E000395D
:1050A0001B07A9F788E0EEE6F2E0DF01282F1D924A
:1050B0002A95E9F7E3E6F2E0DF011D928A95E9F728
:1050C00090E080E00E94F531863E9E4F11F00E94F4
:1050D000591682E090E00E94E7318093760284E0E6
:1050E00090E00E94F53190939504809394040E947F
:1050F000AF25EFEFF6E721E0E150F0402040E1F787
:1051000000C000000E94AF250E940F12E4E0811150
:10511000E0E0F0E0E259FD4F808181FF0CC06FEFCD
:105120007FEF90E080E00E9429320E94EE078BE141
:10513000809345018ACF83E090E00E94E73190E0C0
:105140000E94110D0E940F12811133C182E08093E1
:10515000AD0280E8809304050E94F32D6BE070E0BF
:1051600082E393E00E945D128823E9F18091AD0211
:1051700065E070E081FD1FC18DE293E00E945D1249
:10518000882389F16DE070E08BE193E00E945D126D
:10519000882349F10E94FF07605A75418F4F9F4F46
:1051A00060938304709384048093850490938604B1
:1051B000E7E0F5E080E092E0DF019C011D922150E4
:1051C0003040E1F7F0930E07E0930D078FEF9FEF6C
:1051D000909306058093050581E080938804809371
:1051E00087041092AE0280916D0281117BC090E025
:1051F00080E00E94F531863E9E4F21F00E945916B4
:105200000E94C51488E090E00E94EF314B015C01E0
:1052100084E290E00E94E731282F30E040E050E047
:1052200060E070E080E090E000E20E9429312829EF
:1052300039294A295B2920937B0430937C044093CD
:105240007D0450937E0460937F0470938004809368
:105250008104909382048091C70283608093C70287
:105260002E7F89F50E94C51488E090E00E94EF31FE
:105270006B017C0184E290E00E94E731282F30E04E
:1052800040E050E060E070E080E090E00E94293172
:10529000B22FA32FF42FE52F5B0197018601BC29C4
:1052A000A12BFE29E32BB0937B04A0937C04F09305
:1052B0007D04E0937E0460937F04B0928004809329
:1052C0008104909382040E94C2080E94BB088091CE
:1052D0007B0480FF04C060E086950E94641D81E02D
:1052E00080936D020E940F12811102C00E943C2F18
:1052F00085E291E090938C0480938B04DD24D39419
:10530000AAE04A2E512C612C712C8091BB0400E143
:1053100012E1853009F48BC00E94AF2507E712E047
:10532000FEE6EF2EF2E0FF2ED701F80191918D916C
:1053300022E0EF37F20709F484C09817B9F30E940E
:105340000F12382EC12CD701BD907D01F80181903C
:105350008F018B1429F18B24A12C99249394882DEF
:105360008921B1F03320A1F0AF82C8860E94D31703
:105370009A878987DB8691E08B2D892109F490E05B
:105380009C874F81588569857A858B850E94232566
:10539000A394990CF6E0AF12E2CFF8013197B082F6
:1053A000C39428E0C212CFCF0E944312CC24C394EE
:1053B0004DC080E0CCCE88E293E0E0CE8091BB048B
:1053C000843031F10E94871210928F0488E190E0BE
:1053D000A0E40FB6F894A895809360000FBEA09348
:1053E000600083B7817F846083BF83B7816083BFA0
:1053F0007894889583B78E7F83BF0FB6F894A8956D
:1054000080916000886180936000109260000FBE00
:105410008091BA04882359F00E94AF25EEE6F2E0AD
:1054200081918111BBC3B2E0E637FB07C9F78091D8
:10543000BB04853009F4C2CF0E9406180E943212C4
:105440006BCF98137CCF0E947127C12C0E940F1242
:105450008091C602882309F463C08091C502E0915F
:105460007B04E695E81BE093C102823009F0AFC0EF
:10547000F0E0E25BFC4FE4910E2F10E0E8ECEE2E42
:10548000E1E1FE2E8091C202882361F01092C202F7
:105490000E943E1D9093C0028093BF021092C402EE
:1054A0001092C3020E943E1DE091BF02F091C00223
:1054B0009C012E1B3F0B2F3F3F4790F5209181020F
:1054C0002223B1F01092810220917F02309180025C
:1054D000821B930B8F3F9F4758F4205D3A483093CF
:1054E000800220937F028091C70288608093C70268
:1054F000A090C302B090C402E00FF11FF093C0026D
:10550000E093BF028FEB92E0F70109958091C3020F
:105510009091C402892B21F4AB2811F0D092810222
:1055200080918804882309F421C18091AF02909171
:10553000B0020E94C417C29708F4F8C00E94D317A3
:105540009093B0028093AF0287E095E090930E07AE
:1055500080930D070E940F12882309F42FC283E75E
:1055600093E00E94DE0D2091020530910305832F08
:105570009927009709F497C09C0188E0A901F4E0FD
:1055800056954795FA95E1F74115510511F08C5F55
:105590009A01A9015695479556954795411551058C
:1055A00011F08E5F9A0136952795232B09F08F5FB6
:1055B000813009F4BDC1882309F477C0823009F431
:1055C000BAC1833009F4BAC182E593E070C0863075
:1055D00059F4F0E0E55BFC4FE4910E2F10E078EB1E
:1055E000E72E71E1F72E4ECF893061F4E695F0E0B9
:1055F000E85BFC4FE4910E2F10E061E1E62E61E1E3
:10560000F62E40CF8F3061F4E695F0E0EB5BFC4F77
:10561000E4910E2F10E056E8E52E50E1F52E32CF42
:10562000853159F4F0E0EE5BFC4FE4910E2F10E071
:1056300041E0E42E40E1F42E25CF08E210E09FE7A0
:10564000E92E9FE0F92E883109F41CCF833249F40A
:10565000E0E4F3E00591149137E6E32E31E1F32E17
:1056600011CF8432C9F000ED17E0BAEBEB2EB8E0B1
:10567000FB2E853209F006CF8E2F63E00E94E630C4
:10568000E92FF0E0E35CFC4FE4910E2F10E02AECF0
:10569000E22E22E1F22EF6CE04EF11E082E4E82EB3
:1056A0008FE0F82EEFCE80E069CF8BE693E00E948A
:1056B0001E0E80918C02805D0E945E0D81E893E059
:1056C0000E94DE0D80918B02805D0E945E0D8DE751
:1056D00093E00E94DE0D8090890290908A022091D2
:1056E0002D0130912E018216930609F02AC12091D6
:1056F0008802203209F025C1E2E8F2E08F018191B1
:105700008032E1F3F80101900020E9F79F01215078
:10571000310979010E151F0508F44AC18BE793E0A2
:105720000E94DE0D80912F010E945E0D8091050583
:1057300090910605892B09F046C180918704882342
:10574000A9F00E94FF070091830410918404209126
:10575000850430918604601B710B820B930B6F3FA5
:105760007F4F8F4F9F4710F40E948712C1100E94F5
:10577000A21286E0E9EBF2E0DE01119601900D92B3
:105780008A95E1F7C090BA02F090BB021091BC027A
:10579000E090BD020091BE021092BB021092BC02CA
:1057A0001092BD021092BE02812F8F2909F445C0CC
:1057B0008091B7029091B8020E94C4179C01909109
:1057C000B202992309F40AC225313105B0F19F3F95
:1057D00019F09F5F9093B202FF2059F00E94930945
:1057E0009FEF1F140CF491E0899F802D112480936A
:1057F000BB02112359F00E94930991E011160CF09D
:105800009FEF899F802D11248093BC028091BB0261
:10581000882399F0B090BC02BB2079F00E94B309B4
:10582000882309F4AFC18093BB028B2D0E94B3097A
:10583000882309F4AAC18093BC02802F8E2909F421
:1058400045C08091B5029091B6020E94C4179C0198
:105850009091B302992309F4BCC121353105B0F10F
:105860009F3F19F09F5F9093B302EE2059F00E9482
:1058700071099FEF1E140CF491E0899F802D112473
:105880008093BD02002359F00E94710991E0101627
:105890000CF09FEF899F802D11248093BE02809190
:1058A000BD02882399F0E090BE02EE2079F00E94BC
:1058B000B309882309F46CC18093BD028E2D0E9428
:1058C000B309882309F467C18093BE028091BA02AC
:1058D0008C1117C08091BB02882311F08F1111C069
:1058E0002091BC02222311F012130BC09091BE0232
:1058F000992311F0901305C03091BD02332309F4B0
:1059000063C10E94DF1786E0FE013196A9EBB2E089
:1059100001900D928A95E1F70E9432129091B102A6
:10592000891709F4F2CC8093B1020E94FF07EDCCF5
:1059300085E693E0BCCE8FE593E0B9CE88E593E0B1
:10594000B6CE90922E0180922D0120E22093880203
:10595000B12CA12C1092870252E8252E52E0352E50
:105960006DE7E62E62E0F62E8101C501B401A301C8
:1059700092010E947132605D603319F42016310685
:1059800031F081149104A104B10409F460E2D8015A
:1059900014966C93C501B401A30192010E94713267
:1059A00049015A0101501109E016F106F1F6A4CEA1
:1059B000D8018D918D010E945E0DACCE83E893E0FD
:1059C0000E94DE0DB3CE80918804882309F4B5CE01
:1059D0008091AE028111B1CE0E94A21220910505E4
:1059E000309106052115310509F4A7CE80E041E08C
:1059F00050E0282E312C5A01082E02C0AA0CBB1CE4
:105A00000A94E2F7B50162237323672B11F48F5FC9
:105A1000F0CF9091AD0290FF9BC0880F880F880F48
:105A20008093320110923501895F8093330183E0C6
:105A30008093360124E630E047E050E060E371E017
:105A400088E70E94932E892B09F077CE95E0220CEF
:105A5000331C9A95E1F78091AD0280FF8BC0EDE891
:105A6000F2E080E2DF011D928A95E9F7E4E9F1E0D6
:105A7000F88BEF8780E9882E81E0982E07E0AF85CC
:105A8000B8894D91B88BAF87F40181914F01820D98
:105A9000932D911D9C01295F3A4F3E872D87E42F5E
:105AA000F0E0E357FD4F30E020E0F02EF21A11E075
:105AB000022E01C0110F0A94EAF76D857E8590E0F1
:105AC000DB018D91BD0181234F2D491B4770E42ED1
:105AD000042E000C550BB82F01C0BB0FEA94EAF757
